{
  "_format": "hh-sol-artifact-1",
  "contractName": "AD3",
  "sourceName": "contracts/AD3.sol",
  "abi": [
    {
      "inputs": [
        {
          "internalType": "uint256",
          "name": "totalSupply_",
          "type": "uint256"
        },
        {
          "internalType": "string",
          "name": "name_",
          "type": "string"
        },
        {
          "internalType": "string",
          "name": "symbol_",
          "type": "string"
        },
        {
          "internalType": "address",
          "name": "admin_",
          "type": "address"
        },
        {
          "internalType": "address",
          "name": "recoveryAdmin_",
          "type": "address"
        },
        {
          "internalType": "uint256",
          "name": "timelockPeriod_",
          "type": "uint256"
        },
        {
          "internalType": "address",
          "name": "lossless_",
          "type": "address"
        }
      ],
      "stateMutability": "nonpayable",
      "type": "constructor"
    },
    {
      "anonymous": false,
      "inputs": [
        {
          "indexed": true,
          "internalType": "address",
          "name": "_owner",
          "type": "address"
        },
        {
          "indexed": true,
          "internalType": "address",
          "name": "_spender",
          "type": "address"
        },
        {
          "indexed": false,
          "internalType": "uint256",
          "name": "_value",
          "type": "uint256"
        }
      ],
      "name": "Approval",
      "type": "event"
    },
    {
      "anonymous": false,
      "inputs": [],
      "name": "LosslessOff",
      "type": "event"
    },
    {
      "anonymous": false,
      "inputs": [],
      "name": "LosslessOn",
      "type": "event"
    },
    {
      "anonymous": false,
      "inputs": [
        {
          "indexed": false,
          "internalType": "uint256",
          "name": "_turnOffDate",
          "type": "uint256"
        }
      ],
      "name": "LosslessTurnOffProposal",
      "type": "event"
    },
    {
      "anonymous": false,
      "inputs": [
        {
          "indexed": true,
          "internalType": "address",
          "name": "_newAdmin",
          "type": "address"
        }
      ],
      "name": "NewAdmin",
      "type": "event"
    },
    {
      "anonymous": false,
      "inputs": [
        {
          "indexed": true,
          "internalType": "address",
          "name": "_newAdmin",
          "type": "address"
        }
      ],
      "name": "NewRecoveryAdmin",
      "type": "event"
    },
    {
      "anonymous": false,
      "inputs": [
        {
          "indexed": true,
          "internalType": "address",
          "name": "_candidate",
          "type": "address"
        }
      ],
      "name": "NewRecoveryAdminProposal",
      "type": "event"
    },
    {
      "anonymous": false,
      "inputs": [
        {
          "indexed": true,
          "internalType": "address",
          "name": "_from",
          "type": "address"
        },
        {
          "indexed": true,
          "internalType": "address",
          "name": "_to",
          "type": "address"
        },
        {
          "indexed": false,
          "internalType": "uint256",
          "name": "_value",
          "type": "uint256"
        }
      ],
      "name": "Transfer",
      "type": "event"
    },
    {
      "inputs": [
        {
          "internalType": "bytes",
          "name": "key",
          "type": "bytes"
        }
      ],
      "name": "acceptRecoveryAdminOwnership",
      "outputs": [],
      "stateMutability": "nonpayable",
      "type": "function"
    },
    {
      "inputs": [],
      "name": "admin",
      "outputs": [
        {
          "internalType": "address",
          "name": "",
          "type": "address"
        }
      ],
      "stateMutability": "view",
      "type": "function"
    },
    {
      "inputs": [
        {
          "internalType": "address",
          "name": "owner",
          "type": "address"
        },
        {
          "internalType": "address",
          "name": "spender",
          "type": "address"
        }
      ],
      "name": "allowance",
      "outputs": [
        {
          "internalType": "uint256",
          "name": "",
          "type": "uint256"
        }
      ],
      "stateMutability": "view",
      "type": "function"
    },
    {
      "inputs": [
        {
          "internalType": "address",
          "name": "spender",
          "type": "address"
        },
        {
          "internalType": "uint256",
          "name": "amount",
          "type": "uint256"
        }
      ],
      "name": "approve",
      "outputs": [
        {
          "internalType": "bool",
          "name": "",
          "type": "bool"
        }
      ],
      "stateMutability": "nonpayable",
      "type": "function"
    },
    {
      "inputs": [
        {
          "internalType": "address",
          "name": "account",
          "type": "address"
        }
      ],
      "name": "balanceOf",
      "outputs": [
        {
          "internalType": "uint256",
          "name": "",
          "type": "uint256"
        }
      ],
      "stateMutability": "view",
      "type": "function"
    },
    {
      "inputs": [],
      "name": "decimals",
      "outputs": [
        {
          "internalType": "uint8",
          "name": "",
          "type": "uint8"
        }
      ],
      "stateMutability": "view",
      "type": "function"
    },
    {
      "inputs": [
        {
          "internalType": "address",
          "name": "spender",
          "type": "address"
        },
        {
          "internalType": "uint256",
          "name": "subtractedValue",
          "type": "uint256"
        }
      ],
      "name": "decreaseAllowance",
      "outputs": [
        {
          "internalType": "bool",
          "name": "",
          "type": "bool"
        }
      ],
      "stateMutability": "nonpayable",
      "type": "function"
    },
    {
      "inputs": [],
      "name": "executeLosslessTurnOff",
      "outputs": [],
      "stateMutability": "nonpayable",
      "type": "function"
    },
    {
      "inputs": [],
      "name": "executeLosslessTurnOn",
      "outputs": [],
      "stateMutability": "nonpayable",
      "type": "function"
    },
    {
      "inputs": [],
      "name": "getAdmin",
      "outputs": [
        {
          "internalType": "address",
          "name": "",
          "type": "address"
        }
      ],
      "stateMutability": "view",
      "type": "function"
    },
    {
      "inputs": [
        {
          "internalType": "address",
          "name": "spender",
          "type": "address"
        },
        {
          "internalType": "uint256",
          "name": "addedValue",
          "type": "uint256"
        }
      ],
      "name": "increaseAllowance",
      "outputs": [
        {
          "internalType": "bool",
          "name": "",
          "type": "bool"
        }
      ],
      "stateMutability": "nonpayable",
      "type": "function"
    },
    {
      "inputs": [],
      "name": "isLosslessOn",
      "outputs": [
        {
          "internalType": "bool",
          "name": "",
          "type": "bool"
        }
      ],
      "stateMutability": "view",
      "type": "function"
    },
    {
      "inputs": [],
      "name": "lossless",
      "outputs": [
        {
          "internalType": "contract ILssController",
          "name": "",
          "type": "address"
        }
      ],
      "stateMutability": "view",
      "type": "function"
    },
    {
      "inputs": [],
      "name": "losslessTurnOffTimestamp",
      "outputs": [
        {
          "internalType": "uint256",
          "name": "",
          "type": "uint256"
        }
      ],
      "stateMutability": "view",
      "type": "function"
    },
    {
      "inputs": [],
      "name": "name",
      "outputs": [
        {
          "internalType": "string",
          "name": "",
          "type": "string"
        }
      ],
      "stateMutability": "view",
      "type": "function"
    },
    {
      "inputs": [],
      "name": "proposeLosslessTurnOff",
      "outputs": [],
      "stateMutability": "nonpayable",
      "type": "function"
    },
    {
      "inputs": [],
      "name": "recoveryAdmin",
      "outputs": [
        {
          "internalType": "address",
          "name": "",
          "type": "address"
        }
      ],
      "stateMutability": "view",
      "type": "function"
    },
    {
      "inputs": [
        {
          "internalType": "address",
          "name": "newAdmin",
          "type": "address"
        }
      ],
      "name": "setLosslessAdmin",
      "outputs": [],
      "stateMutability": "nonpayable",
      "type": "function"
    },
    {
      "inputs": [],
      "name": "symbol",
      "outputs": [
        {
          "internalType": "string",
          "name": "",
          "type": "string"
        }
      ],
      "stateMutability": "view",
      "type": "function"
    },
    {
      "inputs": [],
      "name": "timelockPeriod",
      "outputs": [
        {
          "internalType": "uint256",
          "name": "",
          "type": "uint256"
        }
      ],
      "stateMutability": "view",
      "type": "function"
    },
    {
      "inputs": [],
      "name": "totalSupply",
      "outputs": [
        {
          "internalType": "uint256",
          "name": "",
          "type": "uint256"
        }
      ],
      "stateMutability": "view",
      "type": "function"
    },
    {
      "inputs": [
        {
          "internalType": "address",
          "name": "recipient",
          "type": "address"
        },
        {
          "internalType": "uint256",
          "name": "amount",
          "type": "uint256"
        }
      ],
      "name": "transfer",
      "outputs": [
        {
          "internalType": "bool",
          "name": "",
          "type": "bool"
        }
      ],
      "stateMutability": "nonpayable",
      "type": "function"
    },
    {
      "inputs": [
        {
          "internalType": "address",
          "name": "sender",
          "type": "address"
        },
        {
          "internalType": "address",
          "name": "recipient",
          "type": "address"
        },
        {
          "internalType": "uint256",
          "name": "amount",
          "type": "uint256"
        }
      ],
      "name": "transferFrom",
      "outputs": [
        {
          "internalType": "bool",
          "name": "",
          "type": "bool"
        }
      ],
      "stateMutability": "nonpayable",
      "type": "function"
    },
    {
      "inputs": [
        {
          "internalType": "address[]",
          "name": "from",
          "type": "address[]"
        }
      ],
      "name": "transferOutBlacklistedFunds",
      "outputs": [],
      "stateMutability": "nonpayable",
      "type": "function"
    },
    {
      "inputs": [
        {
          "internalType": "address",
          "name": "candidate",
          "type": "address"
        },
        {
          "internalType": "bytes32",
          "name": "keyHash",
          "type": "bytes32"
        }
      ],
      "name": "transferRecoveryAdminOwnership",
      "outputs": [],
      "stateMutability": "nonpayable",
      "type": "function"
    }
  ],
  "bytecode": "0x6080604052600b805460ff191660011790553480156200001e57600080fd5b506040516200205a3803806200205a833981016040819052620000419162000325565b6200004d3388620000e9565b855162000062906003906020890190620001af565b50845162000078906004906020880190620001af565b50600880546001600160a01b039586166001600160a01b03199182161790915560058054948616948216949094179093556006805490931690925560006007819055600991909155600a55600b80549190921661010002610100600160a81b03199091161790555062000450915050565b6001600160a01b038216620001445760405162461bcd60e51b815260206004820181905260248201527f4c45524332303a206d696e7420746f20746865207a65726f2061646472657373604482015260640160405180910390fd5b8060026000828254620001589190620003d8565b90915550506001600160a01b038216600081815260208181526040808320805486019055518481527fddf252ad1be2c89b69c2b068fc378daa952ba7f163c4a11628f55a4df523b3ef910160405180910390a35050565b828054620001bd90620003fd565b90600052602060002090601f016020900481019282620001e157600085556200022c565b82601f10620001fc57805160ff19168380011785556200022c565b828001600101855582156200022c579182015b828111156200022c5782518255916020019190600101906200020f565b506200023a9291506200023e565b5090565b5b808211156200023a57600081556001016200023f565b80516001600160a01b03811681146200026d57600080fd5b919050565b600082601f83011262000283578081fd5b81516001600160401b0380821115620002a057620002a06200043a565b604051601f8301601f19908116603f01168101908282118183101715620002cb57620002cb6200043a565b81604052838152602092508683858801011115620002e7578485fd5b8491505b838210156200030a5785820183015181830184015290820190620002eb565b838211156200031b57848385830101525b9695505050505050565b600080600080600080600060e0888a03121562000340578283fd5b875160208901519097506001600160401b03808211156200035f578485fd5b6200036d8b838c0162000272565b975060408a015191508082111562000383578485fd5b50620003928a828b0162000272565b955050620003a36060890162000255565b9350620003b36080890162000255565b925060a08801519150620003ca60c0890162000255565b905092959891949750929550565b60008219821115620003f857634e487b7160e01b81526011600452602481fd5b500190565b600181811c908216806200041257607f821691505b602082108114156200043457634e487b7160e01b600052602260045260246000fd5b50919050565b634e487b7160e01b600052604160045260246000fd5b611bfa80620004606000396000f3fe608060405234801561001057600080fd5b50600436106101a35760003560e01c80636e9960c3116100ee578063a9059cbb11610097578063ccfa214f11610071578063ccfa214f1461038c578063d6e242b814610399578063dd62ed3e146103a1578063f851a440146103e757600080fd5b8063a9059cbb1461035e578063b38fe95714610371578063b5c228771461037957600080fd5b8063936af911116100c8578063936af9111461033057806395d89b4114610343578063a457c2d71461034b57600080fd5b80636e9960c3146102c957806370a08231146102e757806393310ffe1461031d57600080fd5b8063313ce567116101505780635b8a194a1161012a5780635b8a194a146102985780635f6529a3146102a057806361086b00146102c057600080fd5b8063313ce5671461022c57806334f6ebf51461023b578063395093511461028557600080fd5b806323b872dd1161018157806323b872dd146101fb5780632baa3c9e1461020e5780632ecaf6751461022357600080fd5b806306fdde03146101a8578063095ea7b3146101c657806318160ddd146101e9575b600080fd5b6101b0610407565b6040516101bd9190611a62565b60405180910390f35b6101d96101d4366004611901565b610499565b60405190151581526020016101bd565b6002545b6040519081526020016101bd565b6101d96102093660046118c6565b610573565b61022161021c366004611873565b610734565b005b6101ed60095481565b604051601281526020016101bd565b600b5461026090610100900473ffffffffffffffffffffffffffffffffffffffff1681565b60405173ffffffffffffffffffffffffffffffffffffffff90911681526020016101bd565b6101d9610293366004611901565b6108d8565b6102216109df565b6005546102609073ffffffffffffffffffffffffffffffffffffffff1681565b6101ed600a5481565b60085473ffffffffffffffffffffffffffffffffffffffff16610260565b6101ed6102f5366004611873565b73ffffffffffffffffffffffffffffffffffffffff1660009081526020819052604090205490565b61022161032b366004611901565b610b3e565b61022161033e36600461192a565b610c4a565b6101b0610e32565b6101d9610359366004611901565b610e41565b6101d961036c366004611901565b610fe1565b6102216110b0565b61022161038736600461199a565b611274565b600b546101d99060ff1681565b61022161140e565b6101ed6103af366004611894565b73ffffffffffffffffffffffffffffffffffffffff918216600090815260016020908152604080832093909416825291909152205490565b6008546102609073ffffffffffffffffffffffffffffffffffffffff1681565b60606003805461041690611b02565b80601f016020809104026020016040519081016040528092919081815260200182805461044290611b02565b801561048f5780601f106104645761010080835404028352916020019161048f565b820191906000526020600020905b81548152906001019060200180831161047257829003601f168201915b5050505050905090565b600b546000908390839060ff161561055d57600b54610100900473ffffffffffffffffffffffffffffffffffffffff166347abf3be336040517fffffffff0000000000000000000000000000000000000000000000000000000060e084901b16815273ffffffffffffffffffffffffffffffffffffffff9182166004820152908516602482015260448101849052606401600060405180830381600087803b15801561054457600080fd5b505af1158015610558573d6000803e3d6000fd5b505050505b6105683386866115c2565b506001949350505050565b600b5460009084908490849060ff161561064157600b54610100900473ffffffffffffffffffffffffffffffffffffffff1663379f5c69336040517fffffffff0000000000000000000000000000000000000000000000000000000060e084901b16815273ffffffffffffffffffffffffffffffffffffffff91821660048201528187166024820152908516604482015260648101849052608401600060405180830381600087803b15801561062857600080fd5b505af115801561063c573d6000803e3d6000fd5b505050505b73ffffffffffffffffffffffffffffffffffffffff8716600090815260016020908152604080832033845290915290205485811015610707576040517f08c379a000000000000000000000000000000000000000000000000000000000815260206004820152602960248201527f4c45524332303a207472616e7366657220616d6f756e7420657863656564732060448201527f616c6c6f77616e6365000000000000000000000000000000000000000000000060648201526084015b60405180910390fd5b610712888888611630565b61072688336107218985611aeb565b6115c2565b506001979650505050505050565b60055473ffffffffffffffffffffffffffffffffffffffff163373ffffffffffffffffffffffffffffffffffffffff16146107cb576040517f08c379a000000000000000000000000000000000000000000000000000000000815260206004820152601e60248201527f4c45524332303a204d757374206265207265636f766572792061646d696e000060448201526064016106fe565b60085473ffffffffffffffffffffffffffffffffffffffff82811691161415610850576040517f08c379a000000000000000000000000000000000000000000000000000000000815260206004820152601f60248201527f4c45524332303a2043616e6e6f74207365742073616d6520616464726573730060448201526064016106fe565b60405173ffffffffffffffffffffffffffffffffffffffff8216907f71614071b88dee5e0b2ae578a9dd7b2ebbe9ae832ba419dc0242cd065a290b6c90600090a2600880547fffffffffffffffffffffffff00000000000000000000000000000000000000001673ffffffffffffffffffffffffffffffffffffffff92909216919091179055565b600b546000908390839060ff161561099c57600b54610100900473ffffffffffffffffffffffffffffffffffffffff1663cf5961bb336040517fffffffff0000000000000000000000000000000000000000000000000000000060e084901b16815273ffffffffffffffffffffffffffffffffffffffff9182166004820152908516602482015260448101849052606401600060405180830381600087803b15801561098357600080fd5b505af1158015610997573d6000803e3d6000fd5b505050505b33600081815260016020908152604080832073ffffffffffffffffffffffffffffffffffffffff8a16845290915290205461056891908790610721908890611ad3565b60055473ffffffffffffffffffffffffffffffffffffffff163373ffffffffffffffffffffffffffffffffffffffff1614610a76576040517f08c379a000000000000000000000000000000000000000000000000000000000815260206004820152601e60248201527f4c45524332303a204d757374206265207265636f766572792061646d696e000060448201526064016106fe565b600b5460ff1615610ae3576040517f08c379a000000000000000000000000000000000000000000000000000000000815260206004820152601b60248201527f4c45524332303a204c6f73736c65737320616c7265616479206f6e000000000060448201526064016106fe565b6000600a819055600b80547fffffffffffffffffffffffffffffffffffffffffffffffffffffffffffffff001660011790556040517f1ba3b66404043da8297d0b876fa6464f2cb127edfc6626308046d4503028322b9190a1565b60055473ffffffffffffffffffffffffffffffffffffffff163373ffffffffffffffffffffffffffffffffffffffff1614610bd5576040517f08c379a000000000000000000000000000000000000000000000000000000000815260206004820152601e60248201527f4c45524332303a204d757374206265207265636f766572792061646d696e000060448201526064016106fe565b600680547fffffffffffffffffffffffff00000000000000000000000000000000000000001673ffffffffffffffffffffffffffffffffffffffff841690811790915560078290556040517f6c591da8da2f6e69746d7d9ae61c27ee29fbe303798141b4942ae2aef54274b190600090a25050565b600b54610100900473ffffffffffffffffffffffffffffffffffffffff163373ffffffffffffffffffffffffffffffffffffffff1614610ce6576040517f08c379a000000000000000000000000000000000000000000000000000000000815260206004820152601e60248201527f4c45524332303a204f6e6c79206c6f73736c65737320636f6e7472616374000060448201526064016106fe565b806000805b82811015610dea576000858583818110610d2e577f4e487b7100000000000000000000000000000000000000000000000000000000600052603260045260246000fd5b9050602002016020810190610d439190611873565b73ffffffffffffffffffffffffffffffffffffffff811660009081526020819052604081208054919055909150610d7a8185611ad3565b600b5460405183815291955073ffffffffffffffffffffffffffffffffffffffff610100909104811691908416907fddf252ad1be2c89b69c2b068fc378daa952ba7f163c4a11628f55a4df523b3ef9060200160405180910390a350508080610de290611b56565b915050610ceb565b50600b54610100900473ffffffffffffffffffffffffffffffffffffffff1660009081526020819052604081208054839290610e27908490611ad3565b909155505050505050565b60606004805461041690611b02565b600b546000908390839060ff1615610f0557600b54610100900473ffffffffffffffffffffffffffffffffffffffff1663568c75a9336040517fffffffff0000000000000000000000000000000000000000000000000000000060e084901b16815273ffffffffffffffffffffffffffffffffffffffff9182166004820152908516602482015260448101849052606401600060405180830381600087803b158015610eec57600080fd5b505af1158015610f00573d6000803e3d6000fd5b505050505b33600090815260016020908152604080832073ffffffffffffffffffffffffffffffffffffffff8916845290915290205484811015610fc6576040517f08c379a000000000000000000000000000000000000000000000000000000000815260206004820152602660248201527f4c45524332303a2064656372656173656420616c6c6f77616e63652062656c6f60448201527f77207a65726f000000000000000000000000000000000000000000000000000060648201526084016106fe565b610fd533876107218885611aeb565b50600195945050505050565b600b546000908390839060ff16156110a557600b54610100900473ffffffffffffffffffffffffffffffffffffffff16631ffb811f336040517fffffffff0000000000000000000000000000000000000000000000000000000060e084901b16815273ffffffffffffffffffffffffffffffffffffffff9182166004820152908516602482015260448101849052606401600060405180830381600087803b15801561108c57600080fd5b505af11580156110a0573d6000803e3d6000fd5b505050505b610568338686611630565b60055473ffffffffffffffffffffffffffffffffffffffff163373ffffffffffffffffffffffffffffffffffffffff1614611147576040517f08c379a000000000000000000000000000000000000000000000000000000000815260206004820152601e60248201527f4c45524332303a204d757374206265207265636f766572792061646d696e000060448201526064016106fe565b600a546111b0576040517f08c379a000000000000000000000000000000000000000000000000000000000815260206004820152601c60248201527f4c45524332303a205475726e4f6666206e6f742070726f706f7365640000000060448201526064016106fe565b42600a54111561121c576040517f08c379a000000000000000000000000000000000000000000000000000000000815260206004820152601d60248201527f4c45524332303a2054696d65206c6f636b20696e2070726f677265737300000060448201526064016106fe565b600b80547fffffffffffffffffffffffffffffffffffffffffffffffffffffffffffffff001690556000600a8190556040517f3eb72350c9c7928d31e9ab450bfff2c159434aa4b82658a7d8eae7f109cb4e7b9190a1565b60065473ffffffffffffffffffffffffffffffffffffffff163373ffffffffffffffffffffffffffffffffffffffff161461130b576040517f08c379a000000000000000000000000000000000000000000000000000000000815260206004820152601960248201527f4c45524332303a204d7573742062652063616e6469746174650000000000000060448201526064016106fe565b600754815160208301201461137c576040517f08c379a000000000000000000000000000000000000000000000000000000000815260206004820152601360248201527f4c45524332303a20496e76616c6964206b65790000000000000000000000000060448201526064016106fe565b60065460405173ffffffffffffffffffffffffffffffffffffffff909116907fb94bba6936ec7f75ee931dadf6e1a4d66b43d09b6fa0178fb13df9b77fb5841f90600090a25060068054600580547fffffffffffffffffffffffff000000000000000000000000000000000000000090811673ffffffffffffffffffffffffffffffffffffffff841617909155169055565b60055473ffffffffffffffffffffffffffffffffffffffff163373ffffffffffffffffffffffffffffffffffffffff16146114a5576040517f08c379a000000000000000000000000000000000000000000000000000000000815260206004820152601e60248201527f4c45524332303a204d757374206265207265636f766572792061646d696e000060448201526064016106fe565b600a541561150f576040517f08c379a000000000000000000000000000000000000000000000000000000000815260206004820181905260248201527f4c45524332303a205475726e4f666620616c72656164792070726f706f73656460448201526064016106fe565b600b5460ff1661157b576040517f08c379a000000000000000000000000000000000000000000000000000000000815260206004820152601c60248201527f4c45524332303a204c6f73736c65737320616c7265616479206f66660000000060448201526064016106fe565b6009546115889042611ad3565b600a8190556040519081527f6ca688e6e3ddd707280140b2bf0106afe883689b6c74e68cbd517576dd9c245a9060200160405180910390a1565b73ffffffffffffffffffffffffffffffffffffffff83811660008181526001602090815260408083209487168084529482529182902085905590518481527f8c5be1e5ebec7d5bd14f71427d1e84f3dd0314c0f7b2291e5b200ac8c7c3b925910160405180910390a3505050565b73ffffffffffffffffffffffffffffffffffffffff83166116d3576040517f08c379a000000000000000000000000000000000000000000000000000000000815260206004820152602660248201527f4c45524332303a207472616e736665722066726f6d20746865207a65726f206160448201527f646472657373000000000000000000000000000000000000000000000000000060648201526084016106fe565b73ffffffffffffffffffffffffffffffffffffffff831660009081526020819052604090205481811015611789576040517f08c379a000000000000000000000000000000000000000000000000000000000815260206004820152602760248201527f4c45524332303a207472616e7366657220616d6f756e7420657863656564732060448201527f62616c616e63650000000000000000000000000000000000000000000000000060648201526084016106fe565b6117938282611aeb565b73ffffffffffffffffffffffffffffffffffffffff80861660009081526020819052604080822093909355908516815290812080548492906117d6908490611ad3565b925050819055508273ffffffffffffffffffffffffffffffffffffffff168473ffffffffffffffffffffffffffffffffffffffff167fddf252ad1be2c89b69c2b068fc378daa952ba7f163c4a11628f55a4df523b3ef8460405161183c91815260200190565b60405180910390a350505050565b803573ffffffffffffffffffffffffffffffffffffffff8116811461186e57600080fd5b919050565b600060208284031215611884578081fd5b61188d8261184a565b9392505050565b600080604083850312156118a6578081fd5b6118af8361184a565b91506118bd6020840161184a565b90509250929050565b6000806000606084860312156118da578081fd5b6118e38461184a565b92506118f16020850161184a565b9150604084013590509250925092565b60008060408385031215611913578182fd5b61191c8361184a565b946020939093013593505050565b6000806020838503121561193c578182fd5b823567ffffffffffffffff80821115611953578384fd5b818501915085601f830112611966578384fd5b813581811115611974578485fd5b8660208260051b8501011115611988578485fd5b60209290920196919550909350505050565b6000602082840312156119ab578081fd5b813567ffffffffffffffff808211156119c2578283fd5b818401915084601f8301126119d5578283fd5b8135818111156119e7576119e7611bbe565b604051601f82017fffffffffffffffffffffffffffffffffffffffffffffffffffffffffffffffe0908116603f01168101908382118183101715611a2d57611a2d611bbe565b81604052828152876020848701011115611a45578586fd5b826020860160208301379182016020019490945295945050505050565b6000602080835283518082850152825b81811015611a8e57858101830151858201604001528201611a72565b81811115611a9f5783604083870101525b50601f017fffffffffffffffffffffffffffffffffffffffffffffffffffffffffffffffe016929092016040019392505050565b60008219821115611ae657611ae6611b8f565b500190565b600082821015611afd57611afd611b8f565b500390565b600181811c90821680611b1657607f821691505b60208210811415611b50577f4e487b7100000000000000000000000000000000000000000000000000000000600052602260045260246000fd5b50919050565b60007fffffffffffffffffffffffffffffffffffffffffffffffffffffffffffffffff821415611b8857611b88611b8f565b5060010190565b7f4e487b7100000000000000000000000000000000000000000000000000000000600052601160045260246000fd5b7f4e487b7100000000000000000000000000000000000000000000000000000000600052604160045260246000fdfea164736f6c6343000804000a",
  "linkReferences": {},
  "deployedLinkReferences": {}
}