{
  "_format": "hh-sol-artifact-1",
  "contractName": "Auction",
  "sourceName": "contracts/influencemining/Auction.sol",
  "abi": [
    {
      "anonymous": false,
      "inputs": [
        {
          "indexed": false,
          "internalType": "address",
          "name": "hNFTContractAddr",
          "type": "address"
        },
        {
          "indexed": true,
          "internalType": "uint256",
          "name": "curBidId",
          "type": "uint256"
        },
        {
          "indexed": true,
          "internalType": "uint256",
          "name": "preBidId",
          "type": "uint256"
        },
        {
          "indexed": false,
          "internalType": "address",
          "name": "bidder",
          "type": "address"
        }
      ],
      "name": "BidCommitted",
      "type": "event"
    },
    {
      "anonymous": false,
      "inputs": [
        {
          "indexed": false,
          "internalType": "address",
          "name": "hNFTContractAddr",
          "type": "address"
        },
        {
          "indexed": true,
          "internalType": "uint256",
          "name": "curBidId",
          "type": "uint256"
        },
        {
          "indexed": true,
          "internalType": "uint256",
          "name": "preBidId",
          "type": "uint256"
        },
        {
          "indexed": false,
          "internalType": "address",
          "name": "bidder",
          "type": "address"
        }
      ],
      "name": "BidPrepared",
      "type": "event"
    },
    {
      "anonymous": false,
      "inputs": [
        {
          "indexed": false,
          "internalType": "uint256",
          "name": "bidId",
          "type": "uint256"
        },
        {
          "indexed": false,
          "internalType": "uint256",
          "name": "hNFTId",
          "type": "uint256"
        },
        {
          "indexed": false,
          "internalType": "address",
          "name": "to",
          "type": "address"
        },
        {
          "indexed": false,
          "internalType": "uint256",
          "name": "amount",
          "type": "uint256"
        }
      ],
      "name": "BidRefunded",
      "type": "event"
    },
    {
      "anonymous": false,
      "inputs": [
        {
          "indexed": false,
          "internalType": "uint8",
          "name": "version",
          "type": "uint8"
        }
      ],
      "name": "Initialized",
      "type": "event"
    },
    {
      "anonymous": false,
      "inputs": [
        {
          "indexed": true,
          "internalType": "address",
          "name": "previousOwner",
          "type": "address"
        },
        {
          "indexed": true,
          "internalType": "address",
          "name": "newOwner",
          "type": "address"
        }
      ],
      "name": "OwnershipTransferred",
      "type": "event"
    },
    {
      "inputs": [
        {
          "components": [
            {
              "internalType": "uint256",
              "name": "hNFTId",
              "type": "uint256"
            },
            {
              "internalType": "address",
              "name": "hNFTContractAddr",
              "type": "address"
            }
          ],
          "internalType": "struct Auction.HNFTInfo",
          "name": "hNFTInfo",
          "type": "tuple"
        },
        {
          "internalType": "uint256",
          "name": "governanceTokenAmount",
          "type": "uint256"
        },
        {
          "internalType": "string",
          "name": "slotUri",
          "type": "string"
        },
        {
          "internalType": "bytes",
          "name": "_signature",
          "type": "bytes"
        },
        {
          "internalType": "uint256",
          "name": "curBidId",
          "type": "uint256"
        },
        {
          "internalType": "uint256",
          "name": "preBidId",
          "type": "uint256"
        },
        {
          "internalType": "uint256",
          "name": "curBidRemain",
          "type": "uint256"
        }
      ],
      "name": "commitBid",
      "outputs": [],
      "stateMutability": "nonpayable",
      "type": "function"
    },
    {
      "inputs": [
        {
          "internalType": "address",
          "name": "",
          "type": "address"
        },
        {
          "internalType": "uint256",
          "name": "",
          "type": "uint256"
        }
      ],
      "name": "curBid",
      "outputs": [
        {
          "internalType": "uint256",
          "name": "bidId",
          "type": "uint256"
        },
        {
          "internalType": "uint256",
          "name": "amount",
          "type": "uint256"
        },
        {
          "internalType": "address",
          "name": "bidder",
          "type": "address"
        },
        {
          "internalType": "string",
          "name": "slotUri",
          "type": "string"
        }
      ],
      "stateMutability": "view",
      "type": "function"
    },
    {
      "inputs": [],
      "name": "getMinDepositForPreBid",
      "outputs": [
        {
          "internalType": "uint256",
          "name": "",
          "type": "uint256"
        }
      ],
      "stateMutability": "view",
      "type": "function"
    },
    {
      "inputs": [],
      "name": "getRelayerAddress",
      "outputs": [
        {
          "internalType": "address",
          "name": "",
          "type": "address"
        }
      ],
      "stateMutability": "view",
      "type": "function"
    },
    {
      "inputs": [
        {
          "internalType": "address",
          "name": "_relayerAddress",
          "type": "address"
        },
        {
          "internalType": "address",
          "name": "_ad3Address",
          "type": "address"
        },
        {
          "internalType": "address",
          "name": "_hnftGoverAddress",
          "type": "address"
        }
      ],
      "name": "initialize",
      "outputs": [],
      "stateMutability": "nonpayable",
      "type": "function"
    },
    {
      "inputs": [],
      "name": "owner",
      "outputs": [
        {
          "internalType": "address",
          "name": "",
          "type": "address"
        }
      ],
      "stateMutability": "view",
      "type": "function"
    },
    {
      "inputs": [
        {
          "internalType": "address",
          "name": "hNFTContractAddr",
          "type": "address"
        },
        {
          "internalType": "uint256",
          "name": "hNFTId",
          "type": "uint256"
        }
      ],
      "name": "preBid",
      "outputs": [],
      "stateMutability": "nonpayable",
      "type": "function"
    },
    {
      "inputs": [
        {
          "internalType": "address",
          "name": "",
          "type": "address"
        },
        {
          "internalType": "uint256",
          "name": "",
          "type": "uint256"
        }
      ],
      "name": "preBids",
      "outputs": [
        {
          "internalType": "uint256",
          "name": "bidId",
          "type": "uint256"
        },
        {
          "internalType": "uint256",
          "name": "amount",
          "type": "uint256"
        },
        {
          "internalType": "address",
          "name": "bidder",
          "type": "address"
        },
        {
          "internalType": "uint256",
          "name": "preBidTime",
          "type": "uint256"
        }
      ],
      "stateMutability": "view",
      "type": "function"
    },
    {
      "inputs": [
        {
          "internalType": "uint256",
          "name": "hnftId",
          "type": "uint256"
        },
        {
          "internalType": "address",
          "name": "hNFTContractAddr",
          "type": "address"
        },
        {
          "internalType": "address",
          "name": "governanceTokenAddress",
          "type": "address"
        },
        {
          "internalType": "uint256",
          "name": "governanceTokenAmount",
          "type": "uint256"
        },
        {
          "internalType": "uint256",
          "name": "curBidId",
          "type": "uint256"
        },
        {
          "internalType": "uint256",
          "name": "preBidId",
          "type": "uint256"
        },
        {
          "internalType": "bytes",
          "name": "_signature",
          "type": "bytes"
        }
      ],
      "name": "recover",
      "outputs": [
        {
          "internalType": "address",
          "name": "",
          "type": "address"
        }
      ],
      "stateMutability": "pure",
      "type": "function"
    },
    {
      "inputs": [],
      "name": "renounceOwnership",
      "outputs": [],
      "stateMutability": "nonpayable",
      "type": "function"
    },
    {
      "inputs": [
        {
          "internalType": "uint256",
          "name": "_MIN_DEPOIST_FOR_PRE_BID",
          "type": "uint256"
        }
      ],
      "name": "setMinDepositForPreBid",
      "outputs": [],
      "stateMutability": "nonpayable",
      "type": "function"
    },
    {
      "inputs": [
        {
          "internalType": "address",
          "name": "_relayerAddress",
          "type": "address"
        }
      ],
      "name": "setRelayerAddress",
      "outputs": [],
      "stateMutability": "nonpayable",
      "type": "function"
    },
    {
      "inputs": [
        {
          "internalType": "address",
          "name": "newOwner",
          "type": "address"
        }
      ],
      "name": "transferOwnership",
      "outputs": [],
      "stateMutability": "nonpayable",
      "type": "function"
    }
  ],
  "bytecode": "0x608060405234801561001057600080fd5b50612ca9806100206000396000f3fe608060405234801561001057600080fd5b50600436106100df5760003560e01c80639c2dadc91161008c578063c0c53b8b11610066578063c0c53b8b14610245578063d384a0d714610258578063e61774bb1461026b578063f2fde38b1461027e57600080fd5b80639c2dadc9146102045780639f757e9c1461020c578063aeb848041461022f57600080fd5b8063715018a6116100bd578063715018a6146101aa57806372ca1921146101b25780638da5cb5b146101c557600080fd5b80632d0d4dc3146100e4578063375473f2146100f95780636670be9f1461010c575b600080fd5b6100f76100f236600461286d565b610291565b005b6100f76101073660046128b8565b61096e565b61016561011a36600461286d565b606960209081526000928352604080842090915290825290208054600182015460028301546003909301549192909173ffffffffffffffffffffffffffffffffffffffff9091169084565b6040516101a19493929190938452602084019290925273ffffffffffffffffffffffffffffffffffffffff166040830152606082015260800190565b60405180910390f35b6100f7611334565b6100f76101c0366004612974565b611348565b60335473ffffffffffffffffffffffffffffffffffffffff165b60405173ffffffffffffffffffffffffffffffffffffffff90911681526020016101a1565b6101df611355565b61021f61021a36600461286d565b61137c565b6040516101a19493929190612ab5565b610237611451565b6040519081526020016101a1565b6100f7610253366004612823565b611462565b6100f76102663660046127eb565b611664565b6101df6102793660046129a4565b6116b3565b6100f761028c3660046127eb565b611782565b60008111610300576040517f08c379a000000000000000000000000000000000000000000000000000000000815260206004820152601e60248201527f684e46544964206d7573742062652067726561746572207468616e20302e000060448201526064015b60405180910390fd5b606b5473ffffffffffffffffffffffffffffffffffffffff8316600090815260696020908152604080832085845290915290206003015461034091611839565b4210156103cf576040517f08c379a000000000000000000000000000000000000000000000000000000000815260206004820152602760248201527f4c61737420707265426964207374696c6c2077697468696e207468652076616c60448201527f69642074696d650000000000000000000000000000000000000000000000000060648201526084016102f7565b6040517f081812fc000000000000000000000000000000000000000000000000000000008152600481018290528290309073ffffffffffffffffffffffffffffffffffffffff83169063081812fc9060240160206040518083038186803b15801561043957600080fd5b505afa15801561044d573d6000803e3d6000fd5b505050506040513d601f19601f820116820180604052508101906104719190612807565b73ffffffffffffffffffffffffffffffffffffffff16146104ee576040517f08c379a000000000000000000000000000000000000000000000000000000000815260206004820152601760248201527f684e4654496420646f6573206e6f7420617070726f766500000000000000000060448201526064016102f7565b606654606a5473ffffffffffffffffffffffffffffffffffffffff90911690816370a08231336040517fffffffff0000000000000000000000000000000000000000000000000000000060e084901b16815273ffffffffffffffffffffffffffffffffffffffff909116600482015260240160206040518083038186803b15801561057857600080fd5b505afa15801561058c573d6000803e3d6000fd5b505050506040513d601f19601f820116820180604052508101906105b0919061298c565b1015610618576040517f08c379a000000000000000000000000000000000000000000000000000000000815260206004820152601660248201527f4144332062616c616e6365206e6f7420656e6f7567680000000000000000000060448201526064016102f7565b606a5473ffffffffffffffffffffffffffffffffffffffff821663dd62ed3e336040517fffffffff0000000000000000000000000000000000000000000000000000000060e084901b16815273ffffffffffffffffffffffffffffffffffffffff909116600482015230602482015260440160206040518083038186803b1580156106a257600080fd5b505afa1580156106b6573d6000803e3d6000fd5b505050506040513d601f19601f820116820180604052508101906106da919061298c565b1015610742576040517f08c379a000000000000000000000000000000000000000000000000000000000815260206004820152601460248201527f616c6c6f77616e6365206e6f7420656e6f75676800000000000000000000000060448201526064016102f7565b73ffffffffffffffffffffffffffffffffffffffff81166323b872dd33606a546040517fffffffff0000000000000000000000000000000000000000000000000000000060e085901b16815273ffffffffffffffffffffffffffffffffffffffff90921660048301523060248301526044820152606401602060405180830381600087803b1580156107d357600080fd5b505af11580156107e7573d6000803e3d6000fd5b505050506040513d601f19601f8201168201806040525081019061080b9190612898565b50600061081661184c565b90506040518060800160405280828152602001606a5481526020016108383390565b73ffffffffffffffffffffffffffffffffffffffff90811682524260209283015287811660008181526069845260408082208a8352855280822086518155868601516001820155868201516002820180547fffffffffffffffffffffffff0000000000000000000000000000000000000000169190961617909455606090950151600390930192909255815260688252828120878252909152908120546108e0576000610912565b73ffffffffffffffffffffffffffffffffffffffff861660009081526068602090815260408083208884529091529020545b6040805173ffffffffffffffffffffffffffffffffffffffff891681523360208201528151929350849284927f2c598142ad1052e146a64c383865c59e98e988c115199845e744cac8a9977b1d928290030190a3505050505050565b86516109d6576040517f08c379a000000000000000000000000000000000000000000000000000000000815260206004820152601e60248201527f684e46544964206d7573742062652067726561746572207468616e20302e000060448201526064016102f7565b60008611610a66576040517f08c379a000000000000000000000000000000000000000000000000000000000815260206004820152602260248201527f42696420616d6f756e74206d7573742062652067726561746572207468616e2060448201527f302e00000000000000000000000000000000000000000000000000000000000060648201526084016102f7565b602087015173ffffffffffffffffffffffffffffffffffffffff16610b0d576040517f08c379a000000000000000000000000000000000000000000000000000000000815260206004820152603760248201527f54686520684e465420616e6420676f7665726e616e636520636f6e747261637460448201527f2063616e206e6f7420626520616464726573732830292e00000000000000000060648201526084016102f7565b60208088015173ffffffffffffffffffffffffffffffffffffffff1660009081526068825260408082208a51835290925220548314610ba8576040517f08c379a000000000000000000000000000000000000000000000000000000000815260206004820152601060248201527f496e76616c69642063757242696449640000000000000000000000000000000060448201526064016102f7565b60208088015173ffffffffffffffffffffffffffffffffffffffff1660009081526069825260408082208a51835290925220548214610c43576040517f08c379a000000000000000000000000000000000000000000000000000000000815260206004820152601060248201527f496e76616c69642070726542696449640000000000000000000000000000000060448201526064016102f7565b606754602088015188516040517fec4156f900000000000000000000000000000000000000000000000000000000815260009373ffffffffffffffffffffffffffffffffffffffff169263ec4156f992610cc09260040173ffffffffffffffffffffffffffffffffffffffff929092168252602082015260400190565b60206040518083038186803b158015610cd857600080fd5b505afa158015610cec573d6000803e3d6000fd5b505050506040513d601f19601f82011682018060405250810190610d109190612807565b6020890151909150600073ffffffffffffffffffffffffffffffffffffffff831615610d3c5782610d56565b60665473ffffffffffffffffffffffffffffffffffffffff165b90508873ffffffffffffffffffffffffffffffffffffffff82166370a08231336040517fffffffff0000000000000000000000000000000000000000000000000000000060e084901b16815273ffffffffffffffffffffffffffffffffffffffff909116600482015260240160206040518083038186803b158015610dda57600080fd5b505afa158015610dee573d6000803e3d6000fd5b505050506040513d601f19601f82011682018060405250810190610e12919061298c565b1015610e7a576040517f08c379a000000000000000000000000000000000000000000000000000000000815260206004820152601260248201527f62616c616e6365206e6f7420656e6f756768000000000000000000000000000060448201526064016102f7565b8873ffffffffffffffffffffffffffffffffffffffff821663dd62ed3e336040517fffffffff0000000000000000000000000000000000000000000000000000000060e084901b16815273ffffffffffffffffffffffffffffffffffffffff909116600482015230602482015260440160206040518083038186803b158015610f0257600080fd5b505afa158015610f16573d6000803e3d6000fd5b505050506040513d601f19601f82011682018060405250810190610f3a919061298c565b1015610fa2576040517f08c379a000000000000000000000000000000000000000000000000000000000815260206004820152601460248201527f616c6c6f77616e6365206e6f7420656e6f75676800000000000000000000000060448201526064016102f7565b6000610fbb8b600001518c60200151848d8b8b8e6116b3565b9050610fe28160655473ffffffffffffffffffffffffffffffffffffffff91821691161490565b611048576040517f08c379a000000000000000000000000000000000000000000000000000000000815260206004820152600f60248201527f496e76616c6964205369676e657221000000000000000000000000000000000060448201526064016102f7565b6020808c015173ffffffffffffffffffffffffffffffffffffffff1660009081526068825260408082208e5183529092522060010154611088908b6118dd565b6110ee576040517f08c379a000000000000000000000000000000000000000000000000000000000815260206004820152601960248201527f54686520626964206973206c657373207468616e20313230250000000000000060448201526064016102f7565b60208b81015173ffffffffffffffffffffffffffffffffffffffff90811660009081526069835260408082208f5183529093529190912060020154163314611192576040517f08c379a000000000000000000000000000000000000000000000000000000000815260206004820152601460248201527f4e6f742074686520707265426964206f776e657200000000000000000000000060448201526064016102f7565b6111a4828b858e600001518d8a611901565b6111b88b602001518c600001518488611bca565b60405180608001604052808781526020018b81526020016111d63390565b73ffffffffffffffffffffffffffffffffffffffff1681526020018a815250606860008d6020015173ffffffffffffffffffffffffffffffffffffffff1673ffffffffffffffffffffffffffffffffffffffff16815260200190815260200160002060008d600001518152602001908152602001600020600082015181600001556020820151816001015560408201518160020160006101000a81548173ffffffffffffffffffffffffffffffffffffffff021916908373ffffffffffffffffffffffffffffffffffffffff16021790555060608201518160030190805190602001906112c49291906126ad565b5090505085877fc9e5510bc862c77b13a2965048f9060e72fccccc0951199db471ae34b03b0ca18d602001516112f73390565b6040805173ffffffffffffffffffffffffffffffffffffffff93841681529290911660208301520160405180910390a35050505050505050505050565b61133c611f38565b6113466000611fb9565b565b611350611f38565b606a55565b600061135f611f38565b5060655473ffffffffffffffffffffffffffffffffffffffff1690565b606860209081526000928352604080842090915290825290208054600182015460028301546003840180549394929373ffffffffffffffffffffffffffffffffffffffff90921692916113ce90612bc8565b80601f01602080910402602001604051908101604052809291908181526020018280546113fa90612bc8565b80156114475780601f1061141c57610100808354040283529160200191611447565b820191906000526020600020905b81548152906001019060200180831161142a57829003601f168201915b5050505050905084565b600061145b611f38565b50606a5490565b600054610100900460ff16158080156114825750600054600160ff909116105b8061149c5750303b15801561149c575060005460ff166001145b611528576040517f08c379a000000000000000000000000000000000000000000000000000000000815260206004820152602e60248201527f496e697469616c697a61626c653a20636f6e747261637420697320616c72656160448201527f647920696e697469616c697a656400000000000000000000000000000000000060648201526084016102f7565b600080547fffffffffffffffffffffffffffffffffffffffffffffffffffffffffffffff00166001179055801561158657600080547fffffffffffffffffffffffffffffffffffffffffffffffffffffffffffff00ff166101001790555b61158e612030565b6065805473ffffffffffffffffffffffffffffffffffffffff8087167fffffffffffffffffffffffff000000000000000000000000000000000000000092831617909255606680548684169083161790556067805492851692909116919091179055600a606a55610258606b55801561165e57600080547fffffffffffffffffffffffffffffffffffffffffffffffffffffffffffff00ff169055604051600181527f7f26b83ff96e1f2b6a682f133852f6798a09c465da95921460cefb38474024989060200160405180910390a15b50505050565b61166c611f38565b606580547fffffffffffffffffffffffff00000000000000000000000000000000000000001673ffffffffffffffffffffffffffffffffffffffff92909216919091179055565b6040805160208082018a90527fffffffffffffffffffffffffffffffffffffffff00000000000000000000000060608a811b82168486015289901b166054830152606882018790526088820186905260a88083018690528351808403909101815260c8830184528051908201207f19457468657265756d205369676e6564204d6573736167653a0a33320000000060e88401526101048084019190915283518084039091018152610124909201909252805191012060009061177581846120cf565b9998505050505050505050565b61178a611f38565b73ffffffffffffffffffffffffffffffffffffffff811661182d576040517f08c379a000000000000000000000000000000000000000000000000000000000815260206004820152602660248201527f4f776e61626c653a206e6577206f776e657220697320746865207a65726f206160448201527f646472657373000000000000000000000000000000000000000000000000000060648201526084016102f7565b61183681611fb9565b50565b60006118458284612b23565b9392505050565b6000804340905060008142416040516020016118a093929190928352602083019190915260601b7fffffffffffffffffffffffffffffffffffffffff00000000000000000000000016604082015260540190565b604080517fffffffffffffffffffffffffffffffffffffffffffffffffffffffffffffffe081840301815291905280516020909101209392505050565b6000806118f6600a6118f086600c6120f3565b906120ff565b909210159392505050565b73ffffffffffffffffffffffffffffffffffffffff86166323b872dd336040517fffffffff0000000000000000000000000000000000000000000000000000000060e084901b16815273ffffffffffffffffffffffffffffffffffffffff909116600482015230602482015260448101889052606401602060405180830381600087803b15801561199157600080fd5b505af11580156119a5573d6000803e3d6000fd5b505050506040513d601f19601f820116820180604052508101906119c99190612898565b5060006119d6868361210b565b6065546040517fdd62ed3e00000000000000000000000000000000000000000000000000000000815230600482015273ffffffffffffffffffffffffffffffffffffffff918216602482018190529293509089169163095ea7b391611a9790849063dd62ed3e9060440160206040518083038186803b158015611a5857600080fd5b505afa158015611a6c573d6000803e3d6000fd5b505050506040513d601f19601f82011682018060405250810190611a90919061298c565b8590611839565b6040517fffffffff0000000000000000000000000000000000000000000000000000000060e085901b16815273ffffffffffffffffffffffffffffffffffffffff90921660048301526024820152604401602060405180830381600087803b158015611b0257600080fd5b505af1158015611b16573d6000803e3d6000fd5b505050506040513d601f19601f82011682018060405250810190611b3a9190612898565b506040517fd0ade91b00000000000000000000000000000000000000000000000000000000815273ffffffffffffffffffffffffffffffffffffffff86169063d0ade91b90611b8f9087908790600401612a94565b600060405180830381600087803b158015611ba957600080fd5b505af1158015611bbd573d6000803e3d6000fd5b5050505050505050505050565b60665473ffffffffffffffffffffffffffffffffffffffff85811660009081526069602090815260408083208884529091528120600181018054838355908390556002820180547fffffffffffffffffffffffff00000000000000000000000000000000000000001690556003909101919091559116908163a9059cbb336040517fffffffff0000000000000000000000000000000000000000000000000000000060e084901b16815273ffffffffffffffffffffffffffffffffffffffff909116600482015260248101849052604401602060405180830381600087803b158015611cb557600080fd5b505af1158015611cc9573d6000803e3d6000fd5b505050506040513d601f19601f82011682018060405250810190611ced9190612898565b5073ffffffffffffffffffffffffffffffffffffffff8616600090815260686020908152604080832088845290915290206001015415611f305773ffffffffffffffffffffffffffffffffffffffff8087166000908152606860209081526040808320898452825280832081516080810183528154815260018201549381019390935260028101549094169082015260038301805492939192606084019190611d9590612bc8565b80601f0160208091040260200160405190810160405280929190818152602001828054611dc190612bc8565b8015611e0e5780601f10611de357610100808354040283529160200191611e0e565b820191906000526020600020905b815481529060010190602001808311611df157829003601f168201915b5050509190925250505060408082015190517fa9059cbb00000000000000000000000000000000000000000000000000000000815273ffffffffffffffffffffffffffffffffffffffff91821660048201526024810187905291925086169063a9059cbb90604401602060405180830381600087803b158015611e9057600080fd5b505af1158015611ea4573d6000803e3d6000fd5b505050506040513d601f19601f82011682018060405250810190611ec89190612898565b50805160408083015160208085015183519485529084018a905273ffffffffffffffffffffffffffffffffffffffff909116838301526060830152517f1482d6e51ee58f33a2f4cfa47ed508eb7fcc2889d5750d79c766f1fa394e74cd9181900360800190a1505b505050505050565b60335473ffffffffffffffffffffffffffffffffffffffff163314611346576040517f08c379a000000000000000000000000000000000000000000000000000000000815260206004820181905260248201527f4f776e61626c653a2063616c6c6572206973206e6f7420746865206f776e657260448201526064016102f7565b6033805473ffffffffffffffffffffffffffffffffffffffff8381167fffffffffffffffffffffffff0000000000000000000000000000000000000000831681179093556040519116919082907f8be0079c531659141344cd1fd0a4f28419497f9722a3daafe3b4186f6b6457e090600090a35050565b600054610100900460ff166120c7576040517f08c379a000000000000000000000000000000000000000000000000000000000815260206004820152602b60248201527f496e697469616c697a61626c653a20636f6e7472616374206973206e6f74206960448201527f6e697469616c697a696e6700000000000000000000000000000000000000000060648201526084016102f7565b611346612117565b60008060006120de85856121b7565b915091506120eb81612227565b509392505050565b60006118458284612b74565b60006118458284612b3b565b60006118458284612bb1565b600054610100900460ff166121ae576040517f08c379a000000000000000000000000000000000000000000000000000000000815260206004820152602b60248201527f496e697469616c697a61626c653a20636f6e7472616374206973206e6f74206960448201527f6e697469616c697a696e6700000000000000000000000000000000000000000060648201526084016102f7565b61134633611fb9565b6000808251604114156121ee5760208301516040840151606085015160001a6121e287828585612543565b94509450505050612220565b825160401415612218576020830151604084015161220d86838361265b565b935093505050612220565b506000905060025b9250929050565b6000816004811115612262577f4e487b7100000000000000000000000000000000000000000000000000000000600052602160045260246000fd5b141561226b5750565b60018160048111156122a6577f4e487b7100000000000000000000000000000000000000000000000000000000600052602160045260246000fd5b141561230e576040517f08c379a000000000000000000000000000000000000000000000000000000000815260206004820152601860248201527f45434453413a20696e76616c6964207369676e6174757265000000000000000060448201526064016102f7565b6002816004811115612349577f4e487b7100000000000000000000000000000000000000000000000000000000600052602160045260246000fd5b14156123b1576040517f08c379a000000000000000000000000000000000000000000000000000000000815260206004820152601f60248201527f45434453413a20696e76616c6964207369676e6174757265206c656e6774680060448201526064016102f7565b60038160048111156123ec577f4e487b7100000000000000000000000000000000000000000000000000000000600052602160045260246000fd5b141561247a576040517f08c379a000000000000000000000000000000000000000000000000000000000815260206004820152602260248201527f45434453413a20696e76616c6964207369676e6174757265202773272076616c60448201527f756500000000000000000000000000000000000000000000000000000000000060648201526084016102f7565b60048160048111156124b5577f4e487b7100000000000000000000000000000000000000000000000000000000600052602160045260246000fd5b1415611836576040517f08c379a000000000000000000000000000000000000000000000000000000000815260206004820152602260248201527f45434453413a20696e76616c6964207369676e6174757265202776272076616c60448201527f756500000000000000000000000000000000000000000000000000000000000060648201526084016102f7565b6000807f7fffffffffffffffffffffffffffffff5d576e7357a4501ddfe92f46681b20a083111561257a5750600090506003612652565b8460ff16601b1415801561259257508460ff16601c14155b156125a35750600090506004612652565b6040805160008082526020820180845289905260ff881692820192909252606081018690526080810185905260019060a0016020604051602081039080840390855afa1580156125f7573d6000803e3d6000fd5b50506040517fffffffffffffffffffffffffffffffffffffffffffffffffffffffffffffffe0015191505073ffffffffffffffffffffffffffffffffffffffff811661264b57600060019250925050612652565b9150600090505b94509492505050565b6000807f7fffffffffffffffffffffffffffffffffffffffffffffffffffffffffffffff83168161269160ff86901c601b612b23565b905061269f87828885612543565b935093505050935093915050565b8280546126b990612bc8565b90600052602060002090601f0160209004810192826126db5760008555612721565b82601f106126f457805160ff1916838001178555612721565b82800160010185558215612721579182015b82811115612721578251825591602001919060010190612706565b5061272d929150612731565b5090565b5b8082111561272d5760008155600101612732565b600082601f830112612756578081fd5b813567ffffffffffffffff8082111561277157612771612c4b565b604051601f83017fffffffffffffffffffffffffffffffffffffffffffffffffffffffffffffffe0908116603f011681019082821181831017156127b7576127b7612c4b565b816040528381528660208588010111156127cf578485fd5b8360208701602083013792830160200193909352509392505050565b6000602082840312156127fc578081fd5b813561184581612c7a565b600060208284031215612818578081fd5b815161184581612c7a565b600080600060608486031215612837578182fd5b833561284281612c7a565b9250602084013561285281612c7a565b9150604084013561286281612c7a565b809150509250925092565b6000806040838503121561287f578182fd5b823561288a81612c7a565b946020939093013593505050565b6000602082840312156128a9578081fd5b81518015158114611845578182fd5b60008060008060008060008789036101008112156128d4578384fd5b60408112156128e1578384fd5b506128ea612afa565b8835815260208901356128fc81612c7a565b6020820152965060408801359550606088013567ffffffffffffffff80821115612924578485fd5b6129308b838c01612746565b965060808a0135915080821115612945578485fd5b506129528a828b01612746565b979a969950949760a08101359660c0820135965060e090910135945092505050565b600060208284031215612985578081fd5b5035919050565b60006020828403121561299d578081fd5b5051919050565b600080600080600080600060e0888a0312156129be578283fd5b8735965060208801356129d081612c7a565b955060408801356129e081612c7a565b9450606088013593506080880135925060a0880135915060c088013567ffffffffffffffff811115612a10578182fd5b612a1c8a828b01612746565b91505092959891949750929550565b60008151808452815b81811015612a5057602081850181015186830182015201612a34565b81811115612a615782602083870101525b50601f017fffffffffffffffffffffffffffffffffffffffffffffffffffffffffffffffe0169290920160200192915050565b828152604060208201526000612aad6040830184612a2b565b949350505050565b84815283602082015273ffffffffffffffffffffffffffffffffffffffff83166040820152608060608201526000612af06080830184612a2b565b9695505050505050565b6040805190810167ffffffffffffffff81118282101715612b1d57612b1d612c4b565b60405290565b60008219821115612b3657612b36612c1c565b500190565b600082612b6f577f4e487b710000000000000000000000000000000000000000000000000000000081526012600452602481fd5b500490565b6000817fffffffffffffffffffffffffffffffffffffffffffffffffffffffffffffffff0483118215151615612bac57612bac612c1c565b500290565b600082821015612bc357612bc3612c1c565b500390565b600181811c90821680612bdc57607f821691505b60208210811415612c16577f4e487b7100000000000000000000000000000000000000000000000000000000600052602260045260246000fd5b50919050565b7f4e487b7100000000000000000000000000000000000000000000000000000000600052601160045260246000fd5b7f4e487b7100000000000000000000000000000000000000000000000000000000600052604160045260246000fd5b73ffffffffffffffffffffffffffffffffffffffff8116811461183657600080fdfea164736f6c6343000804000a",
  "linkReferences": {},
  "deployedLinkReferences": {}
}