{
  "_format": "hh-sol-artifact-1",
  "contractName": "Auction",
  "sourceName": "contracts/influencemining/Auction.sol",
  "abi": [
    {
      "anonymous": false,
      "inputs": [
        {
          "indexed": false,
          "internalType": "address",
          "name": "hNFTContractAddr",
          "type": "address"
        },
        {
          "indexed": true,
          "internalType": "uint256",
          "name": "curBidId",
          "type": "uint256"
        },
        {
          "indexed": true,
          "internalType": "uint256",
          "name": "preBidId",
          "type": "uint256"
        },
        {
          "indexed": false,
          "internalType": "address",
          "name": "bidder",
          "type": "address"
        }
      ],
      "name": "BidCommitted",
      "type": "event"
    },
    {
      "anonymous": false,
      "inputs": [
        {
          "indexed": false,
          "internalType": "address",
          "name": "hNFTContractAddr",
          "type": "address"
        },
        {
          "indexed": true,
          "internalType": "uint256",
          "name": "curBidId",
          "type": "uint256"
        },
        {
          "indexed": true,
          "internalType": "uint256",
          "name": "preBidId",
          "type": "uint256"
        },
        {
          "indexed": false,
          "internalType": "address",
          "name": "bidder",
          "type": "address"
        },
        {
          "indexed": false,
          "internalType": "address",
          "name": "goverAddr",
          "type": "address"
        }
      ],
      "name": "BidPrepared",
      "type": "event"
    },
    {
      "anonymous": false,
      "inputs": [
        {
          "indexed": false,
          "internalType": "uint256",
          "name": "bidId",
          "type": "uint256"
        },
        {
          "indexed": false,
          "internalType": "uint256",
          "name": "hNFTId",
          "type": "uint256"
        },
        {
          "indexed": false,
          "internalType": "address",
          "name": "to",
          "type": "address"
        },
        {
          "indexed": false,
          "internalType": "uint256",
          "name": "amount",
          "type": "uint256"
        }
      ],
      "name": "BidRefunded",
      "type": "event"
    },
    {
      "anonymous": false,
      "inputs": [
        {
          "indexed": false,
          "internalType": "uint8",
          "name": "version",
          "type": "uint8"
        }
      ],
      "name": "Initialized",
      "type": "event"
    },
    {
      "anonymous": false,
      "inputs": [
        {
          "indexed": true,
          "internalType": "address",
          "name": "previousOwner",
          "type": "address"
        },
        {
          "indexed": true,
          "internalType": "address",
          "name": "newOwner",
          "type": "address"
        }
      ],
      "name": "OwnershipTransferred",
      "type": "event"
    },
    {
      "inputs": [
        {
          "components": [
            {
              "internalType": "uint256",
              "name": "hNFTId",
              "type": "uint256"
            },
            {
              "internalType": "address",
              "name": "hNFTContractAddr",
              "type": "address"
            }
          ],
          "internalType": "struct Auction.HNFTInfo",
          "name": "hNFTInfo",
          "type": "tuple"
        },
        {
          "internalType": "uint256",
          "name": "governanceTokenAmount",
          "type": "uint256"
        },
        {
          "internalType": "string",
          "name": "slotUri",
          "type": "string"
        },
        {
          "internalType": "bytes",
          "name": "_signature",
          "type": "bytes"
        },
        {
          "internalType": "uint256",
          "name": "curBidId",
          "type": "uint256"
        },
        {
          "internalType": "uint256",
          "name": "preBidId",
          "type": "uint256"
        },
        {
          "internalType": "uint256",
          "name": "curBidRemain",
          "type": "uint256"
        }
      ],
      "name": "commitBid",
      "outputs": [],
      "stateMutability": "nonpayable",
      "type": "function"
    },
    {
      "inputs": [
        {
          "internalType": "address",
          "name": "",
          "type": "address"
        },
        {
          "internalType": "uint256",
          "name": "",
          "type": "uint256"
        }
      ],
      "name": "curBid",
      "outputs": [
        {
          "internalType": "uint256",
          "name": "bidId",
          "type": "uint256"
        },
        {
          "internalType": "uint256",
          "name": "amount",
          "type": "uint256"
        },
        {
          "internalType": "address",
          "name": "bidder",
          "type": "address"
        },
        {
          "internalType": "string",
          "name": "slotUri",
          "type": "string"
        },
        {
          "internalType": "address",
          "name": "governanceTokenAddr",
          "type": "address"
        }
      ],
      "stateMutability": "view",
      "type": "function"
    },
    {
      "inputs": [],
      "name": "getMinDepositForPreBid",
      "outputs": [
        {
          "internalType": "uint256",
          "name": "",
          "type": "uint256"
        }
      ],
      "stateMutability": "view",
      "type": "function"
    },
    {
      "inputs": [
        {
          "internalType": "address",
          "name": "hNFTAddr",
          "type": "address"
        },
        {
          "internalType": "uint256",
          "name": "hNFTId",
          "type": "uint256"
        }
      ],
      "name": "getPrepareBidInfo",
      "outputs": [
        {
          "components": [
            {
              "internalType": "uint256",
              "name": "bidId",
              "type": "uint256"
            },
            {
              "internalType": "uint256",
              "name": "amount",
              "type": "uint256"
            },
            {
              "internalType": "address",
              "name": "bidder",
              "type": "address"
            },
            {
              "internalType": "uint256",
              "name": "preBidTime",
              "type": "uint256"
            },
            {
              "internalType": "address",
              "name": "governanceTokenAddr",
              "type": "address"
            },
            {
              "internalType": "uint256",
              "name": "curBidId",
              "type": "uint256"
            }
          ],
          "internalType": "struct Auction.PrepareBidInfo",
          "name": "",
          "type": "tuple"
        }
      ],
      "stateMutability": "view",
      "type": "function"
    },
    {
      "inputs": [],
      "name": "getRelayerAddress",
      "outputs": [
        {
          "internalType": "address",
          "name": "",
          "type": "address"
        }
      ],
      "stateMutability": "view",
      "type": "function"
    },
    {
      "inputs": [
        {
          "internalType": "address",
          "name": "_relayerAddress",
          "type": "address"
        },
        {
          "internalType": "address",
          "name": "_ad3Address",
          "type": "address"
        },
        {
          "internalType": "address",
          "name": "_hnftGoverAddress",
          "type": "address"
        }
      ],
      "name": "initialize",
      "outputs": [],
      "stateMutability": "nonpayable",
      "type": "function"
    },
    {
      "inputs": [],
      "name": "owner",
      "outputs": [
        {
          "internalType": "address",
          "name": "",
          "type": "address"
        }
      ],
      "stateMutability": "view",
      "type": "function"
    },
    {
      "inputs": [
        {
          "internalType": "address",
          "name": "hNFTContractAddr",
          "type": "address"
        },
        {
          "internalType": "uint256",
          "name": "hNFTId",
          "type": "uint256"
        }
      ],
      "name": "preBid",
      "outputs": [],
      "stateMutability": "nonpayable",
      "type": "function"
    },
    {
      "inputs": [
        {
          "internalType": "address",
          "name": "",
          "type": "address"
        },
        {
          "internalType": "uint256",
          "name": "",
          "type": "uint256"
        }
      ],
      "name": "preBids",
      "outputs": [
        {
          "internalType": "uint256",
          "name": "bidId",
          "type": "uint256"
        },
        {
          "internalType": "uint256",
          "name": "amount",
          "type": "uint256"
        },
        {
          "internalType": "address",
          "name": "bidder",
          "type": "address"
        },
        {
          "internalType": "uint256",
          "name": "preBidTime",
          "type": "uint256"
        },
        {
          "internalType": "address",
          "name": "governanceTokenAddr",
          "type": "address"
        }
      ],
      "stateMutability": "view",
      "type": "function"
    },
    {
      "inputs": [
        {
          "internalType": "uint256",
          "name": "hnftId",
          "type": "uint256"
        },
        {
          "internalType": "address",
          "name": "hNFTContractAddr",
          "type": "address"
        },
        {
          "internalType": "address",
          "name": "governanceTokenAddress",
          "type": "address"
        },
        {
          "internalType": "uint256",
          "name": "governanceTokenAmount",
          "type": "uint256"
        },
        {
          "internalType": "uint256",
          "name": "curBidId",
          "type": "uint256"
        },
        {
          "internalType": "uint256",
          "name": "preBidId",
          "type": "uint256"
        },
        {
          "internalType": "bytes",
          "name": "_signature",
          "type": "bytes"
        }
      ],
      "name": "recover",
      "outputs": [
        {
          "internalType": "address",
          "name": "",
          "type": "address"
        }
      ],
      "stateMutability": "pure",
      "type": "function"
    },
    {
      "inputs": [],
      "name": "renounceOwnership",
      "outputs": [],
      "stateMutability": "nonpayable",
      "type": "function"
    },
    {
      "inputs": [
        {
          "internalType": "uint256",
          "name": "_MIN_DEPOIST_FOR_PRE_BID",
          "type": "uint256"
        }
      ],
      "name": "setMinDepositForPreBid",
      "outputs": [],
      "stateMutability": "nonpayable",
      "type": "function"
    },
    {
      "inputs": [
        {
          "internalType": "address",
          "name": "_relayerAddress",
          "type": "address"
        }
      ],
      "name": "setRelayerAddress",
      "outputs": [],
      "stateMutability": "nonpayable",
      "type": "function"
    },
    {
      "inputs": [
        {
          "internalType": "address",
          "name": "newOwner",
          "type": "address"
        }
      ],
      "name": "transferOwnership",
      "outputs": [],
      "stateMutability": "nonpayable",
      "type": "function"
    }
  ],
  "bytecode": "0x608060405234801561001057600080fd5b50612ed7806100206000396000f3fe608060405234801561001057600080fd5b50600436106100ea5760003560e01c80639f757e9c1161008c578063d384a0d711610066578063d384a0d71461026c578063e61774bb1461027f578063e9b83ac814610292578063f2fde38b1461030d57600080fd5b80639f757e9c1461021f578063aeb8480414610243578063c0c53b8b1461025957600080fd5b8063715018a6116100c8578063715018a6146101bd57806372ca1921146101c55780638da5cb5b146101d85780639c2dadc91461021757600080fd5b80632d0d4dc3146100ef578063375473f2146101045780636670be9f14610117575b600080fd5b6101026100fd366004612a8f565b610320565b005b610102610112366004612ada565b610b27565b610177610125366004612a8f565b6069602090815260009283526040808420909152908252902080546001820154600283015460038401546004909401549293919273ffffffffffffffffffffffffffffffffffffffff91821692911685565b60408051958652602086019490945273ffffffffffffffffffffffffffffffffffffffff92831693850193909352606084015216608082015260a0015b60405180910390f35b6101026112ba565b6101026101d3366004612b96565b6112ce565b60335473ffffffffffffffffffffffffffffffffffffffff165b60405173ffffffffffffffffffffffffffffffffffffffff90911681526020016101b4565b6101f26112db565b61023261022d366004612a8f565b611302565b6040516101b4959493929190612cd7565b61024b6113f3565b6040519081526020016101b4565b610102610267366004612a45565b611404565b61010261027a366004612a0d565b611607565b6101f261028d366004612bc6565b611656565b6102a56102a0366004612a8f565b611725565b6040516101b49190600060c0820190508251825260208301516020830152604083015173ffffffffffffffffffffffffffffffffffffffff808216604085015260608501516060850152806080860151166080850152505060a083015160a083015292915050565b61010261031b366004612a0d565b61184b565b6000811161038f576040517f08c379a000000000000000000000000000000000000000000000000000000000815260206004820152601e60248201527f684e46544964206d7573742062652067726561746572207468616e20302e000060448201526064015b60405180910390fd5b606b5473ffffffffffffffffffffffffffffffffffffffff831660009081526069602090815260408083208584529091529020600301546103cf91611902565b42101561045e576040517f08c379a000000000000000000000000000000000000000000000000000000000815260206004820152602760248201527f4c61737420707265426964207374696c6c2077697468696e207468652076616c60448201527f69642074696d65000000000000000000000000000000000000000000000000006064820152608401610386565b6040517f21d68f8200000000000000000000000000000000000000000000000000000000815260048101829052306024820152829073ffffffffffffffffffffffffffffffffffffffff8216906321d68f829060440160206040518083038186803b1580156104cc57600080fd5b505afa1580156104e0573d6000803e3d6000fd5b505050506040513d601f19601f820116820180604052508101906105049190612aba565b610590576040517f08c379a000000000000000000000000000000000000000000000000000000000815260206004820152602360248201527f6e6f7420736c6f744d616e61676572206f7220686e66744964206e6f7420657860448201527f69737400000000000000000000000000000000000000000000000000000000006064820152608401610386565b606654606a5473ffffffffffffffffffffffffffffffffffffffff90911690816370a08231336040517fffffffff0000000000000000000000000000000000000000000000000000000060e084901b16815273ffffffffffffffffffffffffffffffffffffffff909116600482015260240160206040518083038186803b15801561061a57600080fd5b505afa15801561062e573d6000803e3d6000fd5b505050506040513d601f19601f820116820180604052508101906106529190612bae565b10156106ba576040517f08c379a000000000000000000000000000000000000000000000000000000000815260206004820152601660248201527f4144332062616c616e6365206e6f7420656e6f756768000000000000000000006044820152606401610386565b606a5473ffffffffffffffffffffffffffffffffffffffff821663dd62ed3e336040517fffffffff0000000000000000000000000000000000000000000000000000000060e084901b16815273ffffffffffffffffffffffffffffffffffffffff909116600482015230602482015260440160206040518083038186803b15801561074457600080fd5b505afa158015610758573d6000803e3d6000fd5b505050506040513d601f19601f8201168201806040525081019061077c9190612bae565b10156107e4576040517f08c379a000000000000000000000000000000000000000000000000000000000815260206004820152601460248201527f616c6c6f77616e6365206e6f7420656e6f7567680000000000000000000000006044820152606401610386565b73ffffffffffffffffffffffffffffffffffffffff81166323b872dd33606a546040517fffffffff0000000000000000000000000000000000000000000000000000000060e085901b16815273ffffffffffffffffffffffffffffffffffffffff90921660048301523060248301526044820152606401602060405180830381600087803b15801561087557600080fd5b505af1158015610889573d6000803e3d6000fd5b505050506040513d601f19601f820116820180604052508101906108ad9190612aba565b5060006108b8611915565b6067546040517fec4156f900000000000000000000000000000000000000000000000000000000815273ffffffffffffffffffffffffffffffffffffffff8881166004830152602482018890529293506000929091169063ec4156f99060440160206040518083038186803b15801561093057600080fd5b505afa158015610944573d6000803e3d6000fd5b505050506040513d601f19601f820116820180604052508101906109689190612a29565b905073ffffffffffffffffffffffffffffffffffffffff81161561098c57806109a6565b60665473ffffffffffffffffffffffffffffffffffffffff165b90506040518060a00160405280838152602001606a5481526020016109c83390565b73ffffffffffffffffffffffffffffffffffffffff9081168252426020808401919091528482166040938401528982166000818152606983528481208b8252835284812086518155868401516001820155868601516002820180549187167fffffffffffffffffffffffff0000000000000000000000000000000000000000928316179055606088015160038301556080909701516004909101805491909516961695909517909255908352606881528183208884529052812054610a8e576000610ac0565b73ffffffffffffffffffffffffffffffffffffffff871660009081526068602090815260408083208984529091529020545b6040805173ffffffffffffffffffffffffffffffffffffffff808b1682523360208301528516818301529051919250849183917fc399bb9aa0e229b2297769ecdb77954634f025283b2f5ff54a0a47026c021a32919081900360600190a350505050505050565b8651610b8f576040517f08c379a000000000000000000000000000000000000000000000000000000000815260206004820152601e60248201527f684e46544964206d7573742062652067726561746572207468616e20302e00006044820152606401610386565b60008611610c1f576040517f08c379a000000000000000000000000000000000000000000000000000000000815260206004820152602260248201527f42696420616d6f756e74206d7573742062652067726561746572207468616e2060448201527f302e0000000000000000000000000000000000000000000000000000000000006064820152608401610386565b602087015173ffffffffffffffffffffffffffffffffffffffff16610cc6576040517f08c379a000000000000000000000000000000000000000000000000000000000815260206004820152603760248201527f54686520684e465420616e6420676f7665726e616e636520636f6e747261637460448201527f2063616e206e6f7420626520616464726573732830292e0000000000000000006064820152608401610386565b60208088015173ffffffffffffffffffffffffffffffffffffffff1660009081526068825260408082208a51835290925220548314610d61576040517f08c379a000000000000000000000000000000000000000000000000000000000815260206004820152601060248201527f496e76616c6964206375724269644964000000000000000000000000000000006044820152606401610386565b60208088015173ffffffffffffffffffffffffffffffffffffffff1660009081526069825260408082208a51835290925220548214610dfc576040517f08c379a000000000000000000000000000000000000000000000000000000000815260206004820152601060248201527f496e76616c6964207072654269644964000000000000000000000000000000006044820152606401610386565b60208781015173ffffffffffffffffffffffffffffffffffffffff90811660009081526069835260408082208b51835290935291909120600401541686816370a08231336040517fffffffff0000000000000000000000000000000000000000000000000000000060e084901b16815273ffffffffffffffffffffffffffffffffffffffff909116600482015260240160206040518083038186803b158015610ea457600080fd5b505afa158015610eb8573d6000803e3d6000fd5b505050506040513d601f19601f82011682018060405250810190610edc9190612bae565b1015610f44576040517f08c379a000000000000000000000000000000000000000000000000000000000815260206004820152601260248201527f62616c616e6365206e6f7420656e6f75676800000000000000000000000000006044820152606401610386565b8673ffffffffffffffffffffffffffffffffffffffff821663dd62ed3e336040517fffffffff0000000000000000000000000000000000000000000000000000000060e084901b16815273ffffffffffffffffffffffffffffffffffffffff909116600482015230602482015260440160206040518083038186803b158015610fcc57600080fd5b505afa158015610fe0573d6000803e3d6000fd5b505050506040513d601f19601f820116820180604052508101906110049190612bae565b101561106c576040517f08c379a000000000000000000000000000000000000000000000000000000000815260206004820152601460248201527f616c6c6f77616e6365206e6f7420656e6f7567680000000000000000000000006044820152606401610386565b600061108589600001518a60200151848b89898c611656565b90506110ac8160655473ffffffffffffffffffffffffffffffffffffffff91821691161490565b611112576040517f08c379a000000000000000000000000000000000000000000000000000000000815260206004820152600f60248201527f496e76616c6964205369676e65722100000000000000000000000000000000006044820152606401610386565b61111c83896119a6565b611182576040517f08c379a000000000000000000000000000000000000000000000000000000000815260206004820152601960248201527f54686520626964206973206c657373207468616e2031323025000000000000006044820152606401610386565b60208981015173ffffffffffffffffffffffffffffffffffffffff90811660009081526069835260408082208d5183529093529190912060020154163314611226576040517f08c379a000000000000000000000000000000000000000000000000000000000815260206004820152601460248201527f4e6f742074686520707265426964206f776e65720000000000000000000000006044820152606401610386565b61123989602001518a60000151856119ca565b61125082898b602001518c600001518b888a611c54565b83857fc9e5510bc862c77b13a2965048f9060e72fccccc0951199db471ae34b03b0ca18b6020015161127f3390565b6040805173ffffffffffffffffffffffffffffffffffffffff93841681529290911660208301520160405180910390a3505050505050505050565b6112c261215a565b6112cc60006121db565b565b6112d661215a565b606a55565b60006112e561215a565b5060655473ffffffffffffffffffffffffffffffffffffffff1690565b606860209081526000928352604080842090915290825290208054600182015460028301546003840180549394929373ffffffffffffffffffffffffffffffffffffffff909216929161135490612df6565b80601f016020809104026020016040519081016040528092919081815260200182805461138090612df6565b80156113cd5780601f106113a2576101008083540402835291602001916113cd565b820191906000526020600020905b8154815290600101906020018083116113b057829003601f168201915b5050506004909301549192505073ffffffffffffffffffffffffffffffffffffffff1685565b60006113fd61215a565b50606a5490565b600054610100900460ff16158080156114245750600054600160ff909116105b8061143e5750303b15801561143e575060005460ff166001145b6114ca576040517f08c379a000000000000000000000000000000000000000000000000000000000815260206004820152602e60248201527f496e697469616c697a61626c653a20636f6e747261637420697320616c72656160448201527f647920696e697469616c697a65640000000000000000000000000000000000006064820152608401610386565b600080547fffffffffffffffffffffffffffffffffffffffffffffffffffffffffffffff00166001179055801561152857600080547fffffffffffffffffffffffffffffffffffffffffffffffffffffffffffff00ff166101001790555b611530612252565b6065805473ffffffffffffffffffffffffffffffffffffffff8087167fffffffffffffffffffffffff000000000000000000000000000000000000000092831617909255606680548684169083161790556067805492851692909116919091179055600a606a55610258606b55801561160157600080547fffffffffffffffffffffffffffffffffffffffffffffffffffffffffffff00ff169055604051600181527f7f26b83ff96e1f2b6a682f133852f6798a09c465da95921460cefb3847402498906020015b60405180910390a15b50505050565b61160f61215a565b606580547fffffffffffffffffffffffff00000000000000000000000000000000000000001673ffffffffffffffffffffffffffffffffffffffff92909216919091179055565b6040805160208082018a90527fffffffffffffffffffffffffffffffffffffffff00000000000000000000000060608a811b82168486015289901b166054830152606882018790526088820186905260a88083018690528351808403909101815260c8830184528051908201207f19457468657265756d205369676e6564204d6573736167653a0a33320000000060e88401526101048084019190915283518084039091018152610124909201909252805191012060009061171881846122f1565b9998505050505050505050565b61178a6040518060c001604052806000815260200160008152602001600073ffffffffffffffffffffffffffffffffffffffff16815260200160008152602001600073ffffffffffffffffffffffffffffffffffffffff168152602001600081525090565b5073ffffffffffffffffffffffffffffffffffffffff91821660008181526069602090815260408083208584528252808320815160a0808201845282548252600183015482860190815260028401548a16838601908152600385015460608086019182526004909601548c166080808701918252885160c081018a52965187529351868a015291518c168588015251948401949094529251909816918101919091529383526068825280832094835293905291909120549181019190915290565b61185361215a565b73ffffffffffffffffffffffffffffffffffffffff81166118f6576040517f08c379a000000000000000000000000000000000000000000000000000000000815260206004820152602660248201527f4f776e61626c653a206e6577206f776e657220697320746865207a65726f206160448201527f64647265737300000000000000000000000000000000000000000000000000006064820152608401610386565b6118ff816121db565b50565b600061190e8284612d51565b9392505050565b60008043409050600081424160405160200161196993929190928352602083019190915260601b7fffffffffffffffffffffffffffffffffffffffff00000000000000000000000016604082015260540190565b604080517fffffffffffffffffffffffffffffffffffffffffffffffffffffffffffffffe081840301815291905280516020909101209392505050565b6000806119bf600a6119b986600c612315565b90612321565b909210159392505050565b73ffffffffffffffffffffffffffffffffffffffff8316600090815260686020908152604080832085845290915290206001015415611c4f5773ffffffffffffffffffffffffffffffffffffffff80841660009081526068602090815260408083208684528252808320815160a0810183528154815260018201549381019390935260028101549094169082015260038301805492939192606084019190611a7190612df6565b80601f0160208091040260200160405190810160405280929190818152602001828054611a9d90612df6565b8015611aea5780601f10611abf57610100808354040283529160200191611aea565b820191906000526020600020905b815481529060010190602001808311611acd57829003601f168201915b505050918352505060049182015473ffffffffffffffffffffffffffffffffffffffff90811660209283015287811660009081526068835260408082208983529093528290208301548285015192517fa9059cbb000000000000000000000000000000000000000000000000000000008152949550169263a9059cbb92611b95929187910173ffffffffffffffffffffffffffffffffffffffff929092168252602082015260400190565b602060405180830381600087803b158015611baf57600080fd5b505af1158015611bc3573d6000803e3d6000fd5b505050506040513d601f19601f82011682018060405250810190611be79190612aba565b508051604080830151602080850151835194855290840187905273ffffffffffffffffffffffffffffffffffffffff9091169183019190915260608201527f1482d6e51ee58f33a2f4cfa47ed508eb7fcc2889d5750d79c766f1fa394e74cd906080016115f8565b505050565b60665473ffffffffffffffffffffffffffffffffffffffff86811660009081526069602090815260408083208984529091528120600181018054838355908390556002820180547fffffffffffffffffffffffff00000000000000000000000000000000000000009081169091556003830193909355600490910180549092169091559116908163a9059cbb336040517fffffffff0000000000000000000000000000000000000000000000000000000060e084901b16815273ffffffffffffffffffffffffffffffffffffffff909116600482015260248101849052604401602060405180830381600087803b158015611d4e57600080fd5b505af1158015611d62573d6000803e3d6000fd5b505050506040513d601f19601f82011682018060405250810190611d869190612aba565b5073ffffffffffffffffffffffffffffffffffffffff89166323b872dd336040517fffffffff0000000000000000000000000000000000000000000000000000000060e084901b16815273ffffffffffffffffffffffffffffffffffffffff9091166004820152306024820152604481018b9052606401602060405180830381600087803b158015611e1757600080fd5b505af1158015611e2b573d6000803e3d6000fd5b505050506040513d601f19601f82011682018060405250810190611e4f9190612aba565b506000611e5c898661232d565b6065546040517fdd62ed3e00000000000000000000000000000000000000000000000000000000815230600482015273ffffffffffffffffffffffffffffffffffffffff91821660248201819052929350908c169163095ea7b391611f1d90849063dd62ed3e9060440160206040518083038186803b158015611ede57600080fd5b505afa158015611ef2573d6000803e3d6000fd5b505050506040513d601f19601f82011682018060405250810190611f169190612bae565b8590611902565b6040517fffffffff0000000000000000000000000000000000000000000000000000000060e085901b16815273ffffffffffffffffffffffffffffffffffffffff90921660048301526024820152604401602060405180830381600087803b158015611f8857600080fd5b505af1158015611f9c573d6000803e3d6000fd5b505050506040513d601f19601f82011682018060405250810190611fc09190612aba565b506040517fd0ade91b00000000000000000000000000000000000000000000000000000000815273ffffffffffffffffffffffffffffffffffffffff89169063d0ade91b90612015908a908a90600401612cb6565b600060405180830381600087803b15801561202f57600080fd5b505af1158015612043573d6000803e3d6000fd5b505050506040518060a001604052808581526020018a81526020016120653390565b73ffffffffffffffffffffffffffffffffffffffff908116825260208083018a90528d82166040938401528b82166000908152606882528381208c8252825283902084518155848201516001820155928401516002840180547fffffffffffffffffffffffff0000000000000000000000000000000000000000169190931617909155606083015180516120ff92600385019201906128cf565b5060809190910151600490910180547fffffffffffffffffffffffff00000000000000000000000000000000000000001673ffffffffffffffffffffffffffffffffffffffff90921691909117905550505050505050505050565b60335473ffffffffffffffffffffffffffffffffffffffff1633146112cc576040517f08c379a000000000000000000000000000000000000000000000000000000000815260206004820181905260248201527f4f776e61626c653a2063616c6c6572206973206e6f7420746865206f776e65726044820152606401610386565b6033805473ffffffffffffffffffffffffffffffffffffffff8381167fffffffffffffffffffffffff0000000000000000000000000000000000000000831681179093556040519116919082907f8be0079c531659141344cd1fd0a4f28419497f9722a3daafe3b4186f6b6457e090600090a35050565b600054610100900460ff166122e9576040517f08c379a000000000000000000000000000000000000000000000000000000000815260206004820152602b60248201527f496e697469616c697a61626c653a20636f6e7472616374206973206e6f74206960448201527f6e697469616c697a696e670000000000000000000000000000000000000000006064820152608401610386565b6112cc612339565b600080600061230085856123d9565b9150915061230d81612449565b509392505050565b600061190e8284612da2565b600061190e8284612d69565b600061190e8284612ddf565b600054610100900460ff166123d0576040517f08c379a000000000000000000000000000000000000000000000000000000000815260206004820152602b60248201527f496e697469616c697a61626c653a20636f6e7472616374206973206e6f74206960448201527f6e697469616c697a696e670000000000000000000000000000000000000000006064820152608401610386565b6112cc336121db565b6000808251604114156124105760208301516040840151606085015160001a61240487828585612765565b94509450505050612442565b82516040141561243a576020830151604084015161242f86838361287d565b935093505050612442565b506000905060025b9250929050565b6000816004811115612484577f4e487b7100000000000000000000000000000000000000000000000000000000600052602160045260246000fd5b141561248d5750565b60018160048111156124c8577f4e487b7100000000000000000000000000000000000000000000000000000000600052602160045260246000fd5b1415612530576040517f08c379a000000000000000000000000000000000000000000000000000000000815260206004820152601860248201527f45434453413a20696e76616c6964207369676e617475726500000000000000006044820152606401610386565b600281600481111561256b577f4e487b7100000000000000000000000000000000000000000000000000000000600052602160045260246000fd5b14156125d3576040517f08c379a000000000000000000000000000000000000000000000000000000000815260206004820152601f60248201527f45434453413a20696e76616c6964207369676e6174757265206c656e677468006044820152606401610386565b600381600481111561260e577f4e487b7100000000000000000000000000000000000000000000000000000000600052602160045260246000fd5b141561269c576040517f08c379a000000000000000000000000000000000000000000000000000000000815260206004820152602260248201527f45434453413a20696e76616c6964207369676e6174757265202773272076616c60448201527f75650000000000000000000000000000000000000000000000000000000000006064820152608401610386565b60048160048111156126d7577f4e487b7100000000000000000000000000000000000000000000000000000000600052602160045260246000fd5b14156118ff576040517f08c379a000000000000000000000000000000000000000000000000000000000815260206004820152602260248201527f45434453413a20696e76616c6964207369676e6174757265202776272076616c60448201527f75650000000000000000000000000000000000000000000000000000000000006064820152608401610386565b6000807f7fffffffffffffffffffffffffffffff5d576e7357a4501ddfe92f46681b20a083111561279c5750600090506003612874565b8460ff16601b141580156127b457508460ff16601c14155b156127c55750600090506004612874565b6040805160008082526020820180845289905260ff881692820192909252606081018690526080810185905260019060a0016020604051602081039080840390855afa158015612819573d6000803e3d6000fd5b50506040517fffffffffffffffffffffffffffffffffffffffffffffffffffffffffffffffe0015191505073ffffffffffffffffffffffffffffffffffffffff811661286d57600060019250925050612874565b9150600090505b94509492505050565b6000807f7fffffffffffffffffffffffffffffffffffffffffffffffffffffffffffffff8316816128b360ff86901c601b612d51565b90506128c187828885612765565b935093505050935093915050565b8280546128db90612df6565b90600052602060002090601f0160209004810192826128fd5760008555612943565b82601f1061291657805160ff1916838001178555612943565b82800160010185558215612943579182015b82811115612943578251825591602001919060010190612928565b5061294f929150612953565b5090565b5b8082111561294f5760008155600101612954565b600082601f830112612978578081fd5b813567ffffffffffffffff8082111561299357612993612e79565b604051601f83017fffffffffffffffffffffffffffffffffffffffffffffffffffffffffffffffe0908116603f011681019082821181831017156129d9576129d9612e79565b816040528381528660208588010111156129f1578485fd5b8360208701602083013792830160200193909352509392505050565b600060208284031215612a1e578081fd5b813561190e81612ea8565b600060208284031215612a3a578081fd5b815161190e81612ea8565b600080600060608486031215612a59578182fd5b8335612a6481612ea8565b92506020840135612a7481612ea8565b91506040840135612a8481612ea8565b809150509250925092565b60008060408385031215612aa1578182fd5b8235612aac81612ea8565b946020939093013593505050565b600060208284031215612acb578081fd5b8151801515811461190e578182fd5b6000806000806000806000878903610100811215612af6578384fd5b6040811215612b03578384fd5b50612b0c612d28565b883581526020890135612b1e81612ea8565b6020820152965060408801359550606088013567ffffffffffffffff80821115612b46578485fd5b612b528b838c01612968565b965060808a0135915080821115612b67578485fd5b50612b748a828b01612968565b979a969950949760a08101359660c0820135965060e090910135945092505050565b600060208284031215612ba7578081fd5b5035919050565b600060208284031215612bbf578081fd5b5051919050565b600080600080600080600060e0888a031215612be0578283fd5b873596506020880135612bf281612ea8565b95506040880135612c0281612ea8565b9450606088013593506080880135925060a0880135915060c088013567ffffffffffffffff811115612c32578182fd5b612c3e8a828b01612968565b91505092959891949750929550565b60008151808452815b81811015612c7257602081850181015186830182015201612c56565b81811115612c835782602083870101525b50601f017fffffffffffffffffffffffffffffffffffffffffffffffffffffffffffffffe0169290920160200192915050565b828152604060208201526000612ccf6040830184612c4d565b949350505050565b858152846020820152600073ffffffffffffffffffffffffffffffffffffffff808616604084015260a06060840152612d1360a0840186612c4d565b91508084166080840152509695505050505050565b6040805190810167ffffffffffffffff81118282101715612d4b57612d4b612e79565b60405290565b60008219821115612d6457612d64612e4a565b500190565b600082612d9d577f4e487b710000000000000000000000000000000000000000000000000000000081526012600452602481fd5b500490565b6000817fffffffffffffffffffffffffffffffffffffffffffffffffffffffffffffffff0483118215151615612dda57612dda612e4a565b500290565b600082821015612df157612df1612e4a565b500390565b600181811c90821680612e0a57607f821691505b60208210811415612e44577f4e487b7100000000000000000000000000000000000000000000000000000000600052602260045260246000fd5b50919050565b7f4e487b7100000000000000000000000000000000000000000000000000000000600052601160045260246000fd5b7f4e487b7100000000000000000000000000000000000000000000000000000000600052604160045260246000fd5b73ffffffffffffffffffffffffffffffffffffffff811681146118ff57600080fdfea164736f6c6343000804000a",
  "linkReferences": {},
  "deployedLinkReferences": {}
}