{
  "_format": "hh-sol-artifact-1",
  "contractName": "EIP5489ForInfluenceMining",
  "sourceName": "contracts/influencemining/EIP5489ForInfluenceMining.sol",
  "abi": [
    {
      "anonymous": false,
      "inputs": [
        {
          "indexed": true,
          "internalType": "address",
          "name": "owner",
          "type": "address"
        },
        {
          "indexed": true,
          "internalType": "address",
          "name": "approved",
          "type": "address"
        },
        {
          "indexed": true,
          "internalType": "uint256",
          "name": "tokenId",
          "type": "uint256"
        }
      ],
      "name": "Approval",
      "type": "event"
    },
    {
      "anonymous": false,
      "inputs": [
        {
          "indexed": true,
          "internalType": "address",
          "name": "owner",
          "type": "address"
        },
        {
          "indexed": true,
          "internalType": "address",
          "name": "operator",
          "type": "address"
        },
        {
          "indexed": false,
          "internalType": "bool",
          "name": "approved",
          "type": "bool"
        }
      ],
      "name": "ApprovalForAll",
      "type": "event"
    },
    {
      "anonymous": false,
      "inputs": [
        {
          "indexed": false,
          "internalType": "uint8",
          "name": "version",
          "type": "uint8"
        }
      ],
      "name": "Initialized",
      "type": "event"
    },
    {
      "anonymous": false,
      "inputs": [
        {
          "indexed": true,
          "internalType": "address",
          "name": "previousOwner",
          "type": "address"
        },
        {
          "indexed": true,
          "internalType": "address",
          "name": "newOwner",
          "type": "address"
        }
      ],
      "name": "OwnershipTransferred",
      "type": "event"
    },
    {
      "anonymous": false,
      "inputs": [
        {
          "indexed": false,
          "internalType": "uint256",
          "name": "tokenId",
          "type": "uint256"
        },
        {
          "indexed": false,
          "internalType": "address",
          "name": "slotManagerAddr",
          "type": "address"
        }
      ],
      "name": "SlotAuthorizationCreated",
      "type": "event"
    },
    {
      "anonymous": false,
      "inputs": [
        {
          "indexed": false,
          "internalType": "uint256",
          "name": "tokenId",
          "type": "uint256"
        },
        {
          "indexed": false,
          "internalType": "address",
          "name": "slotManagerAddr",
          "type": "address"
        }
      ],
      "name": "SlotAuthorizationRevoked",
      "type": "event"
    },
    {
      "anonymous": false,
      "inputs": [
        {
          "indexed": false,
          "internalType": "uint256",
          "name": "tokenId",
          "type": "uint256"
        },
        {
          "indexed": false,
          "internalType": "address",
          "name": "slotManagerAddr",
          "type": "address"
        },
        {
          "indexed": false,
          "internalType": "string",
          "name": "uri",
          "type": "string"
        }
      ],
      "name": "SlotUriUpdated",
      "type": "event"
    },
    {
      "anonymous": false,
      "inputs": [
        {
          "indexed": true,
          "internalType": "address",
          "name": "from",
          "type": "address"
        },
        {
          "indexed": true,
          "internalType": "address",
          "name": "to",
          "type": "address"
        },
        {
          "indexed": true,
          "internalType": "uint256",
          "name": "tokenId",
          "type": "uint256"
        }
      ],
      "name": "Transfer",
      "type": "event"
    },
    {
      "inputs": [
        {
          "internalType": "address[]",
          "name": "kolAddrs",
          "type": "address[]"
        }
      ],
      "name": "addToKolWhiteList",
      "outputs": [],
      "stateMutability": "nonpayable",
      "type": "function"
    },
    {
      "inputs": [
        {
          "internalType": "address",
          "name": "to",
          "type": "address"
        },
        {
          "internalType": "uint256",
          "name": "tokenId",
          "type": "uint256"
        }
      ],
      "name": "approve",
      "outputs": [],
      "stateMutability": "nonpayable",
      "type": "function"
    },
    {
      "inputs": [
        {
          "internalType": "uint256",
          "name": "tokenId",
          "type": "uint256"
        },
        {
          "internalType": "address",
          "name": "slotManagerAddr",
          "type": "address"
        }
      ],
      "name": "authorizeSlotTo",
      "outputs": [],
      "stateMutability": "nonpayable",
      "type": "function"
    },
    {
      "inputs": [
        {
          "internalType": "address",
          "name": "owner",
          "type": "address"
        }
      ],
      "name": "balanceOf",
      "outputs": [
        {
          "internalType": "uint256",
          "name": "",
          "type": "uint256"
        }
      ],
      "stateMutability": "view",
      "type": "function"
    },
    {
      "inputs": [
        {
          "internalType": "uint256",
          "name": "tokenId",
          "type": "uint256"
        }
      ],
      "name": "getApproved",
      "outputs": [
        {
          "internalType": "address",
          "name": "",
          "type": "address"
        }
      ],
      "stateMutability": "view",
      "type": "function"
    },
    {
      "inputs": [
        {
          "internalType": "uint256",
          "name": "tokenId",
          "type": "uint256"
        },
        {
          "internalType": "address",
          "name": "slotManagerAddr",
          "type": "address"
        }
      ],
      "name": "getSlotUri",
      "outputs": [
        {
          "internalType": "string",
          "name": "",
          "type": "string"
        }
      ],
      "stateMutability": "view",
      "type": "function"
    },
    {
      "inputs": [
        {
          "internalType": "address",
          "name": "_ad3Address",
          "type": "address"
        }
      ],
      "name": "initialize",
      "outputs": [],
      "stateMutability": "nonpayable",
      "type": "function"
    },
    {
      "inputs": [
        {
          "internalType": "address",
          "name": "owner",
          "type": "address"
        },
        {
          "internalType": "address",
          "name": "operator",
          "type": "address"
        }
      ],
      "name": "isApprovedForAll",
      "outputs": [
        {
          "internalType": "bool",
          "name": "",
          "type": "bool"
        }
      ],
      "stateMutability": "view",
      "type": "function"
    },
    {
      "inputs": [
        {
          "internalType": "uint256",
          "name": "tokenId",
          "type": "uint256"
        },
        {
          "internalType": "address",
          "name": "addr",
          "type": "address"
        }
      ],
      "name": "isSlotManager",
      "outputs": [
        {
          "internalType": "bool",
          "name": "",
          "type": "bool"
        }
      ],
      "stateMutability": "view",
      "type": "function"
    },
    {
      "inputs": [
        {
          "internalType": "address",
          "name": "",
          "type": "address"
        }
      ],
      "name": "kolWhiteList",
      "outputs": [
        {
          "internalType": "bool",
          "name": "",
          "type": "bool"
        }
      ],
      "stateMutability": "view",
      "type": "function"
    },
    {
      "inputs": [
        {
          "internalType": "uint256",
          "name": "",
          "type": "uint256"
        }
      ],
      "name": "level2Price",
      "outputs": [
        {
          "internalType": "uint256",
          "name": "",
          "type": "uint256"
        }
      ],
      "stateMutability": "view",
      "type": "function"
    },
    {
      "inputs": [
        {
          "internalType": "uint256",
          "name": "tokenId",
          "type": "uint256"
        },
        {
          "internalType": "uint256",
          "name": "targetTokenId",
          "type": "uint256"
        }
      ],
      "name": "linkTo",
      "outputs": [],
      "stateMutability": "nonpayable",
      "type": "function"
    },
    {
      "inputs": [
        {
          "internalType": "uint256[]",
          "name": "levels",
          "type": "uint256[]"
        },
        {
          "internalType": "uint256[]",
          "name": "prices",
          "type": "uint256[]"
        }
      ],
      "name": "manageLevelPrices",
      "outputs": [],
      "stateMutability": "nonpayable",
      "type": "function"
    },
    {
      "inputs": [
        {
          "internalType": "string",
          "name": "imageUri",
          "type": "string"
        },
        {
          "internalType": "uint256",
          "name": "targetLevel",
          "type": "uint256"
        }
      ],
      "name": "mint",
      "outputs": [],
      "stateMutability": "nonpayable",
      "type": "function"
    },
    {
      "inputs": [],
      "name": "name",
      "outputs": [
        {
          "internalType": "string",
          "name": "",
          "type": "string"
        }
      ],
      "stateMutability": "view",
      "type": "function"
    },
    {
      "inputs": [],
      "name": "owner",
      "outputs": [
        {
          "internalType": "address",
          "name": "",
          "type": "address"
        }
      ],
      "stateMutability": "view",
      "type": "function"
    },
    {
      "inputs": [
        {
          "internalType": "uint256",
          "name": "tokenId",
          "type": "uint256"
        }
      ],
      "name": "ownerOf",
      "outputs": [
        {
          "internalType": "address",
          "name": "",
          "type": "address"
        }
      ],
      "stateMutability": "view",
      "type": "function"
    },
    {
      "inputs": [
        {
          "internalType": "address[]",
          "name": "kolAddrs",
          "type": "address[]"
        }
      ],
      "name": "removeFromKolWhiteList",
      "outputs": [],
      "stateMutability": "nonpayable",
      "type": "function"
    },
    {
      "inputs": [],
      "name": "renounceOwnership",
      "outputs": [],
      "stateMutability": "nonpayable",
      "type": "function"
    },
    {
      "inputs": [
        {
          "internalType": "uint256",
          "name": "tokenId",
          "type": "uint256"
        }
      ],
      "name": "revokeAllAuthorizations",
      "outputs": [],
      "stateMutability": "nonpayable",
      "type": "function"
    },
    {
      "inputs": [
        {
          "internalType": "uint256",
          "name": "tokenId",
          "type": "uint256"
        },
        {
          "internalType": "address",
          "name": "slotManagerAddr",
          "type": "address"
        }
      ],
      "name": "revokeAuthorization",
      "outputs": [],
      "stateMutability": "nonpayable",
      "type": "function"
    },
    {
      "inputs": [
        {
          "internalType": "address",
          "name": "from",
          "type": "address"
        },
        {
          "internalType": "address",
          "name": "to",
          "type": "address"
        },
        {
          "internalType": "uint256",
          "name": "tokenId",
          "type": "uint256"
        }
      ],
      "name": "safeTransferFrom",
      "outputs": [],
      "stateMutability": "nonpayable",
      "type": "function"
    },
    {
      "inputs": [
        {
          "internalType": "address",
          "name": "from",
          "type": "address"
        },
        {
          "internalType": "address",
          "name": "to",
          "type": "address"
        },
        {
          "internalType": "uint256",
          "name": "tokenId",
          "type": "uint256"
        },
        {
          "internalType": "bytes",
          "name": "data",
          "type": "bytes"
        }
      ],
      "name": "safeTransferFrom",
      "outputs": [],
      "stateMutability": "nonpayable",
      "type": "function"
    },
    {
      "inputs": [
        {
          "internalType": "address",
          "name": "operator",
          "type": "address"
        },
        {
          "internalType": "bool",
          "name": "approved",
          "type": "bool"
        }
      ],
      "name": "setApprovalForAll",
      "outputs": [],
      "stateMutability": "nonpayable",
      "type": "function"
    },
    {
      "inputs": [
        {
          "internalType": "uint256",
          "name": "tokenId",
          "type": "uint256"
        },
        {
          "internalType": "string",
          "name": "value",
          "type": "string"
        }
      ],
      "name": "setSlotUri",
      "outputs": [],
      "stateMutability": "nonpayable",
      "type": "function"
    },
    {
      "inputs": [
        {
          "internalType": "bytes4",
          "name": "interfaceId",
          "type": "bytes4"
        }
      ],
      "name": "supportsInterface",
      "outputs": [
        {
          "internalType": "bool",
          "name": "",
          "type": "bool"
        }
      ],
      "stateMutability": "view",
      "type": "function"
    },
    {
      "inputs": [],
      "name": "symbol",
      "outputs": [
        {
          "internalType": "string",
          "name": "",
          "type": "string"
        }
      ],
      "stateMutability": "view",
      "type": "function"
    },
    {
      "inputs": [
        {
          "internalType": "uint256",
          "name": "",
          "type": "uint256"
        }
      ],
      "name": "token2Level",
      "outputs": [
        {
          "internalType": "uint256",
          "name": "",
          "type": "uint256"
        }
      ],
      "stateMutability": "view",
      "type": "function"
    },
    {
      "inputs": [
        {
          "internalType": "uint256",
          "name": "",
          "type": "uint256"
        }
      ],
      "name": "token2LinkTargetToken",
      "outputs": [
        {
          "internalType": "uint256",
          "name": "",
          "type": "uint256"
        }
      ],
      "stateMutability": "view",
      "type": "function"
    },
    {
      "inputs": [
        {
          "internalType": "uint256",
          "name": "index",
          "type": "uint256"
        }
      ],
      "name": "tokenByIndex",
      "outputs": [
        {
          "internalType": "uint256",
          "name": "",
          "type": "uint256"
        }
      ],
      "stateMutability": "view",
      "type": "function"
    },
    {
      "inputs": [
        {
          "internalType": "uint256",
          "name": "",
          "type": "uint256"
        }
      ],
      "name": "tokenId2AuthorizedAddress",
      "outputs": [
        {
          "internalType": "address",
          "name": "",
          "type": "address"
        }
      ],
      "stateMutability": "view",
      "type": "function"
    },
    {
      "inputs": [
        {
          "internalType": "uint256",
          "name": "",
          "type": "uint256"
        }
      ],
      "name": "tokenId2Hyperlink",
      "outputs": [
        {
          "internalType": "string",
          "name": "",
          "type": "string"
        }
      ],
      "stateMutability": "view",
      "type": "function"
    },
    {
      "inputs": [
        {
          "internalType": "uint256",
          "name": "",
          "type": "uint256"
        }
      ],
      "name": "tokenId2ImageUri",
      "outputs": [
        {
          "internalType": "string",
          "name": "",
          "type": "string"
        }
      ],
      "stateMutability": "view",
      "type": "function"
    },
    {
      "inputs": [
        {
          "internalType": "address",
          "name": "owner",
          "type": "address"
        },
        {
          "internalType": "uint256",
          "name": "index",
          "type": "uint256"
        }
      ],
      "name": "tokenOfOwnerByIndex",
      "outputs": [
        {
          "internalType": "uint256",
          "name": "",
          "type": "uint256"
        }
      ],
      "stateMutability": "view",
      "type": "function"
    },
    {
      "inputs": [
        {
          "internalType": "uint256",
          "name": "_tokenId",
          "type": "uint256"
        }
      ],
      "name": "tokenURI",
      "outputs": [
        {
          "internalType": "string",
          "name": "",
          "type": "string"
        }
      ],
      "stateMutability": "view",
      "type": "function"
    },
    {
      "inputs": [],
      "name": "totalSupply",
      "outputs": [
        {
          "internalType": "uint256",
          "name": "",
          "type": "uint256"
        }
      ],
      "stateMutability": "view",
      "type": "function"
    },
    {
      "inputs": [
        {
          "internalType": "address",
          "name": "from",
          "type": "address"
        },
        {
          "internalType": "address",
          "name": "to",
          "type": "address"
        },
        {
          "internalType": "uint256",
          "name": "tokenId",
          "type": "uint256"
        }
      ],
      "name": "transferFrom",
      "outputs": [],
      "stateMutability": "nonpayable",
      "type": "function"
    },
    {
      "inputs": [
        {
          "internalType": "address",
          "name": "newOwner",
          "type": "address"
        }
      ],
      "name": "transferOwnership",
      "outputs": [],
      "stateMutability": "nonpayable",
      "type": "function"
    },
    {
      "inputs": [
        {
          "internalType": "address",
          "name": "_ad3Address",
          "type": "address"
        }
      ],
      "name": "updateAd3Address",
      "outputs": [],
      "stateMutability": "nonpayable",
      "type": "function"
    },
    {
      "inputs": [
        {
          "internalType": "uint256",
          "name": "tokenId",
          "type": "uint256"
        },
        {
          "internalType": "uint256",
          "name": "targetLevel",
          "type": "uint256"
        }
      ],
      "name": "upgradeTo",
      "outputs": [],
      "stateMutability": "nonpayable",
      "type": "function"
    },
    {
      "inputs": [],
      "name": "withdrawAllAd3",
      "outputs": [],
      "stateMutability": "nonpayable",
      "type": "function"
    }
  ],
  "bytecode": "0x608060405234801561001057600080fd5b50614780806100206000396000f3fe608060405234801561001057600080fd5b50600436106102d35760003560e01c806370a0823111610186578063c3612ef7116100e3578063d0ade91b11610097578063f2fde38b11610071578063f2fde38b1461068e578063f4fa43e5146106a1578063fef16a25146106b457600080fd5b8063d0ade91b1461061f578063d65cabaa14610632578063e985e9c51461064557600080fd5b8063c87b56dd116100c8578063c87b56dd146105bd578063cf367f84146105d0578063cfc3ac921461060c57600080fd5b8063c3612ef714610597578063c4d66de8146105aa57600080fd5b8063982424691161013a578063a9f4a85c1161011f578063a9f4a85c1461053b578063b69134a11461054e578063b88d4fde1461058457600080fd5b80639824246914610520578063a22cb4651461052857600080fd5b8063764df0151161016b578063764df015146104e75780638da5cb5b146104fa57806395d89b411461051857600080fd5b806370a08231146104cc578063715018a6146104df57600080fd5b80632710a3b61161023457806342842e0e116101e8578063543e41c9116101cd578063543e41c91461049357806362ee7ba5146104a65780636352211e146104b957600080fd5b806342842e0e1461046d5780634f6ccce71461048057600080fd5b80632f745c59116102195780632f745c5914610418578063388b1d011461042b5780633b8499251461044c57600080fd5b80632710a3b6146103f25780632a4d2f801461040557600080fd5b8063086a55431161028b57806318160ddd1161027057806318160ddd146103ac5780631ba8b6a3146103be57806323b872dd146103df57600080fd5b8063086a554314610375578063095ea7b31461039957600080fd5b806306fdde03116102bc57806306fdde03146103155780630754b2cc1461032a578063081812fc1461033d57600080fd5b806301ffc9a7146102d8578063056b01ce14610300575b600080fd5b6102eb6102e6366004614006565b6106c7565b60405190151581526020015b60405180910390f35b61031361030e36600461403e565b610723565b005b61031d610775565b6040516102f791906144b7565b61031d6103383660046140b8565b610807565b61035061034b366004614088565b6108aa565b60405173ffffffffffffffffffffffffffffffffffffffff90911681526020016102f7565b6102eb610383366004613d61565b6101036020526000908152604090205460ff1681565b6103136103a7366004613f18565b6108de565b6099545b6040519081526020016102f7565b6103b06103cc366004614088565b6101006020526000908152604090205481565b6103136103ed366004613db4565b610a70565b61031d610400366004614088565b610b11565b610313610413366004613f41565b610bab565b6103b0610426366004613f18565b610c78565b6103b0610439366004614088565b6101026020526000908152604090205481565b6103b061045a366004614088565b6101016020526000908152604090205481565b61031361047b366004613db4565b610d47565b6103b061048e366004614088565b610d62565b6103136104a1366004614088565b610e47565b6103136104b4366004614124565b610f32565b6103506104c7366004614088565b611022565b6103b06104da366004613d61565b6110ae565b61031361117c565b6103136104f5366004613f81565b611190565b60c95473ffffffffffffffffffffffffffffffffffffffff16610350565b61031d6112e2565b6103136112f1565b610313610536366004613ee2565b611480565b610313610549366004613d61565b61148b565b61035061055c366004614088565b60fb6020526000908152604090205473ffffffffffffffffffffffffffffffffffffffff1681565b610313610592366004613def565b6114da565b6103136105a53660046140b8565b61157c565b6103136105b8366004613d61565b611727565b61031d6105cb366004614088565b61196d565b6102eb6105de3660046140b8565b600091825260fb60205260409091205473ffffffffffffffffffffffffffffffffffffffff91821691161490565b61031361061a3660046140b8565b611a9c565b61031361062d3660046140da565b611c70565b610313610640366004614124565b611dd9565b6102eb610653366004613d82565b73ffffffffffffffffffffffffffffffffffffffff9182166000908152606a6020908152604080832093909416825291909152205460ff1690565b61031361069c366004613d61565b611e6c565b6103136106af366004613f41565b611f23565b61031d6106c2366004614088565b611ff0565b60007fffffffff0000000000000000000000000000000000000000000000000000000082167f8f65987b00000000000000000000000000000000000000000000000000000000148061071d575061071d82612009565b92915050565b600061072e60995490565b61073990600161453b565b9050610745338261205f565b600081815260fc6020526040902061075e908585613b49565b50811561076f5761076f8183612079565b50505050565b6060606580546107849061460c565b80601f01602080910402602001604051908101604052809291908181526020018280546107b09061460c565b80156107fd5780601f106107d2576101008083540402835291602001916107fd565b820191906000526020600020905b8154815290600101906020018083116107e057829003601f168201915b5050505050905090565b600082815260fd602052604090208054606091906108249061460c565b80601f01602080910402602001604051908101604052809291908181526020018280546108509061460c565b801561089d5780601f106108725761010080835404028352916020019161089d565b820191906000526020600020905b81548152906001019060200180831161088057829003601f168201915b5050505050905092915050565b60006108b582612436565b5060009081526069602052604090205473ffffffffffffffffffffffffffffffffffffffff1690565b60006108e982611022565b90508073ffffffffffffffffffffffffffffffffffffffff168373ffffffffffffffffffffffffffffffffffffffff1614156109ac576040517f08c379a000000000000000000000000000000000000000000000000000000000815260206004820152602160248201527f4552433732313a20617070726f76616c20746f2063757272656e74206f776e6560448201527f720000000000000000000000000000000000000000000000000000000000000060648201526084015b60405180910390fd5b3373ffffffffffffffffffffffffffffffffffffffff821614806109d557506109d58133610653565b610a61576040517f08c379a000000000000000000000000000000000000000000000000000000000815260206004820152603d60248201527f4552433732313a20617070726f76652063616c6c6572206973206e6f7420746f60448201527f6b656e206f776e6572206f7220617070726f76656420666f7220616c6c00000060648201526084016109a3565b610a6b83836124c1565b505050565b610a7a3382612561565b610b06576040517f08c379a000000000000000000000000000000000000000000000000000000000815260206004820152602d60248201527f4552433732313a2063616c6c6572206973206e6f7420746f6b656e206f776e6560448201527f72206f7220617070726f7665640000000000000000000000000000000000000060648201526084016109a3565b610a6b838383612621565b60fc6020526000908152604090208054610b2a9061460c565b80601f0160208091040260200160405190810160405280929190818152602001828054610b569061460c565b8015610ba35780601f10610b7857610100808354040283529160200191610ba3565b820191906000526020600020905b815481529060010190602001808311610b8657829003601f168201915b505050505081565b610bb3612927565b60005b81811015610a6b5760016101036000858585818110610bfe577f4e487b7100000000000000000000000000000000000000000000000000000000600052603260045260246000fd5b9050602002016020810190610c139190613d61565b73ffffffffffffffffffffffffffffffffffffffff168152602081019190915260400160002080547fffffffffffffffffffffffffffffffffffffffffffffffffffffffffffffff001691151591909117905580610c7081614660565b915050610bb6565b6000610c83836110ae565b8210610d11576040517f08c379a000000000000000000000000000000000000000000000000000000000815260206004820152602b60248201527f455243373231456e756d657261626c653a206f776e657220696e646578206f7560448201527f74206f6620626f756e647300000000000000000000000000000000000000000060648201526084016109a3565b5073ffffffffffffffffffffffffffffffffffffffff919091166000908152609760209081526040808320938352929052205490565b610a6b838383604051806020016040528060008152506114da565b6000610d6d60995490565b8210610dfb576040517f08c379a000000000000000000000000000000000000000000000000000000000815260206004820152602c60248201527f455243373231456e756d657261626c653a20676c6f62616c20696e646578206f60448201527f7574206f6620626f756e6473000000000000000000000000000000000000000060648201526084016109a3565b60998281548110610e35577f4e487b7100000000000000000000000000000000000000000000000000000000600052603260045260246000fd5b90600052602060002001549050919050565b80610e5181611022565b73ffffffffffffffffffffffffffffffffffffffff163273ffffffffffffffffffffffffffffffffffffffff161480610ebd5750610e8e81611022565b73ffffffffffffffffffffffffffffffffffffffff163373ffffffffffffffffffffffffffffffffffffffff16145b610f23576040517f08c379a000000000000000000000000000000000000000000000000000000000815260206004820152601960248201527f73686f756c642062652074686520746f6b656e206f776e65720000000000000060448201526064016109a3565b610f2e82600061157c565b5050565b81610f3c81611022565b73ffffffffffffffffffffffffffffffffffffffff163273ffffffffffffffffffffffffffffffffffffffff161480610fa85750610f7981611022565b73ffffffffffffffffffffffffffffffffffffffff163373ffffffffffffffffffffffffffffffffffffffff16145b61100e576040517f08c379a000000000000000000000000000000000000000000000000000000000815260206004820152601960248201527f73686f756c642062652074686520746f6b656e206f776e65720000000000000060448201526064016109a3565b506000918252610102602052604090912055565b60008181526067602052604081205473ffffffffffffffffffffffffffffffffffffffff168061071d576040517f08c379a000000000000000000000000000000000000000000000000000000000815260206004820152601860248201527f4552433732313a20696e76616c696420746f6b656e204944000000000000000060448201526064016109a3565b600073ffffffffffffffffffffffffffffffffffffffff8216611153576040517f08c379a000000000000000000000000000000000000000000000000000000000815260206004820152602960248201527f4552433732313a2061646472657373207a65726f206973206e6f74206120766160448201527f6c6964206f776e6572000000000000000000000000000000000000000000000060648201526084016109a3565b5073ffffffffffffffffffffffffffffffffffffffff1660009081526068602052604090205490565b611184612927565b61118e60006129a8565b565b611198612927565b828114611226576040517f08c379a0000000000000000000000000000000000000000000000000000000008152602060048201526024808201527f6c6576656c732e73697a652073686f756c6420657120746f207072696365732e60448201527f73697a650000000000000000000000000000000000000000000000000000000060648201526084016109a3565b60005b838110156112db5782828281811061126a577f4e487b7100000000000000000000000000000000000000000000000000000000600052603260045260246000fd5b9050602002013561010160008787858181106112af577f4e487b7100000000000000000000000000000000000000000000000000000000600052603260045260246000fd5b9050602002013581526020019081526020016000208190555080806112d390614660565b915050611229565b5050505050565b6060606680546107849061460c565b6112f9612927565b60ff546040517f70a0823100000000000000000000000000000000000000000000000000000000815230600482015260009173ffffffffffffffffffffffffffffffffffffffff16906370a082319060240160206040518083038186803b15801561136357600080fd5b505afa158015611377573d6000803e3d6000fd5b505050506040513d601f19601f8201168201806040525081019061139b91906140a0565b60ff5490915073ffffffffffffffffffffffffffffffffffffffff1663a9059cbb6113db60c95473ffffffffffffffffffffffffffffffffffffffff1690565b6040517fffffffff0000000000000000000000000000000000000000000000000000000060e084901b16815273ffffffffffffffffffffffffffffffffffffffff909116600482015260248101849052604401602060405180830381600087803b15801561144857600080fd5b505af115801561145c573d6000803e3d6000fd5b505050506040513d601f19601f82011682018060405250810190610f2e9190613fea565b610f2e338383612a1f565b611493612927565b60ff80547fffffffffffffffffffffffff00000000000000000000000000000000000000001673ffffffffffffffffffffffffffffffffffffffff92909216919091179055565b6114e43383612561565b611570576040517f08c379a000000000000000000000000000000000000000000000000000000000815260206004820152602d60248201527f4552433732313a2063616c6c6572206973206e6f7420746f6b656e206f776e6560448201527f72206f7220617070726f7665640000000000000000000000000000000000000060648201526084016109a3565b61076f84848484612b4d565b8161158681611022565b73ffffffffffffffffffffffffffffffffffffffff163373ffffffffffffffffffffffffffffffffffffffff1614806115e25750600081815260fb602052604090205473ffffffffffffffffffffffffffffffffffffffff1633145b8061160a5750336115f2826108aa565b73ffffffffffffffffffffffffffffffffffffffff16145b611696576040517f08c379a000000000000000000000000000000000000000000000000000000000815260206004820152602860248201527f616464726573732073686f756c6420626520617574686f72697a6564206f722060448201527f617070726f76652e00000000000000000000000000000000000000000000000060648201526084016109a3565b600083815260fb602090815260408083205460fd909252822073ffffffffffffffffffffffffffffffffffffffff909116916116d29190613beb565b6040805185815273ffffffffffffffffffffffffffffffffffffffff831660208201527fb5941f6e357083b6bcaa8e6b7ae8cc1fe09249dd08844a1b6d621170d58c69e491015b60405180910390a150505050565b600054610100900460ff16158080156117475750600054600160ff909116105b806117615750303b158015611761575060005460ff166001145b6117ed576040517f08c379a000000000000000000000000000000000000000000000000000000000815260206004820152602e60248201527f496e697469616c697a61626c653a20636f6e747261637420697320616c72656160448201527f647920696e697469616c697a656400000000000000000000000000000000000060648201526084016109a3565b600080547fffffffffffffffffffffffffffffffffffffffffffffffffffffffffffffff00166001179055801561184b57600080547fffffffffffffffffffffffffffffffffffffffffffffffffffffffffffff00ff166101001790555b6118bf6040518060400160405280601881526020017f48797065726c696e6b204e465420436f6c6c656374696f6e00000000000000008152506040518060400160405280600481526020017f484e465400000000000000000000000000000000000000000000000000000000815250612bf0565b6118c7612c91565b60ff80547fffffffffffffffffffffffff00000000000000000000000000000000000000001673ffffffffffffffffffffffffffffffffffffffff84161790558015610f2e57600080547fffffffffffffffffffffffffffffffffffffffffffffffffffffffffffff00ff169055604051600181527f7f26b83ff96e1f2b6a682f133852f6798a09c465da95921460cefb38474024989060200160405180910390a15050565b60008181526067602052604090205460609073ffffffffffffffffffffffffffffffffffffffff166119fb576040517f08c379a000000000000000000000000000000000000000000000000000000000815260206004820152601f60248201527f55524920717565727920666f72206e6f6e6578697374656e7420746f6b656e0060448201526064016109a3565b611a76611a0783612d30565b604051602001611a179190614429565b604080517fffffffffffffffffffffffffffffffffffffffffffffffffffffffffffffffe0818403018152828252600086815260fc6020908152929020611a6293919290910161418f565b604051602081830303815290604052612e1f565b604051602001611a8691906143e4565b6040516020818303038152906040529050919050565b81611aa681611022565b73ffffffffffffffffffffffffffffffffffffffff163373ffffffffffffffffffffffffffffffffffffffff161480611b025750600081815260fb602052604090205473ffffffffffffffffffffffffffffffffffffffff1633145b80611b2a575033611b12826108aa565b73ffffffffffffffffffffffffffffffffffffffff16145b611bb6576040517f08c379a000000000000000000000000000000000000000000000000000000000815260206004820152602860248201527f616464726573732073686f756c6420626520617574686f72697a6564206f722060448201527f617070726f76652e00000000000000000000000000000000000000000000000060648201526084016109a3565b600083815260fb602052604090205473ffffffffffffffffffffffffffffffffffffffff838116911614610a6b57600083815260fb602090815260409182902080547fffffffffffffffffffffffff00000000000000000000000000000000000000001673ffffffffffffffffffffffffffffffffffffffff86169081179091558251868152918201527fb6aac9d4aca74cc3c9b6f10668821ed9e7c5736feeb673bbbbd8b295ba2c5936910160405180910390a1505050565b82611c7a81611022565b73ffffffffffffffffffffffffffffffffffffffff163373ffffffffffffffffffffffffffffffffffffffff161480611cd65750600081815260fb602052604090205473ffffffffffffffffffffffffffffffffffffffff1633145b80611cfe575033611ce6826108aa565b73ffffffffffffffffffffffffffffffffffffffff16145b611d8a576040517f08c379a000000000000000000000000000000000000000000000000000000000815260206004820152602860248201527f616464726573732073686f756c6420626520617574686f72697a6564206f722060448201527f617070726f76652e00000000000000000000000000000000000000000000000060648201526084016109a3565b600084815260fd60205260409020611da3908484613b49565b507f3861e85a43f9ffebd047ed00860b7c5e4248d52895f611df7877c826ce5d22908433858560405161171994939291906144ca565b6000611de483611022565b73ffffffffffffffffffffffffffffffffffffffff161415611e62576040517f08c379a000000000000000000000000000000000000000000000000000000000815260206004820152601360248201527f546f6b656e2073686f756c64206578697374730000000000000000000000000060448201526064016109a3565b610f2e8282612079565b611e74612927565b73ffffffffffffffffffffffffffffffffffffffff8116611f17576040517f08c379a000000000000000000000000000000000000000000000000000000000815260206004820152602660248201527f4f776e61626c653a206e6577206f776e657220697320746865207a65726f206160448201527f646472657373000000000000000000000000000000000000000000000000000060648201526084016109a3565b611f20816129a8565b50565b611f2b612927565b60005b81811015610a6b5760006101036000858585818110611f76577f4e487b7100000000000000000000000000000000000000000000000000000000600052603260045260246000fd5b9050602002016020810190611f8b9190613d61565b73ffffffffffffffffffffffffffffffffffffffff168152602081019190915260400160002080547fffffffffffffffffffffffffffffffffffffffffffffffffffffffffffffff001691151591909117905580611fe881614660565b915050611f2e565b60fd6020526000908152604090208054610b2a9061460c565b60007fffffffff0000000000000000000000000000000000000000000000000000000082167f780e9d6300000000000000000000000000000000000000000000000000000000148061071d575061071d82613021565b610f2e828260405180602001604052806000815250613104565b60008281526101006020526040902054808211612118576040517f08c379a000000000000000000000000000000000000000000000000000000000815260206004820152602160248201527f7461726765744c6576656c2073686f756c6420472e542e2066726f6d4c65766560448201527f6c0000000000000000000000000000000000000000000000000000000000000060648201526084016109a3565b600081815261010160205260408082205484835291205480612196576040517f08c379a000000000000000000000000000000000000000000000000000000000815260206004820152601860248201527f7461726765744c6576656c2073686f756c64206578697374000000000000000060448201526064016109a3565b818111612225576040517f08c379a000000000000000000000000000000000000000000000000000000000815260206004820152602b60248201527f7461726765744c6576656c50726963652073686f756c6420472e542e2066726f60448201527f6d4c6576656c507269636500000000000000000000000000000000000000000060648201526084016109a3565b60ff546040517f70a0823100000000000000000000000000000000000000000000000000000000815233600482015260009173ffffffffffffffffffffffffffffffffffffffff16906370a082319060240160206040518083038186803b15801561228f57600080fd5b505afa1580156122a3573d6000803e3d6000fd5b505050506040513d601f19601f820116820180604052508101906122c791906140a0565b905060006122d584846145c9565b905085600114806122fb5750336000908152610103602052604090205460ff1615156001145b15612304575060005b80821161236d576040517f08c379a000000000000000000000000000000000000000000000000000000000815260206004820152601660248201527f73686f756c64206861766520656e6f756768206164330000000000000000000060448201526064016109a3565b60ff546040517f23b872dd0000000000000000000000000000000000000000000000000000000081523360048201523060248201526044810183905273ffffffffffffffffffffffffffffffffffffffff909116906323b872dd90606401602060405180830381600087803b1580156123e557600080fd5b505af11580156123f9573d6000803e3d6000fd5b505050506040513d601f19601f8201168201806040525081019061241d9190613fea565b5050506000948552505061010060205250604090912055565b60008181526067602052604090205473ffffffffffffffffffffffffffffffffffffffff16611f20576040517f08c379a000000000000000000000000000000000000000000000000000000000815260206004820152601860248201527f4552433732313a20696e76616c696420746f6b656e204944000000000000000060448201526064016109a3565b600081815260696020526040902080547fffffffffffffffffffffffff00000000000000000000000000000000000000001673ffffffffffffffffffffffffffffffffffffffff8416908117909155819061251b82611022565b73ffffffffffffffffffffffffffffffffffffffff167f8c5be1e5ebec7d5bd14f71427d1e84f3dd0314c0f7b2291e5b200ac8c7c3b92560405160405180910390a45050565b60008061256d83611022565b90508073ffffffffffffffffffffffffffffffffffffffff168473ffffffffffffffffffffffffffffffffffffffff1614806125db575073ffffffffffffffffffffffffffffffffffffffff8082166000908152606a602090815260408083209388168352929052205460ff165b8061261957508373ffffffffffffffffffffffffffffffffffffffff16612601846108aa565b73ffffffffffffffffffffffffffffffffffffffff16145b949350505050565b8273ffffffffffffffffffffffffffffffffffffffff1661264182611022565b73ffffffffffffffffffffffffffffffffffffffff16146126e4576040517f08c379a000000000000000000000000000000000000000000000000000000000815260206004820152602560248201527f4552433732313a207472616e736665722066726f6d20696e636f72726563742060448201527f6f776e657200000000000000000000000000000000000000000000000000000060648201526084016109a3565b73ffffffffffffffffffffffffffffffffffffffff8216612786576040517f08c379a0000000000000000000000000000000000000000000000000000000008152602060048201526024808201527f4552433732313a207472616e7366657220746f20746865207a65726f2061646460448201527f726573730000000000000000000000000000000000000000000000000000000060648201526084016109a3565b6127918383836131a7565b8273ffffffffffffffffffffffffffffffffffffffff166127b182611022565b73ffffffffffffffffffffffffffffffffffffffff1614612854576040517f08c379a000000000000000000000000000000000000000000000000000000000815260206004820152602560248201527f4552433732313a207472616e736665722066726f6d20696e636f72726563742060448201527f6f776e657200000000000000000000000000000000000000000000000000000060648201526084016109a3565b600081815260696020908152604080832080547fffffffffffffffffffffffff000000000000000000000000000000000000000090811690915573ffffffffffffffffffffffffffffffffffffffff8781168086526068855283862080547fffffffffffffffffffffffffffffffffffffffffffffffffffffffffffffffff01905590871680865283862080546001019055868652606790945282852080549092168417909155905184937fddf252ad1be2c89b69c2b068fc378daa952ba7f163c4a11628f55a4df523b3ef91a4505050565b60c95473ffffffffffffffffffffffffffffffffffffffff16331461118e576040517f08c379a000000000000000000000000000000000000000000000000000000000815260206004820181905260248201527f4f776e61626c653a2063616c6c6572206973206e6f7420746865206f776e657260448201526064016109a3565b60c9805473ffffffffffffffffffffffffffffffffffffffff8381167fffffffffffffffffffffffff0000000000000000000000000000000000000000831681179093556040519116919082907f8be0079c531659141344cd1fd0a4f28419497f9722a3daafe3b4186f6b6457e090600090a35050565b8173ffffffffffffffffffffffffffffffffffffffff168373ffffffffffffffffffffffffffffffffffffffff161415612ab5576040517f08c379a000000000000000000000000000000000000000000000000000000000815260206004820152601960248201527f4552433732313a20617070726f766520746f2063616c6c65720000000000000060448201526064016109a3565b73ffffffffffffffffffffffffffffffffffffffff8381166000818152606a602090815260408083209487168084529482529182902080547fffffffffffffffffffffffffffffffffffffffffffffffffffffffffffffff001686151590811790915591519182527f17307eab39ab6107e8899845ad3d59bd9653f200f220920489ca2b5937696c31910160405180910390a3505050565b612b58848484612621565b612b64848484846132ad565b61076f576040517f08c379a000000000000000000000000000000000000000000000000000000000815260206004820152603260248201527f4552433732313a207472616e7366657220746f206e6f6e20455243373231526560448201527f63656976657220696d706c656d656e746572000000000000000000000000000060648201526084016109a3565b600054610100900460ff16612c87576040517f08c379a000000000000000000000000000000000000000000000000000000000815260206004820152602b60248201527f496e697469616c697a61626c653a20636f6e7472616374206973206e6f74206960448201527f6e697469616c697a696e6700000000000000000000000000000000000000000060648201526084016109a3565b610f2e82826134ac565b600054610100900460ff16612d28576040517f08c379a000000000000000000000000000000000000000000000000000000000815260206004820152602b60248201527f496e697469616c697a61626c653a20636f6e7472616374206973206e6f74206960448201527f6e697469616c697a696e6700000000000000000000000000000000000000000060648201526084016109a3565b61118e61356a565b60606000612d3d8361360a565b600101905060008167ffffffffffffffff811115612d84577f4e487b7100000000000000000000000000000000000000000000000000000000600052604160045260246000fd5b6040519080825280601f01601f191660200182016040528015612dae576020820181803683370190505b5090508181016020015b7fffffffffffffffffffffffffffffffffffffffffffffffffffffffffffffffff017f3031323334353637383961626364656600000000000000000000000000000000600a86061a8153600a8504945084612e1257612e17565b612db8565b509392505050565b6060815160001415612e3f57505060408051602081019091526000815290565b60006040518060600160405280604081526020016147346040913990506000600384516002612e6e919061453b565b612e789190614553565b612e8390600461458c565b90506000612e9282602061453b565b67ffffffffffffffff811115612ed1577f4e487b7100000000000000000000000000000000000000000000000000000000600052604160045260246000fd5b6040519080825280601f01601f191660200182016040528015612efb576020820181803683370190505b509050818152600183018586518101602084015b81831015612f695760039283018051603f601282901c811687015160f890811b8552600c83901c8216880151811b6001860152600683901c8216880151811b60028601529116860151901b93820193909352600401612f0f565b600389510660018114612f835760028114612fcd57613013565b7f3d3d0000000000000000000000000000000000000000000000000000000000007ffffffffffffffffffffffffffffffffffffffffffffffffffffffffffffffffe830152613013565b7f3d000000000000000000000000000000000000000000000000000000000000007fffffffffffffffffffffffffffffffffffffffffffffffffffffffffffffffff8301525b509398975050505050505050565b60007fffffffff0000000000000000000000000000000000000000000000000000000082167f80ac58cd0000000000000000000000000000000000000000000000000000000014806130b457507fffffffff0000000000000000000000000000000000000000000000000000000082167f5b5e139f00000000000000000000000000000000000000000000000000000000145b8061071d57507f01ffc9a7000000000000000000000000000000000000000000000000000000007fffffffff0000000000000000000000000000000000000000000000000000000083161461071d565b61310e83836136ec565b61311b60008484846132ad565b610a6b576040517f08c379a000000000000000000000000000000000000000000000000000000000815260206004820152603260248201527f4552433732313a207472616e7366657220746f206e6f6e20455243373231526560448201527f63656976657220696d706c656d656e746572000000000000000000000000000060648201526084016109a3565b73ffffffffffffffffffffffffffffffffffffffff831661320f5761320a81609980546000838152609a60205260408120829055600182018355919091527f72a152ddfb8e864297c917af52ea6c1c68aead0fee1a62673fcc7e0c94979d000155565b61324c565b8173ffffffffffffffffffffffffffffffffffffffff168373ffffffffffffffffffffffffffffffffffffffff161461324c5761324c838261391d565b73ffffffffffffffffffffffffffffffffffffffff821661327057610a6b816139d4565b8273ffffffffffffffffffffffffffffffffffffffff168273ffffffffffffffffffffffffffffffffffffffff1614610a6b57610a6b8282613af8565b600073ffffffffffffffffffffffffffffffffffffffff84163b156134a1576040517f150b7a0200000000000000000000000000000000000000000000000000000000815273ffffffffffffffffffffffffffffffffffffffff85169063150b7a029061332490339089908890889060040161446e565b602060405180830381600087803b15801561333e57600080fd5b505af192505050801561338c575060408051601f3d9081017fffffffffffffffffffffffffffffffffffffffffffffffffffffffffffffffe016820190925261338991810190614022565b60015b613456573d8080156133ba576040519150601f19603f3d011682016040523d82523d6000602084013e6133bf565b606091505b50805161344e576040517f08c379a000000000000000000000000000000000000000000000000000000000815260206004820152603260248201527f4552433732313a207472616e7366657220746f206e6f6e20455243373231526560448201527f63656976657220696d706c656d656e746572000000000000000000000000000060648201526084016109a3565b805181602001fd5b7fffffffff00000000000000000000000000000000000000000000000000000000167f150b7a0200000000000000000000000000000000000000000000000000000000149050612619565b506001949350505050565b600054610100900460ff16613543576040517f08c379a000000000000000000000000000000000000000000000000000000000815260206004820152602b60248201527f496e697469616c697a61626c653a20636f6e7472616374206973206e6f74206960448201527f6e697469616c697a696e6700000000000000000000000000000000000000000060648201526084016109a3565b8151613556906065906020850190613c25565b508051610a6b906066906020840190613c25565b600054610100900460ff16613601576040517f08c379a000000000000000000000000000000000000000000000000000000000815260206004820152602b60248201527f496e697469616c697a61626c653a20636f6e7472616374206973206e6f74206960448201527f6e697469616c697a696e6700000000000000000000000000000000000000000060648201526084016109a3565b61118e336129a8565b6000807a184f03e93ff9f4daa797ed6e38ed64bf6a1f0100000000000000008310613653577a184f03e93ff9f4daa797ed6e38ed64bf6a1f010000000000000000830492506040015b6d04ee2d6d415b85acef8100000000831061367f576d04ee2d6d415b85acef8100000000830492506020015b662386f26fc10000831061369d57662386f26fc10000830492506010015b6305f5e10083106136b5576305f5e100830492506008015b61271083106136c957612710830492506004015b606483106136db576064830492506002015b600a831061071d5760010192915050565b73ffffffffffffffffffffffffffffffffffffffff8216613769576040517f08c379a000000000000000000000000000000000000000000000000000000000815260206004820181905260248201527f4552433732313a206d696e7420746f20746865207a65726f206164647265737360448201526064016109a3565b60008181526067602052604090205473ffffffffffffffffffffffffffffffffffffffff16156137f5576040517f08c379a000000000000000000000000000000000000000000000000000000000815260206004820152601c60248201527f4552433732313a20746f6b656e20616c7265616479206d696e7465640000000060448201526064016109a3565b613801600083836131a7565b60008181526067602052604090205473ffffffffffffffffffffffffffffffffffffffff161561388d576040517f08c379a000000000000000000000000000000000000000000000000000000000815260206004820152601c60248201527f4552433732313a20746f6b656e20616c7265616479206d696e7465640000000060448201526064016109a3565b73ffffffffffffffffffffffffffffffffffffffff8216600081815260686020908152604080832080546001019055848352606790915280822080547fffffffffffffffffffffffff0000000000000000000000000000000000000000168417905551839291907fddf252ad1be2c89b69c2b068fc378daa952ba7f163c4a11628f55a4df523b3ef908290a45050565b6000600161392a846110ae565b61393491906145c9565b6000838152609860205260409020549091508082146139945773ffffffffffffffffffffffffffffffffffffffff841660009081526097602090815260408083208584528252808320548484528184208190558352609890915290208190555b50600091825260986020908152604080842084905573ffffffffffffffffffffffffffffffffffffffff9094168352609781528383209183525290812055565b6099546000906139e6906001906145c9565b6000838152609a602052604081205460998054939450909284908110613a35577f4e487b7100000000000000000000000000000000000000000000000000000000600052603260045260246000fd5b906000526020600020015490508060998381548110613a7d577f4e487b7100000000000000000000000000000000000000000000000000000000600052603260045260246000fd5b6000918252602080832090910192909255828152609a90915260408082208490558582528120556099805480613adc577f4e487b7100000000000000000000000000000000000000000000000000000000600052603160045260246000fd5b6001900381819060005260206000200160009055905550505050565b6000613b03836110ae565b73ffffffffffffffffffffffffffffffffffffffff9093166000908152609760209081526040808320868452825280832085905593825260989052919091209190915550565b828054613b559061460c565b90600052602060002090601f016020900481019282613b775760008555613bdb565b82601f10613bae578280017fffffffffffffffffffffffffffffffffffffffffffffffffffffffffffffff00823516178555613bdb565b82800160010185558215613bdb579182015b82811115613bdb578235825591602001919060010190613bc0565b50613be7929150613c99565b5090565b508054613bf79061460c565b6000825580601f10613c07575050565b601f016020900490600052602060002090810190611f209190613c99565b828054613c319061460c565b90600052602060002090601f016020900481019282613c535760008555613bdb565b82601f10613c6c57805160ff1916838001178555613bdb565b82800160010185558215613bdb579182015b82811115613bdb578251825591602001919060010190613c7e565b5b80821115613be75760008155600101613c9a565b803573ffffffffffffffffffffffffffffffffffffffff81168114613cd257600080fd5b919050565b60008083601f840112613ce8578081fd5b50813567ffffffffffffffff811115613cff578182fd5b6020830191508360208260051b8501011115613d1a57600080fd5b9250929050565b60008083601f840112613d32578182fd5b50813567ffffffffffffffff811115613d49578182fd5b602083019150836020828501011115613d1a57600080fd5b600060208284031215613d72578081fd5b613d7b82613cae565b9392505050565b60008060408385031215613d94578081fd5b613d9d83613cae565b9150613dab60208401613cae565b90509250929050565b600080600060608486031215613dc8578081fd5b613dd184613cae565b9250613ddf60208501613cae565b9150604084013590509250925092565b60008060008060808587031215613e04578081fd5b613e0d85613cae565b9350613e1b60208601613cae565b925060408501359150606085013567ffffffffffffffff80821115613e3e578283fd5b818701915087601f830112613e51578283fd5b813581811115613e6357613e636146c8565b604051601f82017fffffffffffffffffffffffffffffffffffffffffffffffffffffffffffffffe0908116603f01168101908382118183101715613ea957613ea96146c8565b816040528281528a6020848701011115613ec1578586fd5b82602086016020830137918201602001949094529598949750929550505050565b60008060408385031215613ef4578182fd5b613efd83613cae565b91506020830135613f0d816146f7565b809150509250929050565b60008060408385031215613f2a578182fd5b613f3383613cae565b946020939093013593505050565b60008060208385031215613f53578182fd5b823567ffffffffffffffff811115613f69578283fd5b613f7585828601613cd7565b90969095509350505050565b60008060008060408587031215613f96578384fd5b843567ffffffffffffffff80821115613fad578586fd5b613fb988838901613cd7565b90965094506020870135915080821115613fd1578384fd5b50613fde87828801613cd7565b95989497509550505050565b600060208284031215613ffb578081fd5b8151613d7b816146f7565b600060208284031215614017578081fd5b8135613d7b81614705565b600060208284031215614033578081fd5b8151613d7b81614705565b600080600060408486031215614052578283fd5b833567ffffffffffffffff811115614068578384fd5b61407486828701613d21565b909790965060209590950135949350505050565b600060208284031215614099578081fd5b5035919050565b6000602082840312156140b1578081fd5b5051919050565b600080604083850312156140ca578182fd5b82359150613dab60208401613cae565b6000806000604084860312156140ee578081fd5b83359250602084013567ffffffffffffffff81111561410b578182fd5b61411786828701613d21565b9497909650939450505050565b60008060408385031215614136578182fd5b50508035926020909101359150565b6000815180845261415d8160208601602086016145e0565b601f017fffffffffffffffffffffffffffffffffffffffffffffffffffffffffffffffe0169290920160200192915050565b7f7b226e616d65223a22000000000000000000000000000000000000000000000081526000835160206141c882600986018389016145e0565b7f222c0000000000000000000000000000000000000000000000000000000000006009928501928301527f226465736372697074696f6e223a2248797065726c696e6b204e465420636f6c600b8301527f6c656374696f6e2063726561746564207769746820506172616d6920466f756e602b8301527f646174696f6e2200000000000000000000000000000000000000000000000000604b8301527f2c0000000000000000000000000000000000000000000000000000000000000060528301527f22696d616765223a22000000000000000000000000000000000000000000000060538301528454605c908490600181811c90808316806142cc57607f831692505b868310811415614303577f4e487b710000000000000000000000000000000000000000000000000000000089526022600452602489fd5b808015614317576001811461434a5761437a565b7fffffffffffffffffffffffffffffffffffffffffffffffffffffffffffffff008516878a015286848a0101955061437a565b60008c8152602090208a5b858110156143705781548b82018a0152908401908901614355565b505086848a010195505b50505050506143d86143af827f2200000000000000000000000000000000000000000000000000000000000000815260010190565b7f7d00000000000000000000000000000000000000000000000000000000000000815260010190565b98975050505050505050565b7f646174613a6170706c69636174696f6e2f6a736f6e3b6261736536342c00000081526000825161441c81601d8501602087016145e0565b91909101601d0192915050565b7f48797065726c696e6b204e465420436f6c6c656374696f6e202320000000000081526000825161446181601b8501602087016145e0565b91909101601b0192915050565b600073ffffffffffffffffffffffffffffffffffffffff8087168352808616602084015250836040830152608060608301526144ad6080830184614145565b9695505050505050565b602081526000613d7b6020830184614145565b84815273ffffffffffffffffffffffffffffffffffffffff8416602082015260606040820152816060820152818360808301376000818301608090810191909152601f9092017fffffffffffffffffffffffffffffffffffffffffffffffffffffffffffffffe01601019392505050565b6000821982111561454e5761454e614699565b500190565b600082614587577f4e487b710000000000000000000000000000000000000000000000000000000081526012600452602481fd5b500490565b6000817fffffffffffffffffffffffffffffffffffffffffffffffffffffffffffffffff04831182151516156145c4576145c4614699565b500290565b6000828210156145db576145db614699565b500390565b60005b838110156145fb5781810151838201526020016145e3565b8381111561076f5750506000910152565b600181811c9082168061462057607f821691505b6020821081141561465a577f4e487b7100000000000000000000000000000000000000000000000000000000600052602260045260246000fd5b50919050565b60007fffffffffffffffffffffffffffffffffffffffffffffffffffffffffffffffff82141561469257614692614699565b5060010190565b7f4e487b7100000000000000000000000000000000000000000000000000000000600052601160045260246000fd5b7f4e487b7100000000000000000000000000000000000000000000000000000000600052604160045260246000fd5b8015158114611f2057600080fd5b7fffffffff0000000000000000000000000000000000000000000000000000000081168114611f2057600080fdfe4142434445464748494a4b4c4d4e4f505152535455565758595a6162636465666768696a6b6c6d6e6f707172737475767778797a303132333435363738392b2fa164736f6c6343000804000a",
  "linkReferences": {},
  "deployedLinkReferences": {}
}