{
  "_format": "hh-sol-artifact-1",
  "contractName": "EIP5489ForInfluenceMining",
  "sourceName": "contracts/influencemining/EIP5489ForInfluenceMining.sol",
  "abi": [
    {
      "anonymous": false,
      "inputs": [
        {
          "indexed": true,
          "internalType": "address",
          "name": "owner",
          "type": "address"
        },
        {
          "indexed": true,
          "internalType": "address",
          "name": "approved",
          "type": "address"
        },
        {
          "indexed": true,
          "internalType": "uint256",
          "name": "tokenId",
          "type": "uint256"
        }
      ],
      "name": "Approval",
      "type": "event"
    },
    {
      "anonymous": false,
      "inputs": [
        {
          "indexed": true,
          "internalType": "address",
          "name": "owner",
          "type": "address"
        },
        {
          "indexed": true,
          "internalType": "address",
          "name": "operator",
          "type": "address"
        },
        {
          "indexed": false,
          "internalType": "bool",
          "name": "approved",
          "type": "bool"
        }
      ],
      "name": "ApprovalForAll",
      "type": "event"
    },
    {
      "anonymous": false,
      "inputs": [
        {
          "indexed": false,
          "internalType": "uint8",
          "name": "version",
          "type": "uint8"
        }
      ],
      "name": "Initialized",
      "type": "event"
    },
    {
      "anonymous": false,
      "inputs": [
        {
          "indexed": true,
          "internalType": "address",
          "name": "previousOwner",
          "type": "address"
        },
        {
          "indexed": true,
          "internalType": "address",
          "name": "newOwner",
          "type": "address"
        }
      ],
      "name": "OwnershipTransferred",
      "type": "event"
    },
    {
      "anonymous": false,
      "inputs": [
        {
          "indexed": false,
          "internalType": "uint256",
          "name": "tokenId",
          "type": "uint256"
        },
        {
          "indexed": false,
          "internalType": "address",
          "name": "slotManagerAddr",
          "type": "address"
        }
      ],
      "name": "SlotAuthorizationCreated",
      "type": "event"
    },
    {
      "anonymous": false,
      "inputs": [
        {
          "indexed": false,
          "internalType": "uint256",
          "name": "tokenId",
          "type": "uint256"
        },
        {
          "indexed": false,
          "internalType": "address",
          "name": "slotManagerAddr",
          "type": "address"
        }
      ],
      "name": "SlotAuthorizationRevoked",
      "type": "event"
    },
    {
      "anonymous": false,
      "inputs": [
        {
          "indexed": false,
          "internalType": "uint256",
          "name": "tokenId",
          "type": "uint256"
        },
        {
          "indexed": false,
          "internalType": "address",
          "name": "slotManagerAddr",
          "type": "address"
        },
        {
          "indexed": false,
          "internalType": "string",
          "name": "uri",
          "type": "string"
        }
      ],
      "name": "SlotUriUpdated",
      "type": "event"
    },
    {
      "anonymous": false,
      "inputs": [
        {
          "indexed": true,
          "internalType": "address",
          "name": "from",
          "type": "address"
        },
        {
          "indexed": true,
          "internalType": "address",
          "name": "to",
          "type": "address"
        },
        {
          "indexed": true,
          "internalType": "uint256",
          "name": "tokenId",
          "type": "uint256"
        }
      ],
      "name": "Transfer",
      "type": "event"
    },
    {
      "inputs": [
        {
          "internalType": "address",
          "name": "to",
          "type": "address"
        },
        {
          "internalType": "uint256",
          "name": "tokenId",
          "type": "uint256"
        }
      ],
      "name": "approve",
      "outputs": [],
      "stateMutability": "nonpayable",
      "type": "function"
    },
    {
      "inputs": [
        {
          "internalType": "uint256",
          "name": "tokenId",
          "type": "uint256"
        },
        {
          "internalType": "address",
          "name": "slotManagerAddr",
          "type": "address"
        }
      ],
      "name": "authorizeSlotTo",
      "outputs": [],
      "stateMutability": "nonpayable",
      "type": "function"
    },
    {
      "inputs": [
        {
          "internalType": "address",
          "name": "owner",
          "type": "address"
        }
      ],
      "name": "balanceOf",
      "outputs": [
        {
          "internalType": "uint256",
          "name": "",
          "type": "uint256"
        }
      ],
      "stateMutability": "view",
      "type": "function"
    },
    {
      "inputs": [
        {
          "internalType": "uint256",
          "name": "tokenId",
          "type": "uint256"
        }
      ],
      "name": "getApproved",
      "outputs": [
        {
          "internalType": "address",
          "name": "",
          "type": "address"
        }
      ],
      "stateMutability": "view",
      "type": "function"
    },
    {
      "inputs": [
        {
          "internalType": "uint256",
          "name": "tokenId",
          "type": "uint256"
        },
        {
          "internalType": "address",
          "name": "slotManagerAddr",
          "type": "address"
        }
      ],
      "name": "getSlotUri",
      "outputs": [
        {
          "internalType": "string",
          "name": "",
          "type": "string"
        }
      ],
      "stateMutability": "view",
      "type": "function"
    },
    {
      "inputs": [
        {
          "internalType": "address",
          "name": "_ad3Address",
          "type": "address"
        }
      ],
      "name": "initialize",
      "outputs": [],
      "stateMutability": "nonpayable",
      "type": "function"
    },
    {
      "inputs": [
        {
          "internalType": "address",
          "name": "owner",
          "type": "address"
        },
        {
          "internalType": "address",
          "name": "operator",
          "type": "address"
        }
      ],
      "name": "isApprovedForAll",
      "outputs": [
        {
          "internalType": "bool",
          "name": "",
          "type": "bool"
        }
      ],
      "stateMutability": "view",
      "type": "function"
    },
    {
      "inputs": [
        {
          "internalType": "uint256",
          "name": "tokenId",
          "type": "uint256"
        },
        {
          "internalType": "address",
          "name": "addr",
          "type": "address"
        }
      ],
      "name": "isSlotManager",
      "outputs": [
        {
          "internalType": "bool",
          "name": "",
          "type": "bool"
        }
      ],
      "stateMutability": "view",
      "type": "function"
    },
    {
      "inputs": [
        {
          "internalType": "uint256",
          "name": "",
          "type": "uint256"
        }
      ],
      "name": "level2Price",
      "outputs": [
        {
          "internalType": "uint256",
          "name": "",
          "type": "uint256"
        }
      ],
      "stateMutability": "view",
      "type": "function"
    },
    {
      "inputs": [
        {
          "internalType": "uint256[]",
          "name": "levels",
          "type": "uint256[]"
        },
        {
          "internalType": "uint256[]",
          "name": "prices",
          "type": "uint256[]"
        }
      ],
      "name": "manageLevelPrices",
      "outputs": [],
      "stateMutability": "nonpayable",
      "type": "function"
    },
    {
      "inputs": [
        {
          "internalType": "string",
          "name": "imageUri",
          "type": "string"
        },
        {
          "internalType": "uint256",
          "name": "targetLevel",
          "type": "uint256"
        }
      ],
      "name": "mint",
      "outputs": [],
      "stateMutability": "nonpayable",
      "type": "function"
    },
    {
      "inputs": [],
      "name": "name",
      "outputs": [
        {
          "internalType": "string",
          "name": "",
          "type": "string"
        }
      ],
      "stateMutability": "view",
      "type": "function"
    },
    {
      "inputs": [],
      "name": "owner",
      "outputs": [
        {
          "internalType": "address",
          "name": "",
          "type": "address"
        }
      ],
      "stateMutability": "view",
      "type": "function"
    },
    {
      "inputs": [
        {
          "internalType": "uint256",
          "name": "tokenId",
          "type": "uint256"
        }
      ],
      "name": "ownerOf",
      "outputs": [
        {
          "internalType": "address",
          "name": "",
          "type": "address"
        }
      ],
      "stateMutability": "view",
      "type": "function"
    },
    {
      "inputs": [],
      "name": "renounceOwnership",
      "outputs": [],
      "stateMutability": "nonpayable",
      "type": "function"
    },
    {
      "inputs": [
        {
          "internalType": "uint256",
          "name": "tokenId",
          "type": "uint256"
        }
      ],
      "name": "revokeAllAuthorizations",
      "outputs": [],
      "stateMutability": "nonpayable",
      "type": "function"
    },
    {
      "inputs": [
        {
          "internalType": "uint256",
          "name": "tokenId",
          "type": "uint256"
        },
        {
          "internalType": "address",
          "name": "slotManagerAddr",
          "type": "address"
        }
      ],
      "name": "revokeAuthorization",
      "outputs": [],
      "stateMutability": "nonpayable",
      "type": "function"
    },
    {
      "inputs": [
        {
          "internalType": "address",
          "name": "from",
          "type": "address"
        },
        {
          "internalType": "address",
          "name": "to",
          "type": "address"
        },
        {
          "internalType": "uint256",
          "name": "tokenId",
          "type": "uint256"
        }
      ],
      "name": "safeTransferFrom",
      "outputs": [],
      "stateMutability": "nonpayable",
      "type": "function"
    },
    {
      "inputs": [
        {
          "internalType": "address",
          "name": "from",
          "type": "address"
        },
        {
          "internalType": "address",
          "name": "to",
          "type": "address"
        },
        {
          "internalType": "uint256",
          "name": "tokenId",
          "type": "uint256"
        },
        {
          "internalType": "bytes",
          "name": "data",
          "type": "bytes"
        }
      ],
      "name": "safeTransferFrom",
      "outputs": [],
      "stateMutability": "nonpayable",
      "type": "function"
    },
    {
      "inputs": [
        {
          "internalType": "address",
          "name": "operator",
          "type": "address"
        },
        {
          "internalType": "bool",
          "name": "approved",
          "type": "bool"
        }
      ],
      "name": "setApprovalForAll",
      "outputs": [],
      "stateMutability": "nonpayable",
      "type": "function"
    },
    {
      "inputs": [
        {
          "internalType": "uint256",
          "name": "tokenId",
          "type": "uint256"
        },
        {
          "internalType": "string",
          "name": "value",
          "type": "string"
        }
      ],
      "name": "setSlotUri",
      "outputs": [],
      "stateMutability": "nonpayable",
      "type": "function"
    },
    {
      "inputs": [
        {
          "internalType": "bytes4",
          "name": "interfaceId",
          "type": "bytes4"
        }
      ],
      "name": "supportsInterface",
      "outputs": [
        {
          "internalType": "bool",
          "name": "",
          "type": "bool"
        }
      ],
      "stateMutability": "view",
      "type": "function"
    },
    {
      "inputs": [],
      "name": "symbol",
      "outputs": [
        {
          "internalType": "string",
          "name": "",
          "type": "string"
        }
      ],
      "stateMutability": "view",
      "type": "function"
    },
    {
      "inputs": [
        {
          "internalType": "uint256",
          "name": "",
          "type": "uint256"
        }
      ],
      "name": "token2Level",
      "outputs": [
        {
          "internalType": "uint256",
          "name": "",
          "type": "uint256"
        }
      ],
      "stateMutability": "view",
      "type": "function"
    },
    {
      "inputs": [
        {
          "internalType": "uint256",
          "name": "index",
          "type": "uint256"
        }
      ],
      "name": "tokenByIndex",
      "outputs": [
        {
          "internalType": "uint256",
          "name": "",
          "type": "uint256"
        }
      ],
      "stateMutability": "view",
      "type": "function"
    },
    {
      "inputs": [
        {
          "internalType": "uint256",
          "name": "",
          "type": "uint256"
        }
      ],
      "name": "tokenId2AuthorizedAddress",
      "outputs": [
        {
          "internalType": "address",
          "name": "",
          "type": "address"
        }
      ],
      "stateMutability": "view",
      "type": "function"
    },
    {
      "inputs": [
        {
          "internalType": "uint256",
          "name": "",
          "type": "uint256"
        }
      ],
      "name": "tokenId2Hyperlink",
      "outputs": [
        {
          "internalType": "string",
          "name": "",
          "type": "string"
        }
      ],
      "stateMutability": "view",
      "type": "function"
    },
    {
      "inputs": [
        {
          "internalType": "uint256",
          "name": "",
          "type": "uint256"
        }
      ],
      "name": "tokenId2ImageUri",
      "outputs": [
        {
          "internalType": "string",
          "name": "",
          "type": "string"
        }
      ],
      "stateMutability": "view",
      "type": "function"
    },
    {
      "inputs": [
        {
          "internalType": "address",
          "name": "owner",
          "type": "address"
        },
        {
          "internalType": "uint256",
          "name": "index",
          "type": "uint256"
        }
      ],
      "name": "tokenOfOwnerByIndex",
      "outputs": [
        {
          "internalType": "uint256",
          "name": "",
          "type": "uint256"
        }
      ],
      "stateMutability": "view",
      "type": "function"
    },
    {
      "inputs": [
        {
          "internalType": "uint256",
          "name": "_tokenId",
          "type": "uint256"
        }
      ],
      "name": "tokenURI",
      "outputs": [
        {
          "internalType": "string",
          "name": "",
          "type": "string"
        }
      ],
      "stateMutability": "view",
      "type": "function"
    },
    {
      "inputs": [],
      "name": "totalSupply",
      "outputs": [
        {
          "internalType": "uint256",
          "name": "",
          "type": "uint256"
        }
      ],
      "stateMutability": "view",
      "type": "function"
    },
    {
      "inputs": [
        {
          "internalType": "address",
          "name": "from",
          "type": "address"
        },
        {
          "internalType": "address",
          "name": "to",
          "type": "address"
        },
        {
          "internalType": "uint256",
          "name": "tokenId",
          "type": "uint256"
        }
      ],
      "name": "transferFrom",
      "outputs": [],
      "stateMutability": "nonpayable",
      "type": "function"
    },
    {
      "inputs": [
        {
          "internalType": "address",
          "name": "newOwner",
          "type": "address"
        }
      ],
      "name": "transferOwnership",
      "outputs": [],
      "stateMutability": "nonpayable",
      "type": "function"
    },
    {
      "inputs": [
        {
          "internalType": "uint256",
          "name": "tokenId",
          "type": "uint256"
        },
        {
          "internalType": "uint256",
          "name": "targetLevel",
          "type": "uint256"
        }
      ],
      "name": "upgradeTo",
      "outputs": [],
      "stateMutability": "nonpayable",
      "type": "function"
    },
    {
      "inputs": [],
      "name": "withdrawAllAd3",
      "outputs": [],
      "stateMutability": "nonpayable",
      "type": "function"
    }
  ],
  "bytecode": "0x608060405234801561001057600080fd5b5061425d806100206000396000f3fe608060405234801561001057600080fd5b50600436106102415760003560e01c8063715018a611610145578063c4d66de8116100bd578063d0ade91b1161008c578063e985e9c511610071578063e985e9c514610535578063f2fde38b1461057e578063fef16a251461059157600080fd5b8063d0ade91b1461050f578063d65cabaa1461052257600080fd5b8063c4d66de81461049a578063c87b56dd146104ad578063cf367f84146104c0578063cfc3ac92146104fc57600080fd5b80639824246911610114578063b69134a1116100f9578063b69134a11461043e578063b88d4fde14610474578063c3612ef71461048757600080fd5b80639824246914610423578063a22cb4651461042b57600080fd5b8063715018a6146103e2578063764df015146103ea5780638da5cb5b146103fd57806395d89b411461041b57600080fd5b806323b872dd116101d857806342842e0e116101a7578063543e41c91161018c578063543e41c9146103a95780636352211e146103bc57806370a08231146103cf57600080fd5b806342842e0e146103835780634f6ccce71461039657600080fd5b806323b872dd146103295780632710a3b61461033c5780632f745c591461034f5780633b8499251461036257600080fd5b8063081812fc11610214578063081812fc146102ab578063095ea7b3146102e357806318160ddd146102f65780631ba8b6a31461030857600080fd5b806301ffc9a714610246578063056b01ce1461026e57806306fdde03146102835780630754b2cc14610298575b600080fd5b610259610254366004613ae3565b6105a4565b60405190151581526020015b60405180910390f35b61028161027c366004613b1b565b610600565b005b61028b610652565b6040516102659190613f94565b61028b6102a6366004613b95565b6106e4565b6102be6102b9366004613b65565b610787565b60405173ffffffffffffffffffffffffffffffffffffffff9091168152602001610265565b6102816102f1366004613a35565b6107bb565b6099545b604051908152602001610265565b6102fa610316366004613b65565b6101006020526000908152604090205481565b6102816103373660046138d1565b61094d565b61028b61034a366004613b65565b6109ee565b6102fa61035d366004613a35565b610a88565b6102fa610370366004613b65565b6101016020526000908152604090205481565b6102816103913660046138d1565b610b57565b6102fa6103a4366004613b65565b610b72565b6102816103b7366004613b65565b610c57565b6102be6103ca366004613b65565b610d42565b6102fa6103dd36600461387e565b610dce565b610281610e9c565b6102816103f8366004613a5e565b610eb0565b60c95473ffffffffffffffffffffffffffffffffffffffff166102be565b61028b611002565b610281611011565b6102816104393660046139ff565b6111a0565b6102be61044c366004613b65565b60fb6020526000908152604090205473ffffffffffffffffffffffffffffffffffffffff1681565b61028161048236600461390c565b6111ab565b610281610495366004613b95565b61124d565b6102816104a836600461387e565b6113ba565b61028b6104bb366004613b65565b611600565b6102596104ce366004613b95565b600091825260fb60205260409091205473ffffffffffffffffffffffffffffffffffffffff91821691161490565b61028161050a366004613b95565b61172f565b61028161051d366004613bb7565b6118c5565b610281610530366004613c01565b6119f0565b61025961054336600461389f565b73ffffffffffffffffffffffffffffffffffffffff9182166000908152606a6020908152604080832093909416825291909152205460ff1690565b61028161058c36600461387e565b611a83565b61028b61059f366004613b65565b611b3a565b60007fffffffff0000000000000000000000000000000000000000000000000000000082167f8f65987b0000000000000000000000000000000000000000000000000000000014806105fa57506105fa82611b53565b92915050565b600061060b60995490565b610616906001614018565b90506106223382611ba9565b600081815260fc6020526040902061063b908585613666565b50811561064c5761064c8183611bc3565b50505050565b606060658054610661906140e9565b80601f016020809104026020016040519081016040528092919081815260200182805461068d906140e9565b80156106da5780601f106106af576101008083540402835291602001916106da565b820191906000526020600020905b8154815290600101906020018083116106bd57829003601f168201915b5050505050905090565b600082815260fd60205260409020805460609190610701906140e9565b80601f016020809104026020016040519081016040528092919081815260200182805461072d906140e9565b801561077a5780601f1061074f5761010080835404028352916020019161077a565b820191906000526020600020905b81548152906001019060200180831161075d57829003601f168201915b5050505050905092915050565b600061079282611f53565b5060009081526069602052604090205473ffffffffffffffffffffffffffffffffffffffff1690565b60006107c682610d42565b90508073ffffffffffffffffffffffffffffffffffffffff168373ffffffffffffffffffffffffffffffffffffffff161415610889576040517f08c379a000000000000000000000000000000000000000000000000000000000815260206004820152602160248201527f4552433732313a20617070726f76616c20746f2063757272656e74206f776e6560448201527f720000000000000000000000000000000000000000000000000000000000000060648201526084015b60405180910390fd5b3373ffffffffffffffffffffffffffffffffffffffff821614806108b257506108b28133610543565b61093e576040517f08c379a000000000000000000000000000000000000000000000000000000000815260206004820152603d60248201527f4552433732313a20617070726f76652063616c6c6572206973206e6f7420746f60448201527f6b656e206f776e6572206f7220617070726f76656420666f7220616c6c0000006064820152608401610880565b6109488383611fde565b505050565b610957338261207e565b6109e3576040517f08c379a000000000000000000000000000000000000000000000000000000000815260206004820152602d60248201527f4552433732313a2063616c6c6572206973206e6f7420746f6b656e206f776e6560448201527f72206f7220617070726f766564000000000000000000000000000000000000006064820152608401610880565b61094883838361213e565b60fc6020526000908152604090208054610a07906140e9565b80601f0160208091040260200160405190810160405280929190818152602001828054610a33906140e9565b8015610a805780601f10610a5557610100808354040283529160200191610a80565b820191906000526020600020905b815481529060010190602001808311610a6357829003601f168201915b505050505081565b6000610a9383610dce565b8210610b21576040517f08c379a000000000000000000000000000000000000000000000000000000000815260206004820152602b60248201527f455243373231456e756d657261626c653a206f776e657220696e646578206f7560448201527f74206f6620626f756e64730000000000000000000000000000000000000000006064820152608401610880565b5073ffffffffffffffffffffffffffffffffffffffff919091166000908152609760209081526040808320938352929052205490565b610948838383604051806020016040528060008152506111ab565b6000610b7d60995490565b8210610c0b576040517f08c379a000000000000000000000000000000000000000000000000000000000815260206004820152602c60248201527f455243373231456e756d657261626c653a20676c6f62616c20696e646578206f60448201527f7574206f6620626f756e647300000000000000000000000000000000000000006064820152608401610880565b60998281548110610c45577f4e487b7100000000000000000000000000000000000000000000000000000000600052603260045260246000fd5b90600052602060002001549050919050565b80610c6181610d42565b73ffffffffffffffffffffffffffffffffffffffff163273ffffffffffffffffffffffffffffffffffffffff161480610ccd5750610c9e81610d42565b73ffffffffffffffffffffffffffffffffffffffff163373ffffffffffffffffffffffffffffffffffffffff16145b610d33576040517f08c379a000000000000000000000000000000000000000000000000000000000815260206004820152601960248201527f73686f756c642062652074686520746f6b656e206f776e6572000000000000006044820152606401610880565b610d3e82600061124d565b5050565b60008181526067602052604081205473ffffffffffffffffffffffffffffffffffffffff16806105fa576040517f08c379a000000000000000000000000000000000000000000000000000000000815260206004820152601860248201527f4552433732313a20696e76616c696420746f6b656e20494400000000000000006044820152606401610880565b600073ffffffffffffffffffffffffffffffffffffffff8216610e73576040517f08c379a000000000000000000000000000000000000000000000000000000000815260206004820152602960248201527f4552433732313a2061646472657373207a65726f206973206e6f74206120766160448201527f6c6964206f776e657200000000000000000000000000000000000000000000006064820152608401610880565b5073ffffffffffffffffffffffffffffffffffffffff1660009081526068602052604090205490565b610ea4612444565b610eae60006124c5565b565b610eb8612444565b828114610f46576040517f08c379a0000000000000000000000000000000000000000000000000000000008152602060048201526024808201527f6c6576656c732e73697a652073686f756c6420657120746f207072696365732e60448201527f73697a65000000000000000000000000000000000000000000000000000000006064820152608401610880565b60005b83811015610ffb57828282818110610f8a577f4e487b7100000000000000000000000000000000000000000000000000000000600052603260045260246000fd5b905060200201356101016000878785818110610fcf577f4e487b7100000000000000000000000000000000000000000000000000000000600052603260045260246000fd5b905060200201358152602001908152602001600020819055508080610ff39061413d565b915050610f49565b5050505050565b606060668054610661906140e9565b611019612444565b60ff546040517f70a0823100000000000000000000000000000000000000000000000000000000815230600482015260009173ffffffffffffffffffffffffffffffffffffffff16906370a082319060240160206040518083038186803b15801561108357600080fd5b505afa158015611097573d6000803e3d6000fd5b505050506040513d601f19601f820116820180604052508101906110bb9190613b7d565b60ff5490915073ffffffffffffffffffffffffffffffffffffffff1663a9059cbb6110fb60c95473ffffffffffffffffffffffffffffffffffffffff1690565b6040517fffffffff0000000000000000000000000000000000000000000000000000000060e084901b16815273ffffffffffffffffffffffffffffffffffffffff909116600482015260248101849052604401602060405180830381600087803b15801561116857600080fd5b505af115801561117c573d6000803e3d6000fd5b505050506040513d601f19601f82011682018060405250810190610d3e9190613ac7565b610d3e33838361253c565b6111b5338361207e565b611241576040517f08c379a000000000000000000000000000000000000000000000000000000000815260206004820152602d60248201527f4552433732313a2063616c6c6572206973206e6f7420746f6b656e206f776e6560448201527f72206f7220617070726f766564000000000000000000000000000000000000006064820152608401610880565b61064c8484848461266a565b8161125781610d42565b73ffffffffffffffffffffffffffffffffffffffff163273ffffffffffffffffffffffffffffffffffffffff1614806112c3575061129481610d42565b73ffffffffffffffffffffffffffffffffffffffff163373ffffffffffffffffffffffffffffffffffffffff16145b611329576040517f08c379a000000000000000000000000000000000000000000000000000000000815260206004820152601960248201527f73686f756c642062652074686520746f6b656e206f776e6572000000000000006044820152606401610880565b600083815260fb602090815260408083205460fd909252822073ffffffffffffffffffffffffffffffffffffffff909116916113659190613708565b6040805185815273ffffffffffffffffffffffffffffffffffffffff831660208201527fb5941f6e357083b6bcaa8e6b7ae8cc1fe09249dd08844a1b6d621170d58c69e491015b60405180910390a150505050565b600054610100900460ff16158080156113da5750600054600160ff909116105b806113f45750303b1580156113f4575060005460ff166001145b611480576040517f08c379a000000000000000000000000000000000000000000000000000000000815260206004820152602e60248201527f496e697469616c697a61626c653a20636f6e747261637420697320616c72656160448201527f647920696e697469616c697a65640000000000000000000000000000000000006064820152608401610880565b600080547fffffffffffffffffffffffffffffffffffffffffffffffffffffffffffffff0016600117905580156114de57600080547fffffffffffffffffffffffffffffffffffffffffffffffffffffffffffff00ff166101001790555b6115526040518060400160405280601881526020017f48797065726c696e6b204e465420436f6c6c656374696f6e00000000000000008152506040518060400160405280600481526020017f484e46540000000000000000000000000000000000000000000000000000000081525061270d565b61155a6127ae565b60ff80547fffffffffffffffffffffffff00000000000000000000000000000000000000001673ffffffffffffffffffffffffffffffffffffffff84161790558015610d3e57600080547fffffffffffffffffffffffffffffffffffffffffffffffffffffffffffff00ff169055604051600181527f7f26b83ff96e1f2b6a682f133852f6798a09c465da95921460cefb38474024989060200160405180910390a15050565b60008181526067602052604090205460609073ffffffffffffffffffffffffffffffffffffffff1661168e576040517f08c379a000000000000000000000000000000000000000000000000000000000815260206004820152601f60248201527f55524920717565727920666f72206e6f6e6578697374656e7420746f6b656e006044820152606401610880565b61170961169a8361284d565b6040516020016116aa9190613f06565b604080517fffffffffffffffffffffffffffffffffffffffffffffffffffffffffffffffe0818403018152828252600086815260fc60209081529290206116f5939192909101613c6c565b60405160208183030381529060405261293c565b6040516020016117199190613ec1565b6040516020818303038152906040529050919050565b8161173981610d42565b73ffffffffffffffffffffffffffffffffffffffff163273ffffffffffffffffffffffffffffffffffffffff1614806117a5575061177681610d42565b73ffffffffffffffffffffffffffffffffffffffff163373ffffffffffffffffffffffffffffffffffffffff16145b61180b576040517f08c379a000000000000000000000000000000000000000000000000000000000815260206004820152601960248201527f73686f756c642062652074686520746f6b656e206f776e6572000000000000006044820152606401610880565b600083815260fb602052604090205473ffffffffffffffffffffffffffffffffffffffff83811691161461094857600083815260fb602090815260409182902080547fffffffffffffffffffffffff00000000000000000000000000000000000000001673ffffffffffffffffffffffffffffffffffffffff86169081179091558251868152918201527fb6aac9d4aca74cc3c9b6f10668821ed9e7c5736feeb673bbbbd8b295ba2c5936910160405180910390a1505050565b826118cf81610d42565b73ffffffffffffffffffffffffffffffffffffffff163273ffffffffffffffffffffffffffffffffffffffff16148061193b575061190c81610d42565b73ffffffffffffffffffffffffffffffffffffffff163373ffffffffffffffffffffffffffffffffffffffff16145b6119a1576040517f08c379a000000000000000000000000000000000000000000000000000000000815260206004820152601960248201527f73686f756c642062652074686520746f6b656e206f776e6572000000000000006044820152606401610880565b600084815260fd602052604090206119ba908484613666565b507f3861e85a43f9ffebd047ed00860b7c5e4248d52895f611df7877c826ce5d2290843385856040516113ac9493929190613fa7565b60006119fb83610d42565b73ffffffffffffffffffffffffffffffffffffffff161415611a79576040517f08c379a000000000000000000000000000000000000000000000000000000000815260206004820152601360248201527f546f6b656e2073686f756c6420657869737473000000000000000000000000006044820152606401610880565b610d3e8282611bc3565b611a8b612444565b73ffffffffffffffffffffffffffffffffffffffff8116611b2e576040517f08c379a000000000000000000000000000000000000000000000000000000000815260206004820152602660248201527f4f776e61626c653a206e6577206f776e657220697320746865207a65726f206160448201527f64647265737300000000000000000000000000000000000000000000000000006064820152608401610880565b611b37816124c5565b50565b60fd6020526000908152604090208054610a07906140e9565b60007fffffffff0000000000000000000000000000000000000000000000000000000082167f780e9d630000000000000000000000000000000000000000000000000000000014806105fa57506105fa82612b3e565b610d3e828260405180602001604052806000815250612c21565b60008281526101006020526040902054808211611c62576040517f08c379a000000000000000000000000000000000000000000000000000000000815260206004820152602160248201527f7461726765744c6576656c2073686f756c6420472e542e2066726f6d4c65766560448201527f6c000000000000000000000000000000000000000000000000000000000000006064820152608401610880565b600081815261010160205260408082205484835291205480611ce0576040517f08c379a000000000000000000000000000000000000000000000000000000000815260206004820152601860248201527f7461726765744c6576656c2073686f756c6420657869737400000000000000006044820152606401610880565b818111611d6f576040517f08c379a000000000000000000000000000000000000000000000000000000000815260206004820152602b60248201527f7461726765744c6576656c50726963652073686f756c6420472e542e2066726f60448201527f6d4c6576656c50726963650000000000000000000000000000000000000000006064820152608401610880565b60ff546040517f70a0823100000000000000000000000000000000000000000000000000000000815233600482015260009173ffffffffffffffffffffffffffffffffffffffff16906370a082319060240160206040518083038186803b158015611dd957600080fd5b505afa158015611ded573d6000803e3d6000fd5b505050506040513d601f19601f82011682018060405250810190611e119190613b7d565b90506000611e1f84846140a6565b9050808211611e8a576040517f08c379a000000000000000000000000000000000000000000000000000000000815260206004820152601660248201527f73686f756c64206861766520656e6f75676820616433000000000000000000006044820152606401610880565b60ff546040517f23b872dd0000000000000000000000000000000000000000000000000000000081523360048201523060248201526044810183905273ffffffffffffffffffffffffffffffffffffffff909116906323b872dd90606401602060405180830381600087803b158015611f0257600080fd5b505af1158015611f16573d6000803e3d6000fd5b505050506040513d601f19601f82011682018060405250810190611f3a9190613ac7565b5050506000948552505061010060205250604090912055565b60008181526067602052604090205473ffffffffffffffffffffffffffffffffffffffff16611b37576040517f08c379a000000000000000000000000000000000000000000000000000000000815260206004820152601860248201527f4552433732313a20696e76616c696420746f6b656e20494400000000000000006044820152606401610880565b600081815260696020526040902080547fffffffffffffffffffffffff00000000000000000000000000000000000000001673ffffffffffffffffffffffffffffffffffffffff8416908117909155819061203882610d42565b73ffffffffffffffffffffffffffffffffffffffff167f8c5be1e5ebec7d5bd14f71427d1e84f3dd0314c0f7b2291e5b200ac8c7c3b92560405160405180910390a45050565b60008061208a83610d42565b90508073ffffffffffffffffffffffffffffffffffffffff168473ffffffffffffffffffffffffffffffffffffffff1614806120f8575073ffffffffffffffffffffffffffffffffffffffff8082166000908152606a602090815260408083209388168352929052205460ff165b8061213657508373ffffffffffffffffffffffffffffffffffffffff1661211e84610787565b73ffffffffffffffffffffffffffffffffffffffff16145b949350505050565b8273ffffffffffffffffffffffffffffffffffffffff1661215e82610d42565b73ffffffffffffffffffffffffffffffffffffffff1614612201576040517f08c379a000000000000000000000000000000000000000000000000000000000815260206004820152602560248201527f4552433732313a207472616e736665722066726f6d20696e636f72726563742060448201527f6f776e65720000000000000000000000000000000000000000000000000000006064820152608401610880565b73ffffffffffffffffffffffffffffffffffffffff82166122a3576040517f08c379a0000000000000000000000000000000000000000000000000000000008152602060048201526024808201527f4552433732313a207472616e7366657220746f20746865207a65726f2061646460448201527f72657373000000000000000000000000000000000000000000000000000000006064820152608401610880565b6122ae838383612cc4565b8273ffffffffffffffffffffffffffffffffffffffff166122ce82610d42565b73ffffffffffffffffffffffffffffffffffffffff1614612371576040517f08c379a000000000000000000000000000000000000000000000000000000000815260206004820152602560248201527f4552433732313a207472616e736665722066726f6d20696e636f72726563742060448201527f6f776e65720000000000000000000000000000000000000000000000000000006064820152608401610880565b600081815260696020908152604080832080547fffffffffffffffffffffffff000000000000000000000000000000000000000090811690915573ffffffffffffffffffffffffffffffffffffffff8781168086526068855283862080547fffffffffffffffffffffffffffffffffffffffffffffffffffffffffffffffff01905590871680865283862080546001019055868652606790945282852080549092168417909155905184937fddf252ad1be2c89b69c2b068fc378daa952ba7f163c4a11628f55a4df523b3ef91a4505050565b60c95473ffffffffffffffffffffffffffffffffffffffff163314610eae576040517f08c379a000000000000000000000000000000000000000000000000000000000815260206004820181905260248201527f4f776e61626c653a2063616c6c6572206973206e6f7420746865206f776e65726044820152606401610880565b60c9805473ffffffffffffffffffffffffffffffffffffffff8381167fffffffffffffffffffffffff0000000000000000000000000000000000000000831681179093556040519116919082907f8be0079c531659141344cd1fd0a4f28419497f9722a3daafe3b4186f6b6457e090600090a35050565b8173ffffffffffffffffffffffffffffffffffffffff168373ffffffffffffffffffffffffffffffffffffffff1614156125d2576040517f08c379a000000000000000000000000000000000000000000000000000000000815260206004820152601960248201527f4552433732313a20617070726f766520746f2063616c6c6572000000000000006044820152606401610880565b73ffffffffffffffffffffffffffffffffffffffff8381166000818152606a602090815260408083209487168084529482529182902080547fffffffffffffffffffffffffffffffffffffffffffffffffffffffffffffff001686151590811790915591519182527f17307eab39ab6107e8899845ad3d59bd9653f200f220920489ca2b5937696c31910160405180910390a3505050565b61267584848461213e565b61268184848484612dca565b61064c576040517f08c379a000000000000000000000000000000000000000000000000000000000815260206004820152603260248201527f4552433732313a207472616e7366657220746f206e6f6e20455243373231526560448201527f63656976657220696d706c656d656e74657200000000000000000000000000006064820152608401610880565b600054610100900460ff166127a4576040517f08c379a000000000000000000000000000000000000000000000000000000000815260206004820152602b60248201527f496e697469616c697a61626c653a20636f6e7472616374206973206e6f74206960448201527f6e697469616c697a696e670000000000000000000000000000000000000000006064820152608401610880565b610d3e8282612fc9565b600054610100900460ff16612845576040517f08c379a000000000000000000000000000000000000000000000000000000000815260206004820152602b60248201527f496e697469616c697a61626c653a20636f6e7472616374206973206e6f74206960448201527f6e697469616c697a696e670000000000000000000000000000000000000000006064820152608401610880565b610eae613087565b6060600061285a83613127565b600101905060008167ffffffffffffffff8111156128a1577f4e487b7100000000000000000000000000000000000000000000000000000000600052604160045260246000fd5b6040519080825280601f01601f1916602001820160405280156128cb576020820181803683370190505b5090508181016020015b7fffffffffffffffffffffffffffffffffffffffffffffffffffffffffffffffff017f3031323334353637383961626364656600000000000000000000000000000000600a86061a8153600a850494508461292f57612934565b6128d5565b509392505050565b606081516000141561295c57505060408051602081019091526000815290565b6000604051806060016040528060408152602001614211604091399050600060038451600261298b9190614018565b6129959190614030565b6129a0906004614069565b905060006129af826020614018565b67ffffffffffffffff8111156129ee577f4e487b7100000000000000000000000000000000000000000000000000000000600052604160045260246000fd5b6040519080825280601f01601f191660200182016040528015612a18576020820181803683370190505b509050818152600183018586518101602084015b81831015612a865760039283018051603f601282901c811687015160f890811b8552600c83901c8216880151811b6001860152600683901c8216880151811b60028601529116860151901b93820193909352600401612a2c565b600389510660018114612aa05760028114612aea57612b30565b7f3d3d0000000000000000000000000000000000000000000000000000000000007ffffffffffffffffffffffffffffffffffffffffffffffffffffffffffffffffe830152612b30565b7f3d000000000000000000000000000000000000000000000000000000000000007fffffffffffffffffffffffffffffffffffffffffffffffffffffffffffffffff8301525b509398975050505050505050565b60007fffffffff0000000000000000000000000000000000000000000000000000000082167f80ac58cd000000000000000000000000000000000000000000000000000000001480612bd157507fffffffff0000000000000000000000000000000000000000000000000000000082167f5b5e139f00000000000000000000000000000000000000000000000000000000145b806105fa57507f01ffc9a7000000000000000000000000000000000000000000000000000000007fffffffff000000000000000000000000000000000000000000000000000000008316146105fa565b612c2b8383613209565b612c386000848484612dca565b610948576040517f08c379a000000000000000000000000000000000000000000000000000000000815260206004820152603260248201527f4552433732313a207472616e7366657220746f206e6f6e20455243373231526560448201527f63656976657220696d706c656d656e74657200000000000000000000000000006064820152608401610880565b73ffffffffffffffffffffffffffffffffffffffff8316612d2c57612d2781609980546000838152609a60205260408120829055600182018355919091527f72a152ddfb8e864297c917af52ea6c1c68aead0fee1a62673fcc7e0c94979d000155565b612d69565b8173ffffffffffffffffffffffffffffffffffffffff168373ffffffffffffffffffffffffffffffffffffffff1614612d6957612d69838261343a565b73ffffffffffffffffffffffffffffffffffffffff8216612d8d57610948816134f1565b8273ffffffffffffffffffffffffffffffffffffffff168273ffffffffffffffffffffffffffffffffffffffff1614610948576109488282613615565b600073ffffffffffffffffffffffffffffffffffffffff84163b15612fbe576040517f150b7a0200000000000000000000000000000000000000000000000000000000815273ffffffffffffffffffffffffffffffffffffffff85169063150b7a0290612e41903390899088908890600401613f4b565b602060405180830381600087803b158015612e5b57600080fd5b505af1925050508015612ea9575060408051601f3d9081017fffffffffffffffffffffffffffffffffffffffffffffffffffffffffffffffe0168201909252612ea691810190613aff565b60015b612f73573d808015612ed7576040519150601f19603f3d011682016040523d82523d6000602084013e612edc565b606091505b508051612f6b576040517f08c379a000000000000000000000000000000000000000000000000000000000815260206004820152603260248201527f4552433732313a207472616e7366657220746f206e6f6e20455243373231526560448201527f63656976657220696d706c656d656e74657200000000000000000000000000006064820152608401610880565b805181602001fd5b7fffffffff00000000000000000000000000000000000000000000000000000000167f150b7a0200000000000000000000000000000000000000000000000000000000149050612136565b506001949350505050565b600054610100900460ff16613060576040517f08c379a000000000000000000000000000000000000000000000000000000000815260206004820152602b60248201527f496e697469616c697a61626c653a20636f6e7472616374206973206e6f74206960448201527f6e697469616c697a696e670000000000000000000000000000000000000000006064820152608401610880565b8151613073906065906020850190613742565b508051610948906066906020840190613742565b600054610100900460ff1661311e576040517f08c379a000000000000000000000000000000000000000000000000000000000815260206004820152602b60248201527f496e697469616c697a61626c653a20636f6e7472616374206973206e6f74206960448201527f6e697469616c697a696e670000000000000000000000000000000000000000006064820152608401610880565b610eae336124c5565b6000807a184f03e93ff9f4daa797ed6e38ed64bf6a1f0100000000000000008310613170577a184f03e93ff9f4daa797ed6e38ed64bf6a1f010000000000000000830492506040015b6d04ee2d6d415b85acef8100000000831061319c576d04ee2d6d415b85acef8100000000830492506020015b662386f26fc1000083106131ba57662386f26fc10000830492506010015b6305f5e10083106131d2576305f5e100830492506008015b61271083106131e657612710830492506004015b606483106131f8576064830492506002015b600a83106105fa5760010192915050565b73ffffffffffffffffffffffffffffffffffffffff8216613286576040517f08c379a000000000000000000000000000000000000000000000000000000000815260206004820181905260248201527f4552433732313a206d696e7420746f20746865207a65726f20616464726573736044820152606401610880565b60008181526067602052604090205473ffffffffffffffffffffffffffffffffffffffff1615613312576040517f08c379a000000000000000000000000000000000000000000000000000000000815260206004820152601c60248201527f4552433732313a20746f6b656e20616c7265616479206d696e746564000000006044820152606401610880565b61331e60008383612cc4565b60008181526067602052604090205473ffffffffffffffffffffffffffffffffffffffff16156133aa576040517f08c379a000000000000000000000000000000000000000000000000000000000815260206004820152601c60248201527f4552433732313a20746f6b656e20616c7265616479206d696e746564000000006044820152606401610880565b73ffffffffffffffffffffffffffffffffffffffff8216600081815260686020908152604080832080546001019055848352606790915280822080547fffffffffffffffffffffffff0000000000000000000000000000000000000000168417905551839291907fddf252ad1be2c89b69c2b068fc378daa952ba7f163c4a11628f55a4df523b3ef908290a45050565b6000600161344784610dce565b61345191906140a6565b6000838152609860205260409020549091508082146134b15773ffffffffffffffffffffffffffffffffffffffff841660009081526097602090815260408083208584528252808320548484528184208190558352609890915290208190555b50600091825260986020908152604080842084905573ffffffffffffffffffffffffffffffffffffffff9094168352609781528383209183525290812055565b609954600090613503906001906140a6565b6000838152609a602052604081205460998054939450909284908110613552577f4e487b7100000000000000000000000000000000000000000000000000000000600052603260045260246000fd5b90600052602060002001549050806099838154811061359a577f4e487b7100000000000000000000000000000000000000000000000000000000600052603260045260246000fd5b6000918252602080832090910192909255828152609a909152604080822084905585825281205560998054806135f9577f4e487b7100000000000000000000000000000000000000000000000000000000600052603160045260246000fd5b6001900381819060005260206000200160009055905550505050565b600061362083610dce565b73ffffffffffffffffffffffffffffffffffffffff9093166000908152609760209081526040808320868452825280832085905593825260989052919091209190915550565b828054613672906140e9565b90600052602060002090601f01602090048101928261369457600085556136f8565b82601f106136cb578280017fffffffffffffffffffffffffffffffffffffffffffffffffffffffffffffff008235161785556136f8565b828001600101855582156136f8579182015b828111156136f85782358255916020019190600101906136dd565b506137049291506137b6565b5090565b508054613714906140e9565b6000825580601f10613724575050565b601f016020900490600052602060002090810190611b3791906137b6565b82805461374e906140e9565b90600052602060002090601f01602090048101928261377057600085556136f8565b82601f1061378957805160ff19168380011785556136f8565b828001600101855582156136f8579182015b828111156136f857825182559160200191906001019061379b565b5b8082111561370457600081556001016137b7565b803573ffffffffffffffffffffffffffffffffffffffff811681146137ef57600080fd5b919050565b60008083601f840112613805578081fd5b50813567ffffffffffffffff81111561381c578182fd5b6020830191508360208260051b850101111561383757600080fd5b9250929050565b60008083601f84011261384f578182fd5b50813567ffffffffffffffff811115613866578182fd5b60208301915083602082850101111561383757600080fd5b60006020828403121561388f578081fd5b613898826137cb565b9392505050565b600080604083850312156138b1578081fd5b6138ba836137cb565b91506138c8602084016137cb565b90509250929050565b6000806000606084860312156138e5578081fd5b6138ee846137cb565b92506138fc602085016137cb565b9150604084013590509250925092565b60008060008060808587031215613921578081fd5b61392a856137cb565b9350613938602086016137cb565b925060408501359150606085013567ffffffffffffffff8082111561395b578283fd5b818701915087601f83011261396e578283fd5b813581811115613980576139806141a5565b604051601f82017fffffffffffffffffffffffffffffffffffffffffffffffffffffffffffffffe0908116603f011681019083821181831017156139c6576139c66141a5565b816040528281528a60208487010111156139de578586fd5b82602086016020830137918201602001949094529598949750929550505050565b60008060408385031215613a11578182fd5b613a1a836137cb565b91506020830135613a2a816141d4565b809150509250929050565b60008060408385031215613a47578182fd5b613a50836137cb565b946020939093013593505050565b60008060008060408587031215613a73578384fd5b843567ffffffffffffffff80821115613a8a578586fd5b613a96888389016137f4565b90965094506020870135915080821115613aae578384fd5b50613abb878288016137f4565b95989497509550505050565b600060208284031215613ad8578081fd5b8151613898816141d4565b600060208284031215613af4578081fd5b8135613898816141e2565b600060208284031215613b10578081fd5b8151613898816141e2565b600080600060408486031215613b2f578283fd5b833567ffffffffffffffff811115613b45578384fd5b613b518682870161383e565b909790965060209590950135949350505050565b600060208284031215613b76578081fd5b5035919050565b600060208284031215613b8e578081fd5b5051919050565b60008060408385031215613ba7578182fd5b823591506138c8602084016137cb565b600080600060408486031215613bcb578081fd5b83359250602084013567ffffffffffffffff811115613be8578182fd5b613bf48682870161383e565b9497909650939450505050565b60008060408385031215613c13578182fd5b50508035926020909101359150565b60008151808452613c3a8160208601602086016140bd565b601f017fffffffffffffffffffffffffffffffffffffffffffffffffffffffffffffffe0169290920160200192915050565b7f7b226e616d65223a2200000000000000000000000000000000000000000000008152600083516020613ca582600986018389016140bd565b7f222c0000000000000000000000000000000000000000000000000000000000006009928501928301527f226465736372697074696f6e223a2248797065726c696e6b204e465420636f6c600b8301527f6c656374696f6e2063726561746564207769746820506172616d6920466f756e602b8301527f646174696f6e2200000000000000000000000000000000000000000000000000604b8301527f2c0000000000000000000000000000000000000000000000000000000000000060528301527f22696d616765223a22000000000000000000000000000000000000000000000060538301528454605c908490600181811c9080831680613da957607f831692505b868310811415613de0577f4e487b710000000000000000000000000000000000000000000000000000000089526022600452602489fd5b808015613df45760018114613e2757613e57565b7fffffffffffffffffffffffffffffffffffffffffffffffffffffffffffffff008516878a015286848a01019550613e57565b60008c8152602090208a5b85811015613e4d5781548b82018a0152908401908901613e32565b505086848a010195505b5050505050613eb5613e8c827f2200000000000000000000000000000000000000000000000000000000000000815260010190565b7f7d00000000000000000000000000000000000000000000000000000000000000815260010190565b98975050505050505050565b7f646174613a6170706c69636174696f6e2f6a736f6e3b6261736536342c000000815260008251613ef981601d8501602087016140bd565b91909101601d0192915050565b7f48797065726c696e6b204e465420436f6c6c656374696f6e2023200000000000815260008251613f3e81601b8501602087016140bd565b91909101601b0192915050565b600073ffffffffffffffffffffffffffffffffffffffff808716835280861660208401525083604083015260806060830152613f8a6080830184613c22565b9695505050505050565b6020815260006138986020830184613c22565b84815273ffffffffffffffffffffffffffffffffffffffff8416602082015260606040820152816060820152818360808301376000818301608090810191909152601f9092017fffffffffffffffffffffffffffffffffffffffffffffffffffffffffffffffe01601019392505050565b6000821982111561402b5761402b614176565b500190565b600082614064577f4e487b710000000000000000000000000000000000000000000000000000000081526012600452602481fd5b500490565b6000817fffffffffffffffffffffffffffffffffffffffffffffffffffffffffffffffff04831182151516156140a1576140a1614176565b500290565b6000828210156140b8576140b8614176565b500390565b60005b838110156140d85781810151838201526020016140c0565b8381111561064c5750506000910152565b600181811c908216806140fd57607f821691505b60208210811415614137577f4e487b7100000000000000000000000000000000000000000000000000000000600052602260045260246000fd5b50919050565b60007fffffffffffffffffffffffffffffffffffffffffffffffffffffffffffffffff82141561416f5761416f614176565b5060010190565b7f4e487b7100000000000000000000000000000000000000000000000000000000600052601160045260246000fd5b7f4e487b7100000000000000000000000000000000000000000000000000000000600052604160045260246000fd5b8015158114611b3757600080fd5b7fffffffff0000000000000000000000000000000000000000000000000000000081168114611b3757600080fdfe4142434445464748494a4b4c4d4e4f505152535455565758595a6162636465666768696a6b6c6d6e6f707172737475767778797a303132333435363738392b2fa164736f6c6343000804000a",
  "linkReferences": {},
  "deployedLinkReferences": {}
}