{
  "_format": "hh-sol-artifact-1",
  "contractName": "EIP5489ForInfluenceMining",
  "sourceName": "contracts/influencemining/EIP5489ForInfluenceMining.sol",
  "abi": [
    {
      "anonymous": false,
      "inputs": [
        {
          "indexed": true,
          "internalType": "address",
          "name": "owner",
          "type": "address"
        },
        {
          "indexed": true,
          "internalType": "address",
          "name": "approved",
          "type": "address"
        },
        {
          "indexed": true,
          "internalType": "uint256",
          "name": "tokenId",
          "type": "uint256"
        }
      ],
      "name": "Approval",
      "type": "event"
    },
    {
      "anonymous": false,
      "inputs": [
        {
          "indexed": true,
          "internalType": "address",
          "name": "owner",
          "type": "address"
        },
        {
          "indexed": true,
          "internalType": "address",
          "name": "operator",
          "type": "address"
        },
        {
          "indexed": false,
          "internalType": "bool",
          "name": "approved",
          "type": "bool"
        }
      ],
      "name": "ApprovalForAll",
      "type": "event"
    },
    {
      "anonymous": false,
      "inputs": [
        {
          "indexed": false,
          "internalType": "uint8",
          "name": "version",
          "type": "uint8"
        }
      ],
      "name": "Initialized",
      "type": "event"
    },
    {
      "anonymous": false,
      "inputs": [
        {
          "indexed": true,
          "internalType": "address",
          "name": "previousOwner",
          "type": "address"
        },
        {
          "indexed": true,
          "internalType": "address",
          "name": "newOwner",
          "type": "address"
        }
      ],
      "name": "OwnershipTransferred",
      "type": "event"
    },
    {
      "anonymous": false,
      "inputs": [
        {
          "indexed": false,
          "internalType": "uint256",
          "name": "tokenId",
          "type": "uint256"
        },
        {
          "indexed": false,
          "internalType": "address",
          "name": "slotManagerAddr",
          "type": "address"
        }
      ],
      "name": "SlotAuthorizationCreated",
      "type": "event"
    },
    {
      "anonymous": false,
      "inputs": [
        {
          "indexed": false,
          "internalType": "uint256",
          "name": "tokenId",
          "type": "uint256"
        },
        {
          "indexed": false,
          "internalType": "address",
          "name": "slotManagerAddr",
          "type": "address"
        }
      ],
      "name": "SlotAuthorizationRevoked",
      "type": "event"
    },
    {
      "anonymous": false,
      "inputs": [
        {
          "indexed": false,
          "internalType": "uint256",
          "name": "tokenId",
          "type": "uint256"
        },
        {
          "indexed": false,
          "internalType": "address",
          "name": "slotManagerAddr",
          "type": "address"
        },
        {
          "indexed": false,
          "internalType": "string",
          "name": "uri",
          "type": "string"
        }
      ],
      "name": "SlotUriUpdated",
      "type": "event"
    },
    {
      "anonymous": false,
      "inputs": [
        {
          "indexed": true,
          "internalType": "address",
          "name": "from",
          "type": "address"
        },
        {
          "indexed": true,
          "internalType": "address",
          "name": "to",
          "type": "address"
        },
        {
          "indexed": true,
          "internalType": "uint256",
          "name": "tokenId",
          "type": "uint256"
        }
      ],
      "name": "Transfer",
      "type": "event"
    },
    {
      "inputs": [
        {
          "internalType": "address",
          "name": "to",
          "type": "address"
        },
        {
          "internalType": "uint256",
          "name": "tokenId",
          "type": "uint256"
        }
      ],
      "name": "approve",
      "outputs": [],
      "stateMutability": "nonpayable",
      "type": "function"
    },
    {
      "inputs": [
        {
          "internalType": "uint256",
          "name": "tokenId",
          "type": "uint256"
        },
        {
          "internalType": "address",
          "name": "slotManagerAddr",
          "type": "address"
        }
      ],
      "name": "authorizeSlotTo",
      "outputs": [],
      "stateMutability": "nonpayable",
      "type": "function"
    },
    {
      "inputs": [
        {
          "internalType": "address",
          "name": "owner",
          "type": "address"
        }
      ],
      "name": "balanceOf",
      "outputs": [
        {
          "internalType": "uint256",
          "name": "",
          "type": "uint256"
        }
      ],
      "stateMutability": "view",
      "type": "function"
    },
    {
      "inputs": [
        {
          "internalType": "uint256",
          "name": "tokenId",
          "type": "uint256"
        }
      ],
      "name": "getApproved",
      "outputs": [
        {
          "internalType": "address",
          "name": "",
          "type": "address"
        }
      ],
      "stateMutability": "view",
      "type": "function"
    },
    {
      "inputs": [
        {
          "internalType": "uint256",
          "name": "tokenId",
          "type": "uint256"
        },
        {
          "internalType": "address",
          "name": "slotManagerAddr",
          "type": "address"
        }
      ],
      "name": "getSlotUri",
      "outputs": [
        {
          "internalType": "string",
          "name": "",
          "type": "string"
        }
      ],
      "stateMutability": "view",
      "type": "function"
    },
    {
      "inputs": [
        {
          "internalType": "address",
          "name": "_ad3Address",
          "type": "address"
        }
      ],
      "name": "initialize",
      "outputs": [],
      "stateMutability": "nonpayable",
      "type": "function"
    },
    {
      "inputs": [
        {
          "internalType": "address",
          "name": "owner",
          "type": "address"
        },
        {
          "internalType": "address",
          "name": "operator",
          "type": "address"
        }
      ],
      "name": "isApprovedForAll",
      "outputs": [
        {
          "internalType": "bool",
          "name": "",
          "type": "bool"
        }
      ],
      "stateMutability": "view",
      "type": "function"
    },
    {
      "inputs": [
        {
          "internalType": "uint256",
          "name": "tokenId",
          "type": "uint256"
        },
        {
          "internalType": "address",
          "name": "addr",
          "type": "address"
        }
      ],
      "name": "isSlotManager",
      "outputs": [
        {
          "internalType": "bool",
          "name": "",
          "type": "bool"
        }
      ],
      "stateMutability": "view",
      "type": "function"
    },
    {
      "inputs": [
        {
          "internalType": "uint256",
          "name": "",
          "type": "uint256"
        }
      ],
      "name": "level2Price",
      "outputs": [
        {
          "internalType": "uint256",
          "name": "",
          "type": "uint256"
        }
      ],
      "stateMutability": "view",
      "type": "function"
    },
    {
      "inputs": [
        {
          "internalType": "uint256",
          "name": "tokenId",
          "type": "uint256"
        },
        {
          "internalType": "uint256",
          "name": "targetTokenId",
          "type": "uint256"
        }
      ],
      "name": "linkTo",
      "outputs": [],
      "stateMutability": "nonpayable",
      "type": "function"
    },
    {
      "inputs": [
        {
          "internalType": "uint256[]",
          "name": "levels",
          "type": "uint256[]"
        },
        {
          "internalType": "uint256[]",
          "name": "prices",
          "type": "uint256[]"
        }
      ],
      "name": "manageLevelPrices",
      "outputs": [],
      "stateMutability": "nonpayable",
      "type": "function"
    },
    {
      "inputs": [
        {
          "internalType": "string",
          "name": "imageUri",
          "type": "string"
        },
        {
          "internalType": "uint256",
          "name": "targetLevel",
          "type": "uint256"
        }
      ],
      "name": "mint",
      "outputs": [],
      "stateMutability": "nonpayable",
      "type": "function"
    },
    {
      "inputs": [],
      "name": "name",
      "outputs": [
        {
          "internalType": "string",
          "name": "",
          "type": "string"
        }
      ],
      "stateMutability": "view",
      "type": "function"
    },
    {
      "inputs": [],
      "name": "owner",
      "outputs": [
        {
          "internalType": "address",
          "name": "",
          "type": "address"
        }
      ],
      "stateMutability": "view",
      "type": "function"
    },
    {
      "inputs": [
        {
          "internalType": "uint256",
          "name": "tokenId",
          "type": "uint256"
        }
      ],
      "name": "ownerOf",
      "outputs": [
        {
          "internalType": "address",
          "name": "",
          "type": "address"
        }
      ],
      "stateMutability": "view",
      "type": "function"
    },
    {
      "inputs": [],
      "name": "renounceOwnership",
      "outputs": [],
      "stateMutability": "nonpayable",
      "type": "function"
    },
    {
      "inputs": [
        {
          "internalType": "uint256",
          "name": "tokenId",
          "type": "uint256"
        }
      ],
      "name": "revokeAllAuthorizations",
      "outputs": [],
      "stateMutability": "nonpayable",
      "type": "function"
    },
    {
      "inputs": [
        {
          "internalType": "uint256",
          "name": "tokenId",
          "type": "uint256"
        },
        {
          "internalType": "address",
          "name": "slotManagerAddr",
          "type": "address"
        }
      ],
      "name": "revokeAuthorization",
      "outputs": [],
      "stateMutability": "nonpayable",
      "type": "function"
    },
    {
      "inputs": [
        {
          "internalType": "address",
          "name": "from",
          "type": "address"
        },
        {
          "internalType": "address",
          "name": "to",
          "type": "address"
        },
        {
          "internalType": "uint256",
          "name": "tokenId",
          "type": "uint256"
        }
      ],
      "name": "safeTransferFrom",
      "outputs": [],
      "stateMutability": "nonpayable",
      "type": "function"
    },
    {
      "inputs": [
        {
          "internalType": "address",
          "name": "from",
          "type": "address"
        },
        {
          "internalType": "address",
          "name": "to",
          "type": "address"
        },
        {
          "internalType": "uint256",
          "name": "tokenId",
          "type": "uint256"
        },
        {
          "internalType": "bytes",
          "name": "data",
          "type": "bytes"
        }
      ],
      "name": "safeTransferFrom",
      "outputs": [],
      "stateMutability": "nonpayable",
      "type": "function"
    },
    {
      "inputs": [
        {
          "internalType": "address",
          "name": "operator",
          "type": "address"
        },
        {
          "internalType": "bool",
          "name": "approved",
          "type": "bool"
        }
      ],
      "name": "setApprovalForAll",
      "outputs": [],
      "stateMutability": "nonpayable",
      "type": "function"
    },
    {
      "inputs": [
        {
          "internalType": "uint256",
          "name": "tokenId",
          "type": "uint256"
        },
        {
          "internalType": "string",
          "name": "value",
          "type": "string"
        }
      ],
      "name": "setSlotUri",
      "outputs": [],
      "stateMutability": "nonpayable",
      "type": "function"
    },
    {
      "inputs": [
        {
          "internalType": "bytes4",
          "name": "interfaceId",
          "type": "bytes4"
        }
      ],
      "name": "supportsInterface",
      "outputs": [
        {
          "internalType": "bool",
          "name": "",
          "type": "bool"
        }
      ],
      "stateMutability": "view",
      "type": "function"
    },
    {
      "inputs": [],
      "name": "symbol",
      "outputs": [
        {
          "internalType": "string",
          "name": "",
          "type": "string"
        }
      ],
      "stateMutability": "view",
      "type": "function"
    },
    {
      "inputs": [
        {
          "internalType": "uint256",
          "name": "",
          "type": "uint256"
        }
      ],
      "name": "token2Level",
      "outputs": [
        {
          "internalType": "uint256",
          "name": "",
          "type": "uint256"
        }
      ],
      "stateMutability": "view",
      "type": "function"
    },
    {
      "inputs": [
        {
          "internalType": "uint256",
          "name": "",
          "type": "uint256"
        }
      ],
      "name": "token2LinkTargetToken",
      "outputs": [
        {
          "internalType": "uint256",
          "name": "",
          "type": "uint256"
        }
      ],
      "stateMutability": "view",
      "type": "function"
    },
    {
      "inputs": [
        {
          "internalType": "uint256",
          "name": "index",
          "type": "uint256"
        }
      ],
      "name": "tokenByIndex",
      "outputs": [
        {
          "internalType": "uint256",
          "name": "",
          "type": "uint256"
        }
      ],
      "stateMutability": "view",
      "type": "function"
    },
    {
      "inputs": [
        {
          "internalType": "uint256",
          "name": "",
          "type": "uint256"
        }
      ],
      "name": "tokenId2AuthorizedAddress",
      "outputs": [
        {
          "internalType": "address",
          "name": "",
          "type": "address"
        }
      ],
      "stateMutability": "view",
      "type": "function"
    },
    {
      "inputs": [
        {
          "internalType": "uint256",
          "name": "",
          "type": "uint256"
        }
      ],
      "name": "tokenId2Hyperlink",
      "outputs": [
        {
          "internalType": "string",
          "name": "",
          "type": "string"
        }
      ],
      "stateMutability": "view",
      "type": "function"
    },
    {
      "inputs": [
        {
          "internalType": "uint256",
          "name": "",
          "type": "uint256"
        }
      ],
      "name": "tokenId2ImageUri",
      "outputs": [
        {
          "internalType": "string",
          "name": "",
          "type": "string"
        }
      ],
      "stateMutability": "view",
      "type": "function"
    },
    {
      "inputs": [
        {
          "internalType": "address",
          "name": "owner",
          "type": "address"
        },
        {
          "internalType": "uint256",
          "name": "index",
          "type": "uint256"
        }
      ],
      "name": "tokenOfOwnerByIndex",
      "outputs": [
        {
          "internalType": "uint256",
          "name": "",
          "type": "uint256"
        }
      ],
      "stateMutability": "view",
      "type": "function"
    },
    {
      "inputs": [
        {
          "internalType": "uint256",
          "name": "_tokenId",
          "type": "uint256"
        }
      ],
      "name": "tokenURI",
      "outputs": [
        {
          "internalType": "string",
          "name": "",
          "type": "string"
        }
      ],
      "stateMutability": "view",
      "type": "function"
    },
    {
      "inputs": [],
      "name": "totalSupply",
      "outputs": [
        {
          "internalType": "uint256",
          "name": "",
          "type": "uint256"
        }
      ],
      "stateMutability": "view",
      "type": "function"
    },
    {
      "inputs": [
        {
          "internalType": "address",
          "name": "from",
          "type": "address"
        },
        {
          "internalType": "address",
          "name": "to",
          "type": "address"
        },
        {
          "internalType": "uint256",
          "name": "tokenId",
          "type": "uint256"
        }
      ],
      "name": "transferFrom",
      "outputs": [],
      "stateMutability": "nonpayable",
      "type": "function"
    },
    {
      "inputs": [
        {
          "internalType": "address",
          "name": "newOwner",
          "type": "address"
        }
      ],
      "name": "transferOwnership",
      "outputs": [],
      "stateMutability": "nonpayable",
      "type": "function"
    },
    {
      "inputs": [
        {
          "internalType": "address",
          "name": "_ad3Address",
          "type": "address"
        }
      ],
      "name": "updateAd3Address",
      "outputs": [],
      "stateMutability": "nonpayable",
      "type": "function"
    },
    {
      "inputs": [
        {
          "internalType": "uint256",
          "name": "tokenId",
          "type": "uint256"
        },
        {
          "internalType": "uint256",
          "name": "targetLevel",
          "type": "uint256"
        }
      ],
      "name": "upgradeTo",
      "outputs": [],
      "stateMutability": "nonpayable",
      "type": "function"
    },
    {
      "inputs": [],
      "name": "withdrawAllAd3",
      "outputs": [],
      "stateMutability": "nonpayable",
      "type": "function"
    }
  ],
  "bytecode": "0x608060405234801561001057600080fd5b50614434806100206000396000f3fe608060405234801561001057600080fd5b50600436106102925760003560e01c8063715018a611610160578063c3612ef7116100d8578063d0ade91b1161008c578063e985e9c511610071578063e985e9c5146105cd578063f2fde38b14610616578063fef16a251461062957600080fd5b8063d0ade91b146105a7578063d65cabaa146105ba57600080fd5b8063c87b56dd116100bd578063c87b56dd14610545578063cf367f8414610558578063cfc3ac921461059457600080fd5b8063c3612ef71461051f578063c4d66de81461053257600080fd5b8063982424691161012f578063a9f4a85c11610114578063a9f4a85c146104c3578063b69134a1146104d6578063b88d4fde1461050c57600080fd5b806398242469146104a8578063a22cb465146104b057600080fd5b8063715018a614610467578063764df0151461046f5780638da5cb5b1461048257806395d89b41146104a057600080fd5b80632710a3b61161020e5780634f6ccce7116101c257806362ee7ba5116101a757806362ee7ba51461042e5780636352211e1461044157806370a082311461045457600080fd5b80634f6ccce714610408578063543e41c91461041b57600080fd5b8063388b1d01116101f3578063388b1d01146103b35780633b849925146103d457806342842e0e146103f557600080fd5b80632710a3b61461038d5780632f745c59146103a057600080fd5b8063081812fc1161026557806318160ddd1161024a57806318160ddd146103475780631ba8b6a31461035957806323b872dd1461037a57600080fd5b8063081812fc146102fc578063095ea7b31461033457600080fd5b806301ffc9a714610297578063056b01ce146102bf57806306fdde03146102d45780630754b2cc146102e9575b600080fd5b6102aa6102a5366004613cba565b61063c565b60405190151581526020015b60405180910390f35b6102d26102cd366004613cf2565b610698565b005b6102dc6106ea565b6040516102b6919061416b565b6102dc6102f7366004613d6c565b61077c565b61030f61030a366004613d3c565b61081f565b60405173ffffffffffffffffffffffffffffffffffffffff90911681526020016102b6565b6102d2610342366004613c0c565b610853565b6099545b6040519081526020016102b6565b61034b610367366004613d3c565b6101006020526000908152604090205481565b6102d2610388366004613aa8565b6109e5565b6102dc61039b366004613d3c565b610a86565b61034b6103ae366004613c0c565b610b20565b61034b6103c1366004613d3c565b6101026020526000908152604090205481565b61034b6103e2366004613d3c565b6101016020526000908152604090205481565b6102d2610403366004613aa8565b610bef565b61034b610416366004613d3c565b610c0a565b6102d2610429366004613d3c565b610cef565b6102d261043c366004613dd8565b610dda565b61030f61044f366004613d3c565b610eca565b61034b610462366004613a55565b610f56565b6102d2611024565b6102d261047d366004613c35565b611038565b60c95473ffffffffffffffffffffffffffffffffffffffff1661030f565b6102dc61118a565b6102d2611199565b6102d26104be366004613bd6565b611328565b6102d26104d1366004613a55565b611333565b61030f6104e4366004613d3c565b60fb6020526000908152604090205473ffffffffffffffffffffffffffffffffffffffff1681565b6102d261051a366004613ae3565b611382565b6102d261052d366004613d6c565b611424565b6102d2610540366004613a55565b611591565b6102dc610553366004613d3c565b6117d7565b6102aa610566366004613d6c565b600091825260fb60205260409091205473ffffffffffffffffffffffffffffffffffffffff91821691161490565b6102d26105a2366004613d6c565b611906565b6102d26105b5366004613d8e565b611a9c565b6102d26105c8366004613dd8565b611bc7565b6102aa6105db366004613a76565b73ffffffffffffffffffffffffffffffffffffffff9182166000908152606a6020908152604080832093909416825291909152205460ff1690565b6102d2610624366004613a55565b611c5a565b6102dc610637366004613d3c565b611d11565b60007fffffffff0000000000000000000000000000000000000000000000000000000082167f8f65987b000000000000000000000000000000000000000000000000000000001480610692575061069282611d2a565b92915050565b60006106a360995490565b6106ae9060016141ef565b90506106ba3382611d80565b600081815260fc602052604090206106d390858561383d565b5081156106e4576106e48183611d9a565b50505050565b6060606580546106f9906142c0565b80601f0160208091040260200160405190810160405280929190818152602001828054610725906142c0565b80156107725780601f1061074757610100808354040283529160200191610772565b820191906000526020600020905b81548152906001019060200180831161075557829003601f168201915b5050505050905090565b600082815260fd60205260409020805460609190610799906142c0565b80601f01602080910402602001604051908101604052809291908181526020018280546107c5906142c0565b80156108125780601f106107e757610100808354040283529160200191610812565b820191906000526020600020905b8154815290600101906020018083116107f557829003601f168201915b5050505050905092915050565b600061082a8261212a565b5060009081526069602052604090205473ffffffffffffffffffffffffffffffffffffffff1690565b600061085e82610eca565b90508073ffffffffffffffffffffffffffffffffffffffff168373ffffffffffffffffffffffffffffffffffffffff161415610921576040517f08c379a000000000000000000000000000000000000000000000000000000000815260206004820152602160248201527f4552433732313a20617070726f76616c20746f2063757272656e74206f776e6560448201527f720000000000000000000000000000000000000000000000000000000000000060648201526084015b60405180910390fd5b3373ffffffffffffffffffffffffffffffffffffffff8216148061094a575061094a81336105db565b6109d6576040517f08c379a000000000000000000000000000000000000000000000000000000000815260206004820152603d60248201527f4552433732313a20617070726f76652063616c6c6572206973206e6f7420746f60448201527f6b656e206f776e6572206f7220617070726f76656420666f7220616c6c0000006064820152608401610918565b6109e083836121b5565b505050565b6109ef3382612255565b610a7b576040517f08c379a000000000000000000000000000000000000000000000000000000000815260206004820152602d60248201527f4552433732313a2063616c6c6572206973206e6f7420746f6b656e206f776e6560448201527f72206f7220617070726f766564000000000000000000000000000000000000006064820152608401610918565b6109e0838383612315565b60fc6020526000908152604090208054610a9f906142c0565b80601f0160208091040260200160405190810160405280929190818152602001828054610acb906142c0565b8015610b185780601f10610aed57610100808354040283529160200191610b18565b820191906000526020600020905b815481529060010190602001808311610afb57829003601f168201915b505050505081565b6000610b2b83610f56565b8210610bb9576040517f08c379a000000000000000000000000000000000000000000000000000000000815260206004820152602b60248201527f455243373231456e756d657261626c653a206f776e657220696e646578206f7560448201527f74206f6620626f756e64730000000000000000000000000000000000000000006064820152608401610918565b5073ffffffffffffffffffffffffffffffffffffffff919091166000908152609760209081526040808320938352929052205490565b6109e083838360405180602001604052806000815250611382565b6000610c1560995490565b8210610ca3576040517f08c379a000000000000000000000000000000000000000000000000000000000815260206004820152602c60248201527f455243373231456e756d657261626c653a20676c6f62616c20696e646578206f60448201527f7574206f6620626f756e647300000000000000000000000000000000000000006064820152608401610918565b60998281548110610cdd577f4e487b7100000000000000000000000000000000000000000000000000000000600052603260045260246000fd5b90600052602060002001549050919050565b80610cf981610eca565b73ffffffffffffffffffffffffffffffffffffffff163273ffffffffffffffffffffffffffffffffffffffff161480610d655750610d3681610eca565b73ffffffffffffffffffffffffffffffffffffffff163373ffffffffffffffffffffffffffffffffffffffff16145b610dcb576040517f08c379a000000000000000000000000000000000000000000000000000000000815260206004820152601960248201527f73686f756c642062652074686520746f6b656e206f776e6572000000000000006044820152606401610918565b610dd6826000611424565b5050565b81610de481610eca565b73ffffffffffffffffffffffffffffffffffffffff163273ffffffffffffffffffffffffffffffffffffffff161480610e505750610e2181610eca565b73ffffffffffffffffffffffffffffffffffffffff163373ffffffffffffffffffffffffffffffffffffffff16145b610eb6576040517f08c379a000000000000000000000000000000000000000000000000000000000815260206004820152601960248201527f73686f756c642062652074686520746f6b656e206f776e6572000000000000006044820152606401610918565b506000918252610102602052604090912055565b60008181526067602052604081205473ffffffffffffffffffffffffffffffffffffffff1680610692576040517f08c379a000000000000000000000000000000000000000000000000000000000815260206004820152601860248201527f4552433732313a20696e76616c696420746f6b656e20494400000000000000006044820152606401610918565b600073ffffffffffffffffffffffffffffffffffffffff8216610ffb576040517f08c379a000000000000000000000000000000000000000000000000000000000815260206004820152602960248201527f4552433732313a2061646472657373207a65726f206973206e6f74206120766160448201527f6c6964206f776e657200000000000000000000000000000000000000000000006064820152608401610918565b5073ffffffffffffffffffffffffffffffffffffffff1660009081526068602052604090205490565b61102c61261b565b611036600061269c565b565b61104061261b565b8281146110ce576040517f08c379a0000000000000000000000000000000000000000000000000000000008152602060048201526024808201527f6c6576656c732e73697a652073686f756c6420657120746f207072696365732e60448201527f73697a65000000000000000000000000000000000000000000000000000000006064820152608401610918565b60005b8381101561118357828282818110611112577f4e487b7100000000000000000000000000000000000000000000000000000000600052603260045260246000fd5b905060200201356101016000878785818110611157577f4e487b7100000000000000000000000000000000000000000000000000000000600052603260045260246000fd5b90506020020135815260200190815260200160002081905550808061117b90614314565b9150506110d1565b5050505050565b6060606680546106f9906142c0565b6111a161261b565b60ff546040517f70a0823100000000000000000000000000000000000000000000000000000000815230600482015260009173ffffffffffffffffffffffffffffffffffffffff16906370a082319060240160206040518083038186803b15801561120b57600080fd5b505afa15801561121f573d6000803e3d6000fd5b505050506040513d601f19601f820116820180604052508101906112439190613d54565b60ff5490915073ffffffffffffffffffffffffffffffffffffffff1663a9059cbb61128360c95473ffffffffffffffffffffffffffffffffffffffff1690565b6040517fffffffff0000000000000000000000000000000000000000000000000000000060e084901b16815273ffffffffffffffffffffffffffffffffffffffff909116600482015260248101849052604401602060405180830381600087803b1580156112f057600080fd5b505af1158015611304573d6000803e3d6000fd5b505050506040513d601f19601f82011682018060405250810190610dd69190613c9e565b610dd6338383612713565b61133b61261b565b60ff80547fffffffffffffffffffffffff00000000000000000000000000000000000000001673ffffffffffffffffffffffffffffffffffffffff92909216919091179055565b61138c3383612255565b611418576040517f08c379a000000000000000000000000000000000000000000000000000000000815260206004820152602d60248201527f4552433732313a2063616c6c6572206973206e6f7420746f6b656e206f776e6560448201527f72206f7220617070726f766564000000000000000000000000000000000000006064820152608401610918565b6106e484848484612841565b8161142e81610eca565b73ffffffffffffffffffffffffffffffffffffffff163273ffffffffffffffffffffffffffffffffffffffff16148061149a575061146b81610eca565b73ffffffffffffffffffffffffffffffffffffffff163373ffffffffffffffffffffffffffffffffffffffff16145b611500576040517f08c379a000000000000000000000000000000000000000000000000000000000815260206004820152601960248201527f73686f756c642062652074686520746f6b656e206f776e6572000000000000006044820152606401610918565b600083815260fb602090815260408083205460fd909252822073ffffffffffffffffffffffffffffffffffffffff9091169161153c91906138df565b6040805185815273ffffffffffffffffffffffffffffffffffffffff831660208201527fb5941f6e357083b6bcaa8e6b7ae8cc1fe09249dd08844a1b6d621170d58c69e491015b60405180910390a150505050565b600054610100900460ff16158080156115b15750600054600160ff909116105b806115cb5750303b1580156115cb575060005460ff166001145b611657576040517f08c379a000000000000000000000000000000000000000000000000000000000815260206004820152602e60248201527f496e697469616c697a61626c653a20636f6e747261637420697320616c72656160448201527f647920696e697469616c697a65640000000000000000000000000000000000006064820152608401610918565b600080547fffffffffffffffffffffffffffffffffffffffffffffffffffffffffffffff0016600117905580156116b557600080547fffffffffffffffffffffffffffffffffffffffffffffffffffffffffffff00ff166101001790555b6117296040518060400160405280601881526020017f48797065726c696e6b204e465420436f6c6c656374696f6e00000000000000008152506040518060400160405280600481526020017f484e4654000000000000000000000000000000000000000000000000000000008152506128e4565b611731612985565b60ff80547fffffffffffffffffffffffff00000000000000000000000000000000000000001673ffffffffffffffffffffffffffffffffffffffff84161790558015610dd657600080547fffffffffffffffffffffffffffffffffffffffffffffffffffffffffffff00ff169055604051600181527f7f26b83ff96e1f2b6a682f133852f6798a09c465da95921460cefb38474024989060200160405180910390a15050565b60008181526067602052604090205460609073ffffffffffffffffffffffffffffffffffffffff16611865576040517f08c379a000000000000000000000000000000000000000000000000000000000815260206004820152601f60248201527f55524920717565727920666f72206e6f6e6578697374656e7420746f6b656e006044820152606401610918565b6118e061187183612a24565b60405160200161188191906140dd565b604080517fffffffffffffffffffffffffffffffffffffffffffffffffffffffffffffffe0818403018152828252600086815260fc60209081529290206118cc939192909101613e43565b604051602081830303815290604052612b13565b6040516020016118f09190614098565b6040516020818303038152906040529050919050565b8161191081610eca565b73ffffffffffffffffffffffffffffffffffffffff163273ffffffffffffffffffffffffffffffffffffffff16148061197c575061194d81610eca565b73ffffffffffffffffffffffffffffffffffffffff163373ffffffffffffffffffffffffffffffffffffffff16145b6119e2576040517f08c379a000000000000000000000000000000000000000000000000000000000815260206004820152601960248201527f73686f756c642062652074686520746f6b656e206f776e6572000000000000006044820152606401610918565b600083815260fb602052604090205473ffffffffffffffffffffffffffffffffffffffff8381169116146109e057600083815260fb602090815260409182902080547fffffffffffffffffffffffff00000000000000000000000000000000000000001673ffffffffffffffffffffffffffffffffffffffff86169081179091558251868152918201527fb6aac9d4aca74cc3c9b6f10668821ed9e7c5736feeb673bbbbd8b295ba2c5936910160405180910390a1505050565b82611aa681610eca565b73ffffffffffffffffffffffffffffffffffffffff163273ffffffffffffffffffffffffffffffffffffffff161480611b125750611ae381610eca565b73ffffffffffffffffffffffffffffffffffffffff163373ffffffffffffffffffffffffffffffffffffffff16145b611b78576040517f08c379a000000000000000000000000000000000000000000000000000000000815260206004820152601960248201527f73686f756c642062652074686520746f6b656e206f776e6572000000000000006044820152606401610918565b600084815260fd60205260409020611b9190848461383d565b507f3861e85a43f9ffebd047ed00860b7c5e4248d52895f611df7877c826ce5d229084338585604051611583949392919061417e565b6000611bd283610eca565b73ffffffffffffffffffffffffffffffffffffffff161415611c50576040517f08c379a000000000000000000000000000000000000000000000000000000000815260206004820152601360248201527f546f6b656e2073686f756c6420657869737473000000000000000000000000006044820152606401610918565b610dd68282611d9a565b611c6261261b565b73ffffffffffffffffffffffffffffffffffffffff8116611d05576040517f08c379a000000000000000000000000000000000000000000000000000000000815260206004820152602660248201527f4f776e61626c653a206e6577206f776e657220697320746865207a65726f206160448201527f64647265737300000000000000000000000000000000000000000000000000006064820152608401610918565b611d0e8161269c565b50565b60fd6020526000908152604090208054610a9f906142c0565b60007fffffffff0000000000000000000000000000000000000000000000000000000082167f780e9d63000000000000000000000000000000000000000000000000000000001480610692575061069282612d15565b610dd6828260405180602001604052806000815250612df8565b60008281526101006020526040902054808211611e39576040517f08c379a000000000000000000000000000000000000000000000000000000000815260206004820152602160248201527f7461726765744c6576656c2073686f756c6420472e542e2066726f6d4c65766560448201527f6c000000000000000000000000000000000000000000000000000000000000006064820152608401610918565b600081815261010160205260408082205484835291205480611eb7576040517f08c379a000000000000000000000000000000000000000000000000000000000815260206004820152601860248201527f7461726765744c6576656c2073686f756c6420657869737400000000000000006044820152606401610918565b818111611f46576040517f08c379a000000000000000000000000000000000000000000000000000000000815260206004820152602b60248201527f7461726765744c6576656c50726963652073686f756c6420472e542e2066726f60448201527f6d4c6576656c50726963650000000000000000000000000000000000000000006064820152608401610918565b60ff546040517f70a0823100000000000000000000000000000000000000000000000000000000815233600482015260009173ffffffffffffffffffffffffffffffffffffffff16906370a082319060240160206040518083038186803b158015611fb057600080fd5b505afa158015611fc4573d6000803e3d6000fd5b505050506040513d601f19601f82011682018060405250810190611fe89190613d54565b90506000611ff6848461427d565b9050808211612061576040517f08c379a000000000000000000000000000000000000000000000000000000000815260206004820152601660248201527f73686f756c64206861766520656e6f75676820616433000000000000000000006044820152606401610918565b60ff546040517f23b872dd0000000000000000000000000000000000000000000000000000000081523360048201523060248201526044810183905273ffffffffffffffffffffffffffffffffffffffff909116906323b872dd90606401602060405180830381600087803b1580156120d957600080fd5b505af11580156120ed573d6000803e3d6000fd5b505050506040513d601f19601f820116820180604052508101906121119190613c9e565b5050506000948552505061010060205250604090912055565b60008181526067602052604090205473ffffffffffffffffffffffffffffffffffffffff16611d0e576040517f08c379a000000000000000000000000000000000000000000000000000000000815260206004820152601860248201527f4552433732313a20696e76616c696420746f6b656e20494400000000000000006044820152606401610918565b600081815260696020526040902080547fffffffffffffffffffffffff00000000000000000000000000000000000000001673ffffffffffffffffffffffffffffffffffffffff8416908117909155819061220f82610eca565b73ffffffffffffffffffffffffffffffffffffffff167f8c5be1e5ebec7d5bd14f71427d1e84f3dd0314c0f7b2291e5b200ac8c7c3b92560405160405180910390a45050565b60008061226183610eca565b90508073ffffffffffffffffffffffffffffffffffffffff168473ffffffffffffffffffffffffffffffffffffffff1614806122cf575073ffffffffffffffffffffffffffffffffffffffff8082166000908152606a602090815260408083209388168352929052205460ff165b8061230d57508373ffffffffffffffffffffffffffffffffffffffff166122f58461081f565b73ffffffffffffffffffffffffffffffffffffffff16145b949350505050565b8273ffffffffffffffffffffffffffffffffffffffff1661233582610eca565b73ffffffffffffffffffffffffffffffffffffffff16146123d8576040517f08c379a000000000000000000000000000000000000000000000000000000000815260206004820152602560248201527f4552433732313a207472616e736665722066726f6d20696e636f72726563742060448201527f6f776e65720000000000000000000000000000000000000000000000000000006064820152608401610918565b73ffffffffffffffffffffffffffffffffffffffff821661247a576040517f08c379a0000000000000000000000000000000000000000000000000000000008152602060048201526024808201527f4552433732313a207472616e7366657220746f20746865207a65726f2061646460448201527f72657373000000000000000000000000000000000000000000000000000000006064820152608401610918565b612485838383612e9b565b8273ffffffffffffffffffffffffffffffffffffffff166124a582610eca565b73ffffffffffffffffffffffffffffffffffffffff1614612548576040517f08c379a000000000000000000000000000000000000000000000000000000000815260206004820152602560248201527f4552433732313a207472616e736665722066726f6d20696e636f72726563742060448201527f6f776e65720000000000000000000000000000000000000000000000000000006064820152608401610918565b600081815260696020908152604080832080547fffffffffffffffffffffffff000000000000000000000000000000000000000090811690915573ffffffffffffffffffffffffffffffffffffffff8781168086526068855283862080547fffffffffffffffffffffffffffffffffffffffffffffffffffffffffffffffff01905590871680865283862080546001019055868652606790945282852080549092168417909155905184937fddf252ad1be2c89b69c2b068fc378daa952ba7f163c4a11628f55a4df523b3ef91a4505050565b60c95473ffffffffffffffffffffffffffffffffffffffff163314611036576040517f08c379a000000000000000000000000000000000000000000000000000000000815260206004820181905260248201527f4f776e61626c653a2063616c6c6572206973206e6f7420746865206f776e65726044820152606401610918565b60c9805473ffffffffffffffffffffffffffffffffffffffff8381167fffffffffffffffffffffffff0000000000000000000000000000000000000000831681179093556040519116919082907f8be0079c531659141344cd1fd0a4f28419497f9722a3daafe3b4186f6b6457e090600090a35050565b8173ffffffffffffffffffffffffffffffffffffffff168373ffffffffffffffffffffffffffffffffffffffff1614156127a9576040517f08c379a000000000000000000000000000000000000000000000000000000000815260206004820152601960248201527f4552433732313a20617070726f766520746f2063616c6c6572000000000000006044820152606401610918565b73ffffffffffffffffffffffffffffffffffffffff8381166000818152606a602090815260408083209487168084529482529182902080547fffffffffffffffffffffffffffffffffffffffffffffffffffffffffffffff001686151590811790915591519182527f17307eab39ab6107e8899845ad3d59bd9653f200f220920489ca2b5937696c31910160405180910390a3505050565b61284c848484612315565b61285884848484612fa1565b6106e4576040517f08c379a000000000000000000000000000000000000000000000000000000000815260206004820152603260248201527f4552433732313a207472616e7366657220746f206e6f6e20455243373231526560448201527f63656976657220696d706c656d656e74657200000000000000000000000000006064820152608401610918565b600054610100900460ff1661297b576040517f08c379a000000000000000000000000000000000000000000000000000000000815260206004820152602b60248201527f496e697469616c697a61626c653a20636f6e7472616374206973206e6f74206960448201527f6e697469616c697a696e670000000000000000000000000000000000000000006064820152608401610918565b610dd682826131a0565b600054610100900460ff16612a1c576040517f08c379a000000000000000000000000000000000000000000000000000000000815260206004820152602b60248201527f496e697469616c697a61626c653a20636f6e7472616374206973206e6f74206960448201527f6e697469616c697a696e670000000000000000000000000000000000000000006064820152608401610918565b61103661325e565b60606000612a31836132fe565b600101905060008167ffffffffffffffff811115612a78577f4e487b7100000000000000000000000000000000000000000000000000000000600052604160045260246000fd5b6040519080825280601f01601f191660200182016040528015612aa2576020820181803683370190505b5090508181016020015b7fffffffffffffffffffffffffffffffffffffffffffffffffffffffffffffffff017f3031323334353637383961626364656600000000000000000000000000000000600a86061a8153600a8504945084612b0657612b0b565b612aac565b509392505050565b6060815160001415612b3357505060408051602081019091526000815290565b60006040518060600160405280604081526020016143e86040913990506000600384516002612b6291906141ef565b612b6c9190614207565b612b77906004614240565b90506000612b868260206141ef565b67ffffffffffffffff811115612bc5577f4e487b7100000000000000000000000000000000000000000000000000000000600052604160045260246000fd5b6040519080825280601f01601f191660200182016040528015612bef576020820181803683370190505b509050818152600183018586518101602084015b81831015612c5d5760039283018051603f601282901c811687015160f890811b8552600c83901c8216880151811b6001860152600683901c8216880151811b60028601529116860151901b93820193909352600401612c03565b600389510660018114612c775760028114612cc157612d07565b7f3d3d0000000000000000000000000000000000000000000000000000000000007ffffffffffffffffffffffffffffffffffffffffffffffffffffffffffffffffe830152612d07565b7f3d000000000000000000000000000000000000000000000000000000000000007fffffffffffffffffffffffffffffffffffffffffffffffffffffffffffffffff8301525b509398975050505050505050565b60007fffffffff0000000000000000000000000000000000000000000000000000000082167f80ac58cd000000000000000000000000000000000000000000000000000000001480612da857507fffffffff0000000000000000000000000000000000000000000000000000000082167f5b5e139f00000000000000000000000000000000000000000000000000000000145b8061069257507f01ffc9a7000000000000000000000000000000000000000000000000000000007fffffffff00000000000000000000000000000000000000000000000000000000831614610692565b612e0283836133e0565b612e0f6000848484612fa1565b6109e0576040517f08c379a000000000000000000000000000000000000000000000000000000000815260206004820152603260248201527f4552433732313a207472616e7366657220746f206e6f6e20455243373231526560448201527f63656976657220696d706c656d656e74657200000000000000000000000000006064820152608401610918565b73ffffffffffffffffffffffffffffffffffffffff8316612f0357612efe81609980546000838152609a60205260408120829055600182018355919091527f72a152ddfb8e864297c917af52ea6c1c68aead0fee1a62673fcc7e0c94979d000155565b612f40565b8173ffffffffffffffffffffffffffffffffffffffff168373ffffffffffffffffffffffffffffffffffffffff1614612f4057612f408382613611565b73ffffffffffffffffffffffffffffffffffffffff8216612f64576109e0816136c8565b8273ffffffffffffffffffffffffffffffffffffffff168273ffffffffffffffffffffffffffffffffffffffff16146109e0576109e082826137ec565b600073ffffffffffffffffffffffffffffffffffffffff84163b15613195576040517f150b7a0200000000000000000000000000000000000000000000000000000000815273ffffffffffffffffffffffffffffffffffffffff85169063150b7a0290613018903390899088908890600401614122565b602060405180830381600087803b15801561303257600080fd5b505af1925050508015613080575060408051601f3d9081017fffffffffffffffffffffffffffffffffffffffffffffffffffffffffffffffe016820190925261307d91810190613cd6565b60015b61314a573d8080156130ae576040519150601f19603f3d011682016040523d82523d6000602084013e6130b3565b606091505b508051613142576040517f08c379a000000000000000000000000000000000000000000000000000000000815260206004820152603260248201527f4552433732313a207472616e7366657220746f206e6f6e20455243373231526560448201527f63656976657220696d706c656d656e74657200000000000000000000000000006064820152608401610918565b805181602001fd5b7fffffffff00000000000000000000000000000000000000000000000000000000167f150b7a020000000000000000000000000000000000000000000000000000000014905061230d565b506001949350505050565b600054610100900460ff16613237576040517f08c379a000000000000000000000000000000000000000000000000000000000815260206004820152602b60248201527f496e697469616c697a61626c653a20636f6e7472616374206973206e6f74206960448201527f6e697469616c697a696e670000000000000000000000000000000000000000006064820152608401610918565b815161324a906065906020850190613919565b5080516109e0906066906020840190613919565b600054610100900460ff166132f5576040517f08c379a000000000000000000000000000000000000000000000000000000000815260206004820152602b60248201527f496e697469616c697a61626c653a20636f6e7472616374206973206e6f74206960448201527f6e697469616c697a696e670000000000000000000000000000000000000000006064820152608401610918565b6110363361269c565b6000807a184f03e93ff9f4daa797ed6e38ed64bf6a1f0100000000000000008310613347577a184f03e93ff9f4daa797ed6e38ed64bf6a1f010000000000000000830492506040015b6d04ee2d6d415b85acef81000000008310613373576d04ee2d6d415b85acef8100000000830492506020015b662386f26fc10000831061339157662386f26fc10000830492506010015b6305f5e10083106133a9576305f5e100830492506008015b61271083106133bd57612710830492506004015b606483106133cf576064830492506002015b600a83106106925760010192915050565b73ffffffffffffffffffffffffffffffffffffffff821661345d576040517f08c379a000000000000000000000000000000000000000000000000000000000815260206004820181905260248201527f4552433732313a206d696e7420746f20746865207a65726f20616464726573736044820152606401610918565b60008181526067602052604090205473ffffffffffffffffffffffffffffffffffffffff16156134e9576040517f08c379a000000000000000000000000000000000000000000000000000000000815260206004820152601c60248201527f4552433732313a20746f6b656e20616c7265616479206d696e746564000000006044820152606401610918565b6134f560008383612e9b565b60008181526067602052604090205473ffffffffffffffffffffffffffffffffffffffff1615613581576040517f08c379a000000000000000000000000000000000000000000000000000000000815260206004820152601c60248201527f4552433732313a20746f6b656e20616c7265616479206d696e746564000000006044820152606401610918565b73ffffffffffffffffffffffffffffffffffffffff8216600081815260686020908152604080832080546001019055848352606790915280822080547fffffffffffffffffffffffff0000000000000000000000000000000000000000168417905551839291907fddf252ad1be2c89b69c2b068fc378daa952ba7f163c4a11628f55a4df523b3ef908290a45050565b6000600161361e84610f56565b613628919061427d565b6000838152609860205260409020549091508082146136885773ffffffffffffffffffffffffffffffffffffffff841660009081526097602090815260408083208584528252808320548484528184208190558352609890915290208190555b50600091825260986020908152604080842084905573ffffffffffffffffffffffffffffffffffffffff9094168352609781528383209183525290812055565b6099546000906136da9060019061427d565b6000838152609a602052604081205460998054939450909284908110613729577f4e487b7100000000000000000000000000000000000000000000000000000000600052603260045260246000fd5b906000526020600020015490508060998381548110613771577f4e487b7100000000000000000000000000000000000000000000000000000000600052603260045260246000fd5b6000918252602080832090910192909255828152609a909152604080822084905585825281205560998054806137d0577f4e487b7100000000000000000000000000000000000000000000000000000000600052603160045260246000fd5b6001900381819060005260206000200160009055905550505050565b60006137f783610f56565b73ffffffffffffffffffffffffffffffffffffffff9093166000908152609760209081526040808320868452825280832085905593825260989052919091209190915550565b828054613849906142c0565b90600052602060002090601f01602090048101928261386b57600085556138cf565b82601f106138a2578280017fffffffffffffffffffffffffffffffffffffffffffffffffffffffffffffff008235161785556138cf565b828001600101855582156138cf579182015b828111156138cf5782358255916020019190600101906138b4565b506138db92915061398d565b5090565b5080546138eb906142c0565b6000825580601f106138fb575050565b601f016020900490600052602060002090810190611d0e919061398d565b828054613925906142c0565b90600052602060002090601f01602090048101928261394757600085556138cf565b82601f1061396057805160ff19168380011785556138cf565b828001600101855582156138cf579182015b828111156138cf578251825591602001919060010190613972565b5b808211156138db576000815560010161398e565b803573ffffffffffffffffffffffffffffffffffffffff811681146139c657600080fd5b919050565b60008083601f8401126139dc578081fd5b50813567ffffffffffffffff8111156139f3578182fd5b6020830191508360208260051b8501011115613a0e57600080fd5b9250929050565b60008083601f840112613a26578182fd5b50813567ffffffffffffffff811115613a3d578182fd5b602083019150836020828501011115613a0e57600080fd5b600060208284031215613a66578081fd5b613a6f826139a2565b9392505050565b60008060408385031215613a88578081fd5b613a91836139a2565b9150613a9f602084016139a2565b90509250929050565b600080600060608486031215613abc578081fd5b613ac5846139a2565b9250613ad3602085016139a2565b9150604084013590509250925092565b60008060008060808587031215613af8578081fd5b613b01856139a2565b9350613b0f602086016139a2565b925060408501359150606085013567ffffffffffffffff80821115613b32578283fd5b818701915087601f830112613b45578283fd5b813581811115613b5757613b5761437c565b604051601f82017fffffffffffffffffffffffffffffffffffffffffffffffffffffffffffffffe0908116603f01168101908382118183101715613b9d57613b9d61437c565b816040528281528a6020848701011115613bb5578586fd5b82602086016020830137918201602001949094529598949750929550505050565b60008060408385031215613be8578182fd5b613bf1836139a2565b91506020830135613c01816143ab565b809150509250929050565b60008060408385031215613c1e578182fd5b613c27836139a2565b946020939093013593505050565b60008060008060408587031215613c4a578384fd5b843567ffffffffffffffff80821115613c61578586fd5b613c6d888389016139cb565b90965094506020870135915080821115613c85578384fd5b50613c92878288016139cb565b95989497509550505050565b600060208284031215613caf578081fd5b8151613a6f816143ab565b600060208284031215613ccb578081fd5b8135613a6f816143b9565b600060208284031215613ce7578081fd5b8151613a6f816143b9565b600080600060408486031215613d06578283fd5b833567ffffffffffffffff811115613d1c578384fd5b613d2886828701613a15565b909790965060209590950135949350505050565b600060208284031215613d4d578081fd5b5035919050565b600060208284031215613d65578081fd5b5051919050565b60008060408385031215613d7e578182fd5b82359150613a9f602084016139a2565b600080600060408486031215613da2578081fd5b83359250602084013567ffffffffffffffff811115613dbf578182fd5b613dcb86828701613a15565b9497909650939450505050565b60008060408385031215613dea578182fd5b50508035926020909101359150565b60008151808452613e11816020860160208601614294565b601f017fffffffffffffffffffffffffffffffffffffffffffffffffffffffffffffffe0169290920160200192915050565b7f7b226e616d65223a2200000000000000000000000000000000000000000000008152600083516020613e7c8260098601838901614294565b7f222c0000000000000000000000000000000000000000000000000000000000006009928501928301527f226465736372697074696f6e223a2248797065726c696e6b204e465420636f6c600b8301527f6c656374696f6e2063726561746564207769746820506172616d6920466f756e602b8301527f646174696f6e2200000000000000000000000000000000000000000000000000604b8301527f2c0000000000000000000000000000000000000000000000000000000000000060528301527f22696d616765223a22000000000000000000000000000000000000000000000060538301528454605c908490600181811c9080831680613f8057607f831692505b868310811415613fb7577f4e487b710000000000000000000000000000000000000000000000000000000089526022600452602489fd5b808015613fcb5760018114613ffe5761402e565b7fffffffffffffffffffffffffffffffffffffffffffffffffffffffffffffff008516878a015286848a0101955061402e565b60008c8152602090208a5b858110156140245781548b82018a0152908401908901614009565b505086848a010195505b505050505061408c614063827f2200000000000000000000000000000000000000000000000000000000000000815260010190565b7f7d00000000000000000000000000000000000000000000000000000000000000815260010190565b98975050505050505050565b7f646174613a6170706c69636174696f6e2f6a736f6e3b6261736536342c0000008152600082516140d081601d850160208701614294565b91909101601d0192915050565b7f48797065726c696e6b204e465420436f6c6c656374696f6e202320000000000081526000825161411581601b850160208701614294565b91909101601b0192915050565b600073ffffffffffffffffffffffffffffffffffffffff8087168352808616602084015250836040830152608060608301526141616080830184613df9565b9695505050505050565b602081526000613a6f6020830184613df9565b84815273ffffffffffffffffffffffffffffffffffffffff8416602082015260606040820152816060820152818360808301376000818301608090810191909152601f9092017fffffffffffffffffffffffffffffffffffffffffffffffffffffffffffffffe01601019392505050565b600082198211156142025761420261434d565b500190565b60008261423b577f4e487b710000000000000000000000000000000000000000000000000000000081526012600452602481fd5b500490565b6000817fffffffffffffffffffffffffffffffffffffffffffffffffffffffffffffffff04831182151516156142785761427861434d565b500290565b60008282101561428f5761428f61434d565b500390565b60005b838110156142af578181015183820152602001614297565b838111156106e45750506000910152565b600181811c908216806142d457607f821691505b6020821081141561430e577f4e487b7100000000000000000000000000000000000000000000000000000000600052602260045260246000fd5b50919050565b60007fffffffffffffffffffffffffffffffffffffffffffffffffffffffffffffffff8214156143465761434661434d565b5060010190565b7f4e487b7100000000000000000000000000000000000000000000000000000000600052601160045260246000fd5b7f4e487b7100000000000000000000000000000000000000000000000000000000600052604160045260246000fd5b8015158114611d0e57600080fd5b7fffffffff0000000000000000000000000000000000000000000000000000000081168114611d0e57600080fdfe4142434445464748494a4b4c4d4e4f505152535455565758595a6162636465666768696a6b6c6d6e6f707172737475767778797a303132333435363738392b2fa164736f6c6343000804000a",
  "linkReferences": {},
  "deployedLinkReferences": {}
}