{
  "_format": "hh-sol-artifact-1",
  "contractName": "HNFTGovernance",
  "sourceName": "contracts/influencemining/HNFTGovernance.sol",
  "abi": [
    {
      "anonymous": false,
      "inputs": [
        {
          "indexed": true,
          "internalType": "uint256",
          "name": "nftId",
          "type": "uint256"
        },
        {
          "indexed": true,
          "internalType": "address",
          "name": "erc20Address",
          "type": "address"
        }
      ],
      "name": "Governance",
      "type": "event"
    },
    {
      "inputs": [
        {
          "internalType": "address",
          "name": "hnftAddress",
          "type": "address"
        },
        {
          "internalType": "uint256",
          "name": "nftId",
          "type": "uint256"
        }
      ],
      "name": "getGovernanceToken",
      "outputs": [
        {
          "internalType": "address",
          "name": "",
          "type": "address"
        }
      ],
      "stateMutability": "view",
      "type": "function"
    },
    {
      "inputs": [
        {
          "internalType": "address",
          "name": "hnftAddress",
          "type": "address"
        },
        {
          "internalType": "uint256",
          "name": "nftId",
          "type": "uint256"
        },
        {
          "internalType": "address",
          "name": "erc20Address",
          "type": "address"
        }
      ],
      "name": "governWith",
      "outputs": [],
      "stateMutability": "nonpayable",
      "type": "function"
    },
    {
      "inputs": [
        {
          "internalType": "address",
          "name": "",
          "type": "address"
        },
        {
          "internalType": "uint256",
          "name": "",
          "type": "uint256"
        }
      ],
      "name": "hnft2tokenId2GovernanceToken",
      "outputs": [
        {
          "internalType": "address",
          "name": "",
          "type": "address"
        }
      ],
      "stateMutability": "view",
      "type": "function"
    }
  ],
  "bytecode": "0x608060405234801561001057600080fd5b50610408806100206000396000f3fe608060405234801561001057600080fd5b50600436106100415760003560e01c806364eea6b714610046578063d96917f01461005b578063ec4156f9146100c2575b600080fd5b610059610054366004610395565b610103565b005b61009961006936600461036a565b600060208181529281526040808220909352908152205473ffffffffffffffffffffffffffffffffffffffff1681565b60405173ffffffffffffffffffffffffffffffffffffffff909116815260200160405180910390f35b6100996100d036600461036a565b73ffffffffffffffffffffffffffffffffffffffff91821660009081526020818152604080832093835292905220541690565b6040517f6352211e000000000000000000000000000000000000000000000000000000008152600481018390528390339073ffffffffffffffffffffffffffffffffffffffff831690636352211e9060240160206040518083038186803b15801561016d57600080fd5b505afa158015610181573d6000803e3d6000fd5b505050506040513d601f19601f820116820180604052508101906101a59190610347565b73ffffffffffffffffffffffffffffffffffffffff1614610227576040517f08c379a000000000000000000000000000000000000000000000000000000000815260206004820152601f60248201527f4f6e6c7920746865204e4654206f776e65722063616e20676f7665726e65640060448201526064015b60405180910390fd5b73ffffffffffffffffffffffffffffffffffffffff84811660009081526020818152604080832087845290915290205416156102bf576040517f08c379a000000000000000000000000000000000000000000000000000000000815260206004820152601760248201527f4e465420686173206265636f6d6520676f7665726e6564000000000000000000604482015260640161021e565b73ffffffffffffffffffffffffffffffffffffffff84811660009081526020818152604080832087845290915280822080547fffffffffffffffffffffffff00000000000000000000000000000000000000001693861693841790555185917fa39bc13b23bd744d072b78bff33452dbfbbc907de9abecdd014ad84f7762f6b291a350505050565b600060208284031215610358578081fd5b8151610363816103d6565b9392505050565b6000806040838503121561037c578081fd5b8235610387816103d6565b946020939093013593505050565b6000806000606084860312156103a9578081fd5b83356103b4816103d6565b92506020840135915060408401356103cb816103d6565b809150509250925092565b73ffffffffffffffffffffffffffffffffffffffff811681146103f857600080fd5b5056fea164736f6c6343000804000a",
  "linkReferences": {},
  "deployedLinkReferences": {}
}