{
  "_format": "hh-sol-artifact-1",
  "contractName": "SignatureERC20Withdraw",
  "sourceName": "contracts/influencemining/SignatureERC20Withdraw.sol",
  "abi": [
    {
      "anonymous": false,
      "inputs": [
        {
          "indexed": false,
          "internalType": "uint8",
          "name": "version",
          "type": "uint8"
        }
      ],
      "name": "Initialized",
      "type": "event"
    },
    {
      "anonymous": false,
      "inputs": [
        {
          "indexed": true,
          "internalType": "address",
          "name": "previousOwner",
          "type": "address"
        },
        {
          "indexed": true,
          "internalType": "address",
          "name": "newOwner",
          "type": "address"
        }
      ],
      "name": "OwnershipTransferred",
      "type": "event"
    },
    {
      "anonymous": false,
      "inputs": [
        {
          "indexed": false,
          "internalType": "address",
          "name": "account",
          "type": "address"
        }
      ],
      "name": "Paused",
      "type": "event"
    },
    {
      "anonymous": false,
      "inputs": [
        {
          "indexed": false,
          "internalType": "address",
          "name": "account",
          "type": "address"
        }
      ],
      "name": "Unpaused",
      "type": "event"
    },
    {
      "inputs": [
        {
          "internalType": "address",
          "name": "",
          "type": "address"
        },
        {
          "internalType": "uint256",
          "name": "",
          "type": "uint256"
        }
      ],
      "name": "addressNonceUsed",
      "outputs": [
        {
          "internalType": "bool",
          "name": "",
          "type": "bool"
        }
      ],
      "stateMutability": "view",
      "type": "function"
    },
    {
      "inputs": [],
      "name": "attester",
      "outputs": [
        {
          "internalType": "address",
          "name": "",
          "type": "address"
        }
      ],
      "stateMutability": "view",
      "type": "function"
    },
    {
      "inputs": [],
      "name": "chainId",
      "outputs": [
        {
          "internalType": "uint256",
          "name": "",
          "type": "uint256"
        }
      ],
      "stateMutability": "view",
      "type": "function"
    },
    {
      "inputs": [],
      "name": "erc20Address",
      "outputs": [
        {
          "internalType": "contract IERC20",
          "name": "",
          "type": "address"
        }
      ],
      "stateMutability": "view",
      "type": "function"
    },
    {
      "inputs": [
        {
          "internalType": "address",
          "name": "_erc20Address",
          "type": "address"
        },
        {
          "internalType": "uint256",
          "name": "_chainId",
          "type": "uint256"
        },
        {
          "internalType": "address",
          "name": "_attester",
          "type": "address"
        }
      ],
      "name": "initialize",
      "outputs": [],
      "stateMutability": "nonpayable",
      "type": "function"
    },
    {
      "inputs": [
        {
          "internalType": "address",
          "name": "_erc20Address",
          "type": "address"
        },
        {
          "internalType": "uint256",
          "name": "_chainId",
          "type": "uint256"
        },
        {
          "internalType": "address",
          "name": "_attester",
          "type": "address"
        }
      ],
      "name": "manageInitializerParams",
      "outputs": [],
      "stateMutability": "nonpayable",
      "type": "function"
    },
    {
      "inputs": [],
      "name": "owner",
      "outputs": [
        {
          "internalType": "address",
          "name": "",
          "type": "address"
        }
      ],
      "stateMutability": "view",
      "type": "function"
    },
    {
      "inputs": [],
      "name": "ownerPause",
      "outputs": [],
      "stateMutability": "nonpayable",
      "type": "function"
    },
    {
      "inputs": [],
      "name": "ownerUnPause",
      "outputs": [],
      "stateMutability": "nonpayable",
      "type": "function"
    },
    {
      "inputs": [],
      "name": "paused",
      "outputs": [
        {
          "internalType": "bool",
          "name": "",
          "type": "bool"
        }
      ],
      "stateMutability": "view",
      "type": "function"
    },
    {
      "inputs": [],
      "name": "renounceOwnership",
      "outputs": [],
      "stateMutability": "nonpayable",
      "type": "function"
    },
    {
      "inputs": [
        {
          "internalType": "address",
          "name": "newOwner",
          "type": "address"
        }
      ],
      "name": "transferOwnership",
      "outputs": [],
      "stateMutability": "nonpayable",
      "type": "function"
    },
    {
      "inputs": [
        {
          "internalType": "address",
          "name": "_erc20Address",
          "type": "address"
        },
        {
          "internalType": "uint256",
          "name": "_chainId",
          "type": "uint256"
        }
      ],
      "name": "updateInitParams",
      "outputs": [],
      "stateMutability": "nonpayable",
      "type": "function"
    },
    {
      "inputs": [
        {
          "internalType": "address",
          "name": "to",
          "type": "address"
        },
        {
          "internalType": "uint256",
          "name": "_chainId",
          "type": "uint256"
        },
        {
          "internalType": "uint256",
          "name": "amount",
          "type": "uint256"
        },
        {
          "internalType": "uint256",
          "name": "nounce",
          "type": "uint256"
        },
        {
          "internalType": "bytes",
          "name": "signature",
          "type": "bytes"
        }
      ],
      "name": "withdraw",
      "outputs": [
        {
          "internalType": "bool",
          "name": "",
          "type": "bool"
        }
      ],
      "stateMutability": "nonpayable",
      "type": "function"
    },
    {
      "inputs": [
        {
          "internalType": "address",
          "name": "erc20Address",
          "type": "address"
        }
      ],
      "name": "withdrawAllOfERC20",
      "outputs": [],
      "stateMutability": "nonpayable",
      "type": "function"
    }
  ],
  "bytecode": "0x608060405234801561001057600080fd5b506117d1806100206000396000f3fe608060405234801561001057600080fd5b50600436106100f55760003560e01c8063967f1cc611610097578063ddf1858a11610066578063ddf1858a1461026f578063ed2b428114610282578063f01b80db1461028a578063f2fde38b1461029d57600080fd5b8063967f1cc61461020f5780639a8a059214610217578063c350a1b51461022e578063cd9073151461024157600080fd5b80635c975abb116100d35780635c975abb146101bf578063715018a6146101d6578063786a0946146101de5780638da5cb5b146101f157600080fd5b806321a629d2146100fa578063276184ae1461015557806347b0c3b31461019f575b600080fd5b6101536101083660046115c4565b609780547fffffffffffffffffffffffff00000000000000000000000000000000000000001673ffffffffffffffffffffffffffffffffffffffff9390931692909217909155609855565b005b6097546101759073ffffffffffffffffffffffffffffffffffffffff1681565b60405173ffffffffffffffffffffffffffffffffffffffff90911681526020015b60405180910390f35b609a546101759073ffffffffffffffffffffffffffffffffffffffff1681565b60655460ff165b6040519015158152602001610196565b6101536102b0565b6101536101ec3660046115ed565b6102c4565b60335473ffffffffffffffffffffffffffffffffffffffff16610175565b610153610325565b61022060985481565b604051908152602001610196565b61015361023c3660046115ed565b610335565b6101c661024f3660046115c4565b609960209081526000928352604080842090915290825290205460ff1681565b6101c661027d366004611628565b610531565b6101536108c1565b6101536102983660046115a3565b6108d1565b6101536102ab3660046115a3565b610a5d565b6102b8610b14565b6102c26000610b95565b565b6102cc610b14565b6097805473ffffffffffffffffffffffffffffffffffffffff9485167fffffffffffffffffffffffff000000000000000000000000000000000000000091821617909155609892909255609a8054919093169116179055565b61032d610b14565b6102c2610c0c565b600054610100900460ff16158080156103555750600054600160ff909116105b8061036f5750303b15801561036f575060005460ff166001145b610400576040517f08c379a000000000000000000000000000000000000000000000000000000000815260206004820152602e60248201527f496e697469616c697a61626c653a20636f6e747261637420697320616c72656160448201527f647920696e697469616c697a656400000000000000000000000000000000000060648201526084015b60405180910390fd5b600080547fffffffffffffffffffffffffffffffffffffffffffffffffffffffffffffff00166001179055801561045e57600080547fffffffffffffffffffffffffffffffffffffffffffffffffffffffffffff00ff166101001790555b610466610c91565b61046e610d30565b6097805473ffffffffffffffffffffffffffffffffffffffff8087167fffffffffffffffffffffffff0000000000000000000000000000000000000000928316179092556098859055609a805492851692909116919091179055801561052b57600080547fffffffffffffffffffffffffffffffffffffffffffffffffffffffffffff00ff169055604051600181527f7f26b83ff96e1f2b6a682f133852f6798a09c465da95921460cefb38474024989060200160405180910390a15b50505050565b600061053b610dcf565b84609854146105cc576040517f08c379a000000000000000000000000000000000000000000000000000000000815260206004820152603560248201527f636861696e496420696e20706172616d732073686f756c64206d61746368207460448201527f686520636f6e7472616374277320636861696e4964000000000000000000000060648201526084016103f7565b60408051606088901b7fffffffffffffffffffffffffffffffffffffffff0000000000000000000000001660208083019190915260348201889052605482018790526074808301879052835180840390910181526094830184528051908201207f19457468657265756d205369676e6564204d6573736167653a0a33320000000060b484015260d08084018290528451808503909101815260f09093019093528151910120600061067d8286610e3c565b905073ffffffffffffffffffffffffffffffffffffffff8116158015906106be5750609a5473ffffffffffffffffffffffffffffffffffffffff8281169116145b610724576040517f08c379a000000000000000000000000000000000000000000000000000000000815260206004820152601360248201527f7369676e6174757265206e6f742076616c69640000000000000000000000000060448201526064016103f7565b73ffffffffffffffffffffffffffffffffffffffff8916600090815260996020908152604080832089845290915290205460ff16156107bf576040517f08c379a000000000000000000000000000000000000000000000000000000000815260206004820152601460248201527f6e6f756e6365206d757374206e6f74207573656400000000000000000000000060448201526064016103f7565b73ffffffffffffffffffffffffffffffffffffffff89811660008181526099602090815260408083208b84529091529081902080547fffffffffffffffffffffffffffffffffffffffffffffffffffffffffffffff0016600117905560975490517fa9059cbb0000000000000000000000000000000000000000000000000000000081526004810192909252602482018a90529091169063a9059cbb90604401602060405180830381600087803b15801561087957600080fd5b505af115801561088d573d6000803e3d6000fd5b505050506040513d601f19601f820116820180604052508101906108b19190611720565b5060019998505050505050505050565b6108c9610b14565b6102c2610e60565b6108d9610b14565b6040517f70a08231000000000000000000000000000000000000000000000000000000008152306004820152819060009073ffffffffffffffffffffffffffffffffffffffff8316906370a082319060240160206040518083038186803b15801561094357600080fd5b505afa158015610957573d6000803e3d6000fd5b505050506040513d601f19601f8201168201806040525081019061097b9190611740565b90508173ffffffffffffffffffffffffffffffffffffffff1663a9059cbb6109b860335473ffffffffffffffffffffffffffffffffffffffff1690565b6040517fffffffff0000000000000000000000000000000000000000000000000000000060e084901b16815273ffffffffffffffffffffffffffffffffffffffff909116600482015260248101849052604401602060405180830381600087803b158015610a2557600080fd5b505af1158015610a39573d6000803e3d6000fd5b505050506040513d601f19601f8201168201806040525081019061052b9190611720565b610a65610b14565b73ffffffffffffffffffffffffffffffffffffffff8116610b08576040517f08c379a000000000000000000000000000000000000000000000000000000000815260206004820152602660248201527f4f776e61626c653a206e6577206f776e657220697320746865207a65726f206160448201527f646472657373000000000000000000000000000000000000000000000000000060648201526084016103f7565b610b1181610b95565b50565b60335473ffffffffffffffffffffffffffffffffffffffff1633146102c2576040517f08c379a000000000000000000000000000000000000000000000000000000000815260206004820181905260248201527f4f776e61626c653a2063616c6c6572206973206e6f7420746865206f776e657260448201526064016103f7565b6033805473ffffffffffffffffffffffffffffffffffffffff8381167fffffffffffffffffffffffff0000000000000000000000000000000000000000831681179093556040519116919082907f8be0079c531659141344cd1fd0a4f28419497f9722a3daafe3b4186f6b6457e090600090a35050565b610c14610dcf565b606580547fffffffffffffffffffffffffffffffffffffffffffffffffffffffffffffff001660011790557f62e78cea01bee320cd4e420270b5ea74000d11b0c9f74754ebdbfc544b05a258610c673390565b60405173ffffffffffffffffffffffffffffffffffffffff909116815260200160405180910390a1565b600054610100900460ff16610d28576040517f08c379a000000000000000000000000000000000000000000000000000000000815260206004820152602b60248201527f496e697469616c697a61626c653a20636f6e7472616374206973206e6f74206960448201527f6e697469616c697a696e6700000000000000000000000000000000000000000060648201526084016103f7565b6102c2610eb7565b600054610100900460ff16610dc7576040517f08c379a000000000000000000000000000000000000000000000000000000000815260206004820152602b60248201527f496e697469616c697a61626c653a20636f6e7472616374206973206e6f74206960448201527f6e697469616c697a696e6700000000000000000000000000000000000000000060648201526084016103f7565b6102c2610f57565b60655460ff16156102c2576040517f08c379a000000000000000000000000000000000000000000000000000000000815260206004820152601060248201527f5061757361626c653a207061757365640000000000000000000000000000000060448201526064016103f7565b6000806000610e4b8585611018565b91509150610e5881611088565b509392505050565b610e686113a4565b606580547fffffffffffffffffffffffffffffffffffffffffffffffffffffffffffffff001690557f5db9ee0a495bf2e6ff9c91a7834c1ba4fdd244a5e8aa4e537bd38aeae4b073aa33610c67565b600054610100900460ff16610f4e576040517f08c379a000000000000000000000000000000000000000000000000000000000815260206004820152602b60248201527f496e697469616c697a61626c653a20636f6e7472616374206973206e6f74206960448201527f6e697469616c697a696e6700000000000000000000000000000000000000000060648201526084016103f7565b6102c233610b95565b600054610100900460ff16610fee576040517f08c379a000000000000000000000000000000000000000000000000000000000815260206004820152602b60248201527f496e697469616c697a61626c653a20636f6e7472616374206973206e6f74206960448201527f6e697469616c697a696e6700000000000000000000000000000000000000000060648201526084016103f7565b606580547fffffffffffffffffffffffffffffffffffffffffffffffffffffffffffffff00169055565b60008082516041141561104f5760208301516040840151606085015160001a61104387828585611410565b94509450505050611081565b825160401415611079576020830151604084015161106e868383611528565b935093505050611081565b506000905060025b9250929050565b60008160048111156110c3577f4e487b7100000000000000000000000000000000000000000000000000000000600052602160045260246000fd5b14156110cc5750565b6001816004811115611107577f4e487b7100000000000000000000000000000000000000000000000000000000600052602160045260246000fd5b141561116f576040517f08c379a000000000000000000000000000000000000000000000000000000000815260206004820152601860248201527f45434453413a20696e76616c6964207369676e6174757265000000000000000060448201526064016103f7565b60028160048111156111aa577f4e487b7100000000000000000000000000000000000000000000000000000000600052602160045260246000fd5b1415611212576040517f08c379a000000000000000000000000000000000000000000000000000000000815260206004820152601f60248201527f45434453413a20696e76616c6964207369676e6174757265206c656e6774680060448201526064016103f7565b600381600481111561124d577f4e487b7100000000000000000000000000000000000000000000000000000000600052602160045260246000fd5b14156112db576040517f08c379a000000000000000000000000000000000000000000000000000000000815260206004820152602260248201527f45434453413a20696e76616c6964207369676e6174757265202773272076616c60448201527f756500000000000000000000000000000000000000000000000000000000000060648201526084016103f7565b6004816004811115611316577f4e487b7100000000000000000000000000000000000000000000000000000000600052602160045260246000fd5b1415610b11576040517f08c379a000000000000000000000000000000000000000000000000000000000815260206004820152602260248201527f45434453413a20696e76616c6964207369676e6174757265202776272076616c60448201527f756500000000000000000000000000000000000000000000000000000000000060648201526084016103f7565b60655460ff166102c2576040517f08c379a000000000000000000000000000000000000000000000000000000000815260206004820152601460248201527f5061757361626c653a206e6f742070617573656400000000000000000000000060448201526064016103f7565b6000807f7fffffffffffffffffffffffffffffff5d576e7357a4501ddfe92f46681b20a0831115611447575060009050600361151f565b8460ff16601b1415801561145f57508460ff16601c14155b15611470575060009050600461151f565b6040805160008082526020820180845289905260ff881692820192909252606081018690526080810185905260019060a0016020604051602081039080840390855afa1580156114c4573d6000803e3d6000fd5b50506040517fffffffffffffffffffffffffffffffffffffffffffffffffffffffffffffffe0015191505073ffffffffffffffffffffffffffffffffffffffff81166115185760006001925092505061151f565b9150600090505b94509492505050565b6000807f7fffffffffffffffffffffffffffffffffffffffffffffffffffffffffffffff83168161155e60ff86901c601b611758565b905061156c87828885611410565b935093505050935093915050565b803573ffffffffffffffffffffffffffffffffffffffff8116811461159e57600080fd5b919050565b6000602082840312156115b4578081fd5b6115bd8261157a565b9392505050565b600080604083850312156115d6578081fd5b6115df8361157a565b946020939093013593505050565b600080600060608486031215611601578081fd5b61160a8461157a565b92506020840135915061161f6040850161157a565b90509250925092565b600080600080600060a0868803121561163f578081fd5b6116488661157a565b9450602086013593506040860135925060608601359150608086013567ffffffffffffffff80821115611679578283fd5b818801915088601f83011261168c578283fd5b81358181111561169e5761169e611795565b604051601f82017fffffffffffffffffffffffffffffffffffffffffffffffffffffffffffffffe0908116603f011681019083821181831017156116e4576116e4611795565b816040528281528b60208487010111156116fc578586fd5b82602086016020830137856020848301015280955050505050509295509295909350565b600060208284031215611731578081fd5b815180151581146115bd578182fd5b600060208284031215611751578081fd5b5051919050565b60008219821115611790577f4e487b710000000000000000000000000000000000000000000000000000000081526011600452602481fd5b500190565b7f4e487b7100000000000000000000000000000000000000000000000000000000600052604160045260246000fdfea164736f6c6343000804000a",
  "linkReferences": {},
  "deployedLinkReferences": {}
}