{
  "_format": "hh-sol-artifact-1",
  "contractName": "SignatureERC20Withdraw",
  "sourceName": "contracts/influencemining/SignatureERC20Withdraw.sol",
  "abi": [
    {
      "anonymous": false,
      "inputs": [
        {
          "indexed": false,
          "internalType": "uint8",
          "name": "version",
          "type": "uint8"
        }
      ],
      "name": "Initialized",
      "type": "event"
    },
    {
      "anonymous": false,
      "inputs": [
        {
          "indexed": true,
          "internalType": "address",
          "name": "previousOwner",
          "type": "address"
        },
        {
          "indexed": true,
          "internalType": "address",
          "name": "newOwner",
          "type": "address"
        }
      ],
      "name": "OwnershipTransferred",
      "type": "event"
    },
    {
      "anonymous": false,
      "inputs": [
        {
          "indexed": false,
          "internalType": "address",
          "name": "account",
          "type": "address"
        }
      ],
      "name": "Paused",
      "type": "event"
    },
    {
      "anonymous": false,
      "inputs": [
        {
          "indexed": false,
          "internalType": "address",
          "name": "account",
          "type": "address"
        }
      ],
      "name": "Unpaused",
      "type": "event"
    },
    {
      "inputs": [],
      "name": "ad3Address",
      "outputs": [
        {
          "internalType": "contract IERC20",
          "name": "",
          "type": "address"
        }
      ],
      "stateMutability": "view",
      "type": "function"
    },
    {
      "inputs": [
        {
          "internalType": "address",
          "name": "",
          "type": "address"
        },
        {
          "internalType": "uint256",
          "name": "",
          "type": "uint256"
        }
      ],
      "name": "addressNonceUsed",
      "outputs": [
        {
          "internalType": "bool",
          "name": "",
          "type": "bool"
        }
      ],
      "stateMutability": "view",
      "type": "function"
    },
    {
      "inputs": [],
      "name": "attester",
      "outputs": [
        {
          "internalType": "address",
          "name": "",
          "type": "address"
        }
      ],
      "stateMutability": "view",
      "type": "function"
    },
    {
      "inputs": [],
      "name": "chainId",
      "outputs": [
        {
          "internalType": "uint256",
          "name": "",
          "type": "uint256"
        }
      ],
      "stateMutability": "view",
      "type": "function"
    },
    {
      "inputs": [
        {
          "internalType": "address",
          "name": "_ad3Address",
          "type": "address"
        },
        {
          "internalType": "uint256",
          "name": "_chainId",
          "type": "uint256"
        },
        {
          "internalType": "address",
          "name": "_attester",
          "type": "address"
        }
      ],
      "name": "initialize",
      "outputs": [],
      "stateMutability": "nonpayable",
      "type": "function"
    },
    {
      "inputs": [
        {
          "internalType": "address",
          "name": "_ad3Address",
          "type": "address"
        },
        {
          "internalType": "uint256",
          "name": "_chainId",
          "type": "uint256"
        },
        {
          "internalType": "address",
          "name": "_attester",
          "type": "address"
        }
      ],
      "name": "manageInitializerParams",
      "outputs": [],
      "stateMutability": "nonpayable",
      "type": "function"
    },
    {
      "inputs": [],
      "name": "owner",
      "outputs": [
        {
          "internalType": "address",
          "name": "",
          "type": "address"
        }
      ],
      "stateMutability": "view",
      "type": "function"
    },
    {
      "inputs": [],
      "name": "ownerPause",
      "outputs": [],
      "stateMutability": "nonpayable",
      "type": "function"
    },
    {
      "inputs": [],
      "name": "ownerUnPause",
      "outputs": [],
      "stateMutability": "nonpayable",
      "type": "function"
    },
    {
      "inputs": [],
      "name": "paused",
      "outputs": [
        {
          "internalType": "bool",
          "name": "",
          "type": "bool"
        }
      ],
      "stateMutability": "view",
      "type": "function"
    },
    {
      "inputs": [],
      "name": "renounceOwnership",
      "outputs": [],
      "stateMutability": "nonpayable",
      "type": "function"
    },
    {
      "inputs": [
        {
          "internalType": "address",
          "name": "newOwner",
          "type": "address"
        }
      ],
      "name": "transferOwnership",
      "outputs": [],
      "stateMutability": "nonpayable",
      "type": "function"
    },
    {
      "inputs": [
        {
          "internalType": "address",
          "name": "to",
          "type": "address"
        },
        {
          "internalType": "uint256",
          "name": "_chainId",
          "type": "uint256"
        },
        {
          "internalType": "uint256",
          "name": "amount",
          "type": "uint256"
        },
        {
          "internalType": "uint256",
          "name": "nounce",
          "type": "uint256"
        },
        {
          "internalType": "bytes",
          "name": "signature",
          "type": "bytes"
        }
      ],
      "name": "withdraw",
      "outputs": [
        {
          "internalType": "bool",
          "name": "",
          "type": "bool"
        }
      ],
      "stateMutability": "nonpayable",
      "type": "function"
    },
    {
      "inputs": [
        {
          "internalType": "address",
          "name": "erc20Address",
          "type": "address"
        }
      ],
      "name": "withdrawAllOfERC20",
      "outputs": [],
      "stateMutability": "nonpayable",
      "type": "function"
    }
  ],
  "bytecode": "0x608060405234801561001057600080fd5b5061176d806100206000396000f3fe608060405234801561001057600080fd5b50600436106100ea5760003560e01c80639a8a05921161008c578063ddf1858a11610066578063ddf1858a1461020b578063ed2b42811461021e578063f01b80db14610226578063f2fde38b1461023957600080fd5b80639a8a0592146101b3578063c350a1b5146101ca578063cd907315146101dd57600080fd5b8063786a0946116100c8578063786a09461461015a578063896ea4371461016d5780638da5cb5b1461018d578063967f1cc6146101ab57600080fd5b806347b0c3b3146100ef5780635c975abb14610139578063715018a614610150575b600080fd5b609a5461010f9073ffffffffffffffffffffffffffffffffffffffff1681565b60405173ffffffffffffffffffffffffffffffffffffffff90911681526020015b60405180910390f35b60655460ff165b6040519015158152602001610130565b61015861024c565b005b610158610168366004611589565b610260565b60975461010f9073ffffffffffffffffffffffffffffffffffffffff1681565b60335473ffffffffffffffffffffffffffffffffffffffff1661010f565b6101586102c1565b6101bc60985481565b604051908152602001610130565b6101586101d8366004611589565b6102d1565b6101406101eb366004611560565b609960209081526000928352604080842090915290825290205460ff1681565b6101406102193660046115c4565b6104cd565b61015861085d565b61015861023436600461153f565b61086d565b61015861024736600461153f565b6109f9565b610254610ab0565b61025e6000610b31565b565b610268610ab0565b6097805473ffffffffffffffffffffffffffffffffffffffff9485167fffffffffffffffffffffffff000000000000000000000000000000000000000091821617909155609892909255609a8054919093169116179055565b6102c9610ab0565b61025e610ba8565b600054610100900460ff16158080156102f15750600054600160ff909116105b8061030b5750303b15801561030b575060005460ff166001145b61039c576040517f08c379a000000000000000000000000000000000000000000000000000000000815260206004820152602e60248201527f496e697469616c697a61626c653a20636f6e747261637420697320616c72656160448201527f647920696e697469616c697a656400000000000000000000000000000000000060648201526084015b60405180910390fd5b600080547fffffffffffffffffffffffffffffffffffffffffffffffffffffffffffffff0016600117905580156103fa57600080547fffffffffffffffffffffffffffffffffffffffffffffffffffffffffffff00ff166101001790555b610402610c2d565b61040a610ccc565b6097805473ffffffffffffffffffffffffffffffffffffffff8087167fffffffffffffffffffffffff0000000000000000000000000000000000000000928316179092556098859055609a80549285169290911691909117905580156104c757600080547fffffffffffffffffffffffffffffffffffffffffffffffffffffffffffff00ff169055604051600181527f7f26b83ff96e1f2b6a682f133852f6798a09c465da95921460cefb38474024989060200160405180910390a15b50505050565b60006104d7610d6b565b8460985414610568576040517f08c379a000000000000000000000000000000000000000000000000000000000815260206004820152603560248201527f636861696e496420696e20706172616d732073686f756c64206d61746368207460448201527f686520636f6e7472616374277320636861696e496400000000000000000000006064820152608401610393565b60408051606088901b7fffffffffffffffffffffffffffffffffffffffff0000000000000000000000001660208083019190915260348201889052605482018790526074808301879052835180840390910181526094830184528051908201207f19457468657265756d205369676e6564204d6573736167653a0a33320000000060b484015260d08084018290528451808503909101815260f0909301909352815191012060006106198286610dd8565b905073ffffffffffffffffffffffffffffffffffffffff81161580159061065a5750609a5473ffffffffffffffffffffffffffffffffffffffff8281169116145b6106c0576040517f08c379a000000000000000000000000000000000000000000000000000000000815260206004820152601360248201527f7369676e6174757265206e6f742076616c6964000000000000000000000000006044820152606401610393565b73ffffffffffffffffffffffffffffffffffffffff8916600090815260996020908152604080832089845290915290205460ff161561075b576040517f08c379a000000000000000000000000000000000000000000000000000000000815260206004820152601460248201527f6e6f756e6365206d757374206e6f7420757365640000000000000000000000006044820152606401610393565b73ffffffffffffffffffffffffffffffffffffffff89811660008181526099602090815260408083208b84529091529081902080547fffffffffffffffffffffffffffffffffffffffffffffffffffffffffffffff0016600117905560975490517fa9059cbb0000000000000000000000000000000000000000000000000000000081526004810192909252602482018a90529091169063a9059cbb90604401602060405180830381600087803b15801561081557600080fd5b505af1158015610829573d6000803e3d6000fd5b505050506040513d601f19601f8201168201806040525081019061084d91906116bc565b5060019998505050505050505050565b610865610ab0565b61025e610dfc565b610875610ab0565b6040517f70a08231000000000000000000000000000000000000000000000000000000008152306004820152819060009073ffffffffffffffffffffffffffffffffffffffff8316906370a082319060240160206040518083038186803b1580156108df57600080fd5b505afa1580156108f3573d6000803e3d6000fd5b505050506040513d601f19601f8201168201806040525081019061091791906116dc565b90508173ffffffffffffffffffffffffffffffffffffffff1663a9059cbb61095460335473ffffffffffffffffffffffffffffffffffffffff1690565b6040517fffffffff0000000000000000000000000000000000000000000000000000000060e084901b16815273ffffffffffffffffffffffffffffffffffffffff909116600482015260248101849052604401602060405180830381600087803b1580156109c157600080fd5b505af11580156109d5573d6000803e3d6000fd5b505050506040513d601f19601f820116820180604052508101906104c791906116bc565b610a01610ab0565b73ffffffffffffffffffffffffffffffffffffffff8116610aa4576040517f08c379a000000000000000000000000000000000000000000000000000000000815260206004820152602660248201527f4f776e61626c653a206e6577206f776e657220697320746865207a65726f206160448201527f64647265737300000000000000000000000000000000000000000000000000006064820152608401610393565b610aad81610b31565b50565b60335473ffffffffffffffffffffffffffffffffffffffff16331461025e576040517f08c379a000000000000000000000000000000000000000000000000000000000815260206004820181905260248201527f4f776e61626c653a2063616c6c6572206973206e6f7420746865206f776e65726044820152606401610393565b6033805473ffffffffffffffffffffffffffffffffffffffff8381167fffffffffffffffffffffffff0000000000000000000000000000000000000000831681179093556040519116919082907f8be0079c531659141344cd1fd0a4f28419497f9722a3daafe3b4186f6b6457e090600090a35050565b610bb0610d6b565b606580547fffffffffffffffffffffffffffffffffffffffffffffffffffffffffffffff001660011790557f62e78cea01bee320cd4e420270b5ea74000d11b0c9f74754ebdbfc544b05a258610c033390565b60405173ffffffffffffffffffffffffffffffffffffffff909116815260200160405180910390a1565b600054610100900460ff16610cc4576040517f08c379a000000000000000000000000000000000000000000000000000000000815260206004820152602b60248201527f496e697469616c697a61626c653a20636f6e7472616374206973206e6f74206960448201527f6e697469616c697a696e670000000000000000000000000000000000000000006064820152608401610393565b61025e610e53565b600054610100900460ff16610d63576040517f08c379a000000000000000000000000000000000000000000000000000000000815260206004820152602b60248201527f496e697469616c697a61626c653a20636f6e7472616374206973206e6f74206960448201527f6e697469616c697a696e670000000000000000000000000000000000000000006064820152608401610393565b61025e610ef3565b60655460ff161561025e576040517f08c379a000000000000000000000000000000000000000000000000000000000815260206004820152601060248201527f5061757361626c653a20706175736564000000000000000000000000000000006044820152606401610393565b6000806000610de78585610fb4565b91509150610df481611024565b509392505050565b610e04611340565b606580547fffffffffffffffffffffffffffffffffffffffffffffffffffffffffffffff001690557f5db9ee0a495bf2e6ff9c91a7834c1ba4fdd244a5e8aa4e537bd38aeae4b073aa33610c03565b600054610100900460ff16610eea576040517f08c379a000000000000000000000000000000000000000000000000000000000815260206004820152602b60248201527f496e697469616c697a61626c653a20636f6e7472616374206973206e6f74206960448201527f6e697469616c697a696e670000000000000000000000000000000000000000006064820152608401610393565b61025e33610b31565b600054610100900460ff16610f8a576040517f08c379a000000000000000000000000000000000000000000000000000000000815260206004820152602b60248201527f496e697469616c697a61626c653a20636f6e7472616374206973206e6f74206960448201527f6e697469616c697a696e670000000000000000000000000000000000000000006064820152608401610393565b606580547fffffffffffffffffffffffffffffffffffffffffffffffffffffffffffffff00169055565b600080825160411415610feb5760208301516040840151606085015160001a610fdf878285856113ac565b9450945050505061101d565b825160401415611015576020830151604084015161100a8683836114c4565b93509350505061101d565b506000905060025b9250929050565b600081600481111561105f577f4e487b7100000000000000000000000000000000000000000000000000000000600052602160045260246000fd5b14156110685750565b60018160048111156110a3577f4e487b7100000000000000000000000000000000000000000000000000000000600052602160045260246000fd5b141561110b576040517f08c379a000000000000000000000000000000000000000000000000000000000815260206004820152601860248201527f45434453413a20696e76616c6964207369676e617475726500000000000000006044820152606401610393565b6002816004811115611146577f4e487b7100000000000000000000000000000000000000000000000000000000600052602160045260246000fd5b14156111ae576040517f08c379a000000000000000000000000000000000000000000000000000000000815260206004820152601f60248201527f45434453413a20696e76616c6964207369676e6174757265206c656e677468006044820152606401610393565b60038160048111156111e9577f4e487b7100000000000000000000000000000000000000000000000000000000600052602160045260246000fd5b1415611277576040517f08c379a000000000000000000000000000000000000000000000000000000000815260206004820152602260248201527f45434453413a20696e76616c6964207369676e6174757265202773272076616c60448201527f75650000000000000000000000000000000000000000000000000000000000006064820152608401610393565b60048160048111156112b2577f4e487b7100000000000000000000000000000000000000000000000000000000600052602160045260246000fd5b1415610aad576040517f08c379a000000000000000000000000000000000000000000000000000000000815260206004820152602260248201527f45434453413a20696e76616c6964207369676e6174757265202776272076616c60448201527f75650000000000000000000000000000000000000000000000000000000000006064820152608401610393565b60655460ff1661025e576040517f08c379a000000000000000000000000000000000000000000000000000000000815260206004820152601460248201527f5061757361626c653a206e6f74207061757365640000000000000000000000006044820152606401610393565b6000807f7fffffffffffffffffffffffffffffff5d576e7357a4501ddfe92f46681b20a08311156113e357506000905060036114bb565b8460ff16601b141580156113fb57508460ff16601c14155b1561140c57506000905060046114bb565b6040805160008082526020820180845289905260ff881692820192909252606081018690526080810185905260019060a0016020604051602081039080840390855afa158015611460573d6000803e3d6000fd5b50506040517fffffffffffffffffffffffffffffffffffffffffffffffffffffffffffffffe0015191505073ffffffffffffffffffffffffffffffffffffffff81166114b4576000600192509250506114bb565b9150600090505b94509492505050565b6000807f7fffffffffffffffffffffffffffffffffffffffffffffffffffffffffffffff8316816114fa60ff86901c601b6116f4565b9050611508878288856113ac565b935093505050935093915050565b803573ffffffffffffffffffffffffffffffffffffffff8116811461153a57600080fd5b919050565b600060208284031215611550578081fd5b61155982611516565b9392505050565b60008060408385031215611572578081fd5b61157b83611516565b946020939093013593505050565b60008060006060848603121561159d578081fd5b6115a684611516565b9250602084013591506115bb60408501611516565b90509250925092565b600080600080600060a086880312156115db578081fd5b6115e486611516565b9450602086013593506040860135925060608601359150608086013567ffffffffffffffff80821115611615578283fd5b818801915088601f830112611628578283fd5b81358181111561163a5761163a611731565b604051601f82017fffffffffffffffffffffffffffffffffffffffffffffffffffffffffffffffe0908116603f0116810190838211818310171561168057611680611731565b816040528281528b6020848701011115611698578586fd5b82602086016020830137856020848301015280955050505050509295509295909350565b6000602082840312156116cd578081fd5b81518015158114611559578182fd5b6000602082840312156116ed578081fd5b5051919050565b6000821982111561172c577f4e487b710000000000000000000000000000000000000000000000000000000081526011600452602481fd5b500190565b7f4e487b7100000000000000000000000000000000000000000000000000000000600052604160045260246000fdfea164736f6c6343000804000a",
  "linkReferences": {},
  "deployedLinkReferences": {}
}